:100000000C94FC030C9428040C9428040C942804ED
:100010000C9428040C9428040C9428040C942804B0
:100020000C9428040C9428040C9428040C942804A0
:100030000C9428040C9428040C9428040C94280490
:100040000C9428040C9428040C9428040C94280480
:100050000C9428040C9428040C9428040C948A1BF7
:100060000C9428040C94E61D0C94121F0C94280484
:100070000C9428040C9428040C9428040C94280450
:100080000C9428040C9428040C9428040C94280440
:100090000C941F1E0C94511F0C9428040C942804DB
:1000A0000C9428040C9428040C9428040C94280420
:1000B0000C9428040C9428040C9428040C94280410
:1000C0000C9428040C9428040C9428040C94581EB6
:1000D0000C94901F0C9428040C94911E0C94CF1F28
:1000E0000C94280400002100240027002A002D0081
:1000F0003000330001010000040107010A01000083
:100100002200250028002B002E00310034000201BF
:100110000000050108010B0100002000230026005B
:1001200029002C002F00320000010000030106010D
:10013000090105050505070508080808020202026D
:100140000A0A080804040404010101010101010173
:100150000303030303030303040707070C0C0C0C3E
:100160000C0C0C0C02020202060606060606060627
:100170000B0B0B0B0B0B0B0B0102102020080810B4
:100180002040102040800201020108040201010207
:1001900004081020408080402010080402018004E0
:1001A000020180402010080402010804020101023B
:1001B0000408102040800102040810204080000044
:1001C000090A02080B0C0D070603040100000000D9
:1001D000000000000000000000000000000000001F
:1001E0000000000000000000000011100F000000DF
:1001F00000000000000000000000000000000000FF
:100200000000000000000000003E5B4F5B3E3E6BC4
:100210004F6B3E1C3E7C3E1C183C7E3C181C577DA0
:10022000571C1C5E7F5E1C00183C1800FFE7C3E7EC
:10023000FF0018241800FFE7DBE7FF30483A060EFE
:100240002629792926407F050507407F05253F5A45
:100250003CE73C5A7F3E1C1C08081C1C3E7F1422B5
:100260007F22145F5F005F5F06097F017F00668960
:10027000956A606060606094A2FFA29408047E04A6
:100280000810207E201008082A1C08081C2A0808CC
:100290001E101010100C1E0C1E0C30383E3830068C
:1002A0000E3E0E06000000000000005F0000000788
:1002B000000700147F147F14242A7F2A12231308B6
:1002C000646236495620500008070300001C224192
:1002D000000041221C002A1C7F1C2A08083E080836
:1002E00000807030000808080808000060600020E6
:1002F000100804023E5149453E00427F40007249C9
:100300004949462141494D331814127F102745456C
:1003100045393C4A49493141211109073649494982
:1003200036464949291E00001400000040340000F0
:100330000008142241141414141400412214080259
:10034000015909063E415D594E7C1211127C7F49CC
:100350004949363E414141227F4141413E7F494921
:1003600049417F090909013E414151737F0808084D
:100370007F00417F41002040413F017F081422411E
:100380007F404040407F021C027F7F0408107F3E78
:100390004141413E7F090909063E4151215E7F09E5
:1003A000192946264949493203017F01033F40404C
:1003B000403F1F2040201F3F4038403F6314081437
:1003C0006303047804036159494D43007F4141416F
:1003D0000204081020004141417F04020102044050
:1003E00040404040000307080020545478407F28D4
:1003F0004444383844444428384444287F385454CA
:10040000541800087E090218A4A49C787F080404EC
:100410007800447D40002040403D007F102844008B
:1004200000417F40007C047804787C08040478381C
:1004300044444438FC1824241818242418FC7C084C
:10044000040408485454542404043F44243C4040C9
:10045000207C1C2040201C3C4030403C442810287C
:10046000444C9090907C4464544C440008364100C5
:100470000000770000004136080002010204023C3F
:100480002623263C1EA1A161123A4040207A38540E
:100490005455592155557941225454784221555487
:1004A000784020545579400C1E52721239555555DA
:1004B00059395454545939555454580000457C41C5
:1004C0000002457D420001457C407D1211127DF005
:1004D000282528F07C545545002054547C547C0A2F
:1004E000097F4932494949323A4444443A324A48F8
:1004F00048303A4141217A3A42402078009DA0A0FC
:100500007D3D4242423D3D4040403D3C24FF24244D
:10051000487E4943662B2FFC2F2BFF0929F620C06C
:10052000887E090320545479410000447D413048BD
:10053000484A32384040227A007A0A0A727D0D1900
:10054000317D2629292F28262929292630484D4062
:1005500020380808080808080808382F10C8ACBA5E
:100560002F102834FA00007B000008142A142222DD
:10057000142A1408AA005500AAAA55AA55AA0000D0
:1005800000FF00101010FF00141414FF001010FFE3
:1005900000FF1010F010F0141414FC001414F700F5
:1005A000FF0000FF00FF1414F404FC141417101FC4
:1005B00010101F101F1414141F00101010F0000052
:1005C00000001F101010101F10101010F01000006D
:1005D00000FF101010101010101010FF100000007D
:1005E000FF140000FF00FF00001F10170000FC04B4
:1005F000F414141710171414F404F40000FF00F797
:1006000014141414141414F700F7141414171410F9
:10061000101F101F141414F4141010F010F0000028
:100620001F101F0000001F14000000FC140000F049
:1006300010F01010FF10FF141414FF141010101FEE
:1006400000000000F010FFFFFFFFFFF0F0F0F0F0FF
:10065000FFFFFF0000000000FFFF0F0F0F0F0F381C
:1006600044443844FC4A4A4A347E02020606027E6A
:10067000027E0263554941633844443C04407E2075
:100680001E2006027E020299A5E7A5991C2A492A86
:100690001C4C7201724C304A4D4D30304878483015
:1006A000BC625A463D3E494949007E0101017E2A0D
:1006B0002A2A2A2A44445F444440514A4440404440
:1006C0004A51400000FF0103E080FF000008086B72
:1006D0006B083612362436060F090F06000018186C
:1006E0000000001010003040FF0101001F01011E3A
:1006F00000191D1712003C3C3C3C00000000000F9C
:100700000180961180FFB103012C2DB203012C2D25
:10071000B306012C2D012C2DB40107C003A20284C5
:10072000C101C5C2020A00C3028A2AC4028AEEC5F8
:10073000010E20003601C83A0105022A0400020019
:10074000812B04000100A0022A040000007F2B047A
:100750000000007F022A040000007F2B040000003C
:100760009F04E010021C07123732292D29252B394E
:1007700000010310E110031D07062E2C292D2E2E3B
:10078000373F0000021013800A2980641201803272
:100790001180FF3A81050AB1830006030A36010879
:1007A000B6021502B40100C08202700AC10105C27E
:1007B000020102C5823C380AFC021115E01009163C
:1007C0000920211B131917151E2B0405020EE19099
:1007D0000B14081E221D181E1B1A242B0606020FBE
:1007E0000A2A04000200812B040002008113800AFF
:1007F0002980FF002A04392111241FBECFEFD1E246
:10080000DEBFCDBF00E00CBF14E0A0E0B2E0EEE63A
:10081000FBE500E00BBF02C007900D92AA33B107C1
:10082000D9F71AE0AAE3B4E001C01D92AB3FB107CB
:10083000E1F717E0C8EFD7E004C02297FE010E945D
:10084000B12DC43FD107C9F70E9498230C94B72A51
:100850000C94000086E298E066E047E028E00E9401
:10086000582A0E94D21B60935208709353088093B9
:1008700054089093550808958FE79AE040E855E2B0
:1008800060E070E00E940E2086E298E062E00E9444
:100890001B2A82E061E00E94821D81E00E949B1C75
:1008A000909369048093680480E00E949B1C90935D
:1008B0006B0480936A0483E00E949B1C90936D04F8
:1008C00080936C0482E00E949B1C90936F04809341
:1008D0006E0485E00E949B1C9093570680935606F9
:1008E00084E00E949B1C909359068093580687E0F1
:1008F0000E949B1C90935B0680935A0686E00E94A0
:100900009B1C90935D0680935C061092710410927C
:10091000700410925F0610925E060895EF92FF92A7
:100920000F931F937C0181E00E949B1C209168041F
:1009300030916904821B930B90935B0480935A045B
:1009400080E00E949B1C20916A0430916B048C0112
:10095000021B130B109359040093580480915A04FE
:1009600090915B04E89EB001E99E700DF89E700DB9
:100970001124882777FD8095982F0E94BE2B20E0B8
:1009800030E04AE754E40E94232B20E030E040E0CE
:100990005EE30E94722C6093600470936104809304
:1009A0006204909363040E9DB0010F9D700D1E9D17
:1009B000700D1124882777FD8095982F0E94BE2BFB
:1009C00020E030E04AE754E40E94232B20E030E0AE
:1009D00040E05EE30E94722C60935C0470935D04BF
:1009E00080935E0490935F0483E00E949B1C20919F
:1009F0006C0430916D04821B930B90936704809379
:100A0000660482E00E949B1C20916E0430916F046A
:100A1000821B930B909365048093640400915606A7
:100A20001091570685E00E949B1C081B190B109320
:100A3000490600934806009158061091590684E033
:100A40000E949B1C081B190B109347060093460637
:100A500080914806909149069C01E29EC001E39E68
:100A6000900DF29E900D112468EE73E00E945F2DB0
:100A7000882777FD8095982F0E94BE2B20E030E0DC
:100A800040E05EE30E94722C60934E0670934F0626
:100A900080935006909351060E9DC0010F9D900DBE
:100AA0001E9D900D112468EE73E00E945F2D882733
:100AB00077FD8095982F0E94BE2B20E030E040E02B
:100AC0005EE30E94722C60934A0670934B068093FB
:100AD0004C0690934D0600915A0610915B0687E0F4
:100AE0000E949B1C081B190B10935506009354067B
:100AF00000915C0610915D0686E00E949B1C081B1D
:100B0000190B10935306009352061F910F91FF90FB
:100B1000EF900895CF92DF92EF92FF920F931F9381
:100B2000CF93DF936C01EE24FF248701C0E0D0E077
:100B300016C08FE00E949B1C62E070E00E945F2D57
:100B40000C2E02C0880F991F0A94E2F7AA2797FD7E
:100B5000A095BA2FE80EF91E0A1F1B1F2196CC156F
:100B6000DD053CF3B701C801DF91CF911F910F91D3
:100B7000FF90EF90DF90CF900895AF92BF92CF9209
:100B8000DF92EF92FF920F931F93CF93DF938C012D
:100B900082E090E0909319088093180886E298E02C
:100BA00060E00E94A12686E298E066E270E048E2FA
:100BB00050E00E94952686E298E060E070E00E9496
:100BC0009B2686E298E060E072E00E944C2386E279
:100BD00098E067E170E04CE350E00E94952686E2E1
:100BE00098E06BE072E00E944C230F5F1F4F86E29B
:100BF00098E0B8014AE050E00E94392386E298E08C
:100C000063E172E00E944C2386E298E066E170E0C6
:100C10004EE450E024E530E000E110E0EE24FF2453
:100C20000E94772886E298E066E170E046E650E0B0
:100C300024E530E0EE24EA94FE2C0E94772886E238
:100C400098E068E270E042E550E00E94952686E276
:100C500098E06FEF7FEF0E949B2686E298E06AE1C2
:100C600072E00E944C2386E298E06CE170E04AE674
:100C700050E00E94952686E298E060E070E00E94D5
:100C80009B2686E298E063E272E00E944C2386E2B3
:100C900098E060E070E040E950E020E830E0EE24C9
:100CA000FF240E94772886E298E065E070E044E93E
:100CB00050E00E94952686E298E06FEF7FEF0E9459
:100CC0009B2686E298E060E372E00E944C2386E275
:100CD00098E060E078EF0E949B2686E298E067E368
:100CE00072E00E944C23609170047091710486E25E
:100CF00098E04AE050E00E94392386E298E06FE1F4
:100D000070E00E949B2686E298E06BE372E00E940E
:100D10004C2360915E0670915F0686E298E04AE09F
:100D200050E00E9439230E94D21B5B016C01C2E09B
:100D3000D0E00E94D21BDC01CB018A199B09AC09CF
:100D4000BD090E948E0420915A0430915B04233027
:100D500031050CF44FC08091180890911908892B27
:100D600009F448C086E298E066E170E04EE450E0A5
:100D700024E530E000E110E0EE24EA94FE2C0E942D
:100D8000772886E298E066E170E046E650E024E5E8
:100D900030E0EE24FF240E94772886E298E068E2A3
:100DA00070E042E550E00E94952686E298E060E01F
:100DB00070E00E949B2686E298E06AE172E00E9461
:100DC0004C2386E298E06CE170E04AE650E00E9435
:100DD000952686E298E06FEF7FEF0E949B2686E2E1
:100DE00098E063E272E00E944C231092190810927E
:100DF000180852C02E5F3F4F0CF04EC0809118086B
:100E000090911908029709F447C086E298E066E1DC
:100E100070E046E650E024E530E000E110E0EE242A
:100E2000EA94FE2C0E94772886E298E066E170E062
:100E30004EE450E024E530E0EE24FF240E947728C1
:100E400086E298E068E270E042E550E00E94952674
:100E500086E298E06FEF7FEF0E949B2686E298E0A3
:100E60006AE172E00E944C2386E298E06CE170E057
:100E70004AE650E00E94952686E298E060E070E045
:100E80000E949B2686E298E063E272E00E944C2377
:100E9000D0931908C093180882E00E94B51D892BD1
:100EA00009F047CFDF91CF911F910F91FF90EF9005
:100EB000DF90CF90BF90AF900895CF92DF92EF92E6
:100EC000FF920F931F93CF93DF93EC016B01FB0114
:100ED000808591858130910509F45DC0823091054E
:100EE0001CF4892B49F061C08230910509F456C089
:100EF000039709F05AC057C08C859D854E969D87F3
:100F00008C8788859985AA85BB858030F8EF9F07F7
:100F1000F0E0AF07F0E0BF07E9F486E298E060E0B8
:100F200070E04BE950E020E830E005E010E0EE240E
:100F3000EA94FE2C0E9477282091480430914904BD
:100F400086E298E060E070E04BE950E0E12CA8EF29
:100F5000FA2E1EC04F97A105B10539F586E298E03B
:100F600060E070E040E050E020E830E005E010E0B4
:100F7000EE24EA94FE2C0E9477282C853D8586E29B
:100F800098E060E070E040E050E0FFE1EF2EF12CEF
:100F90000E9477280AC01F861E8607C083E090E063
:100FA000998B888B02C01B8A1A8AF60180859185ED
:100FB000181619066CF588859985AA85BB85803039
:100FC000F8EF9F07F0E0AF07F0E0BF0739F486E2E3
:100FD00098E060E070E046E950E00AC04F97A10554
:100FE000B10581F486E298E060E070E045E050E011
:100FF00020E830E005E010E0E0EEEE2EEFEFFE2E10
:101000000E9477280E94D21B6C8B7D8B8E8B9F8BCE
:10101000F601138612860E94D21BF601608371834B
:1010200082839383DF91CF911F910F91FF90EF9077
:10103000DF90CF900895AF92BF92CF92DF92EF9260
:10104000FF920F931F93CF93DF935B01EC01B4E00A
:10105000CB2ED12C12C0688D798D4A8D5B8D2C8D55
:101060003D8D0E8D1F8D86E298E0EE24EA94FE2CD5
:101070000E9477280894C11CD11C2896CA14DB044E
:1010800054F3DF91CF911F910F91FF90EF90DF907C
:10109000CF90BF90AF9008952F923F924F925F9262
:1010A0006F927F928F929F92AF92BF92CF92DF9278
:1010B000EF92FF920F931F93DF93CF9300D000D056
:1010C000CDB7DEB74C01CB01C6969E838D8322241B
:1010D0003324AD81BE8118966D917D918D919C9147
:1010E0001B9720E030E040E050E00E941F2B882357
:1010F00079F4ED81FE81648575858685978520E08C
:1011000030E040E050E00E941F2B882309F4EFC03C
:10111000D4016D917D918D919C910E948B2B6B01DF
:10112000F401E480F58006811781AD81BE816D9167
:101130007D918D919C910E948B2B69837A838B8307
:101140009C8329813A81ED81FE81448055806680AF
:101150007780A088B188C6010896281739070CF057
:10116000C6C02A0D3B1DC216D3060CF0C0C0C80174
:10117000B7010E948B2B8B01C301B2010E948B2B04
:10118000C8010896681779070CF0B1C06A0D7B1D7D
:10119000061717070CF0ABC0D4011C968D919C91DB
:1011A0001D97ED81FE8122893389821B930B1D9649
:1011B0009C938E931C9780E090E0A0E0B0E0848741
:1011C0009587A687B78780879187A287B387C30152
:1011D000B2010E948B2B5B016C01AD81BE815096E8
:1011E0000D911C91519786E298E060E04FEF2FEF50
:1011F0000E94EF287C0186E298E069817A81A5014E
:1012000098010E947728F401608171818281938125
:101210000E948B2B5B016C01D40114966D917D9122
:101220008D919C9117970E948B2B9B01AC01F4012F
:10123000E084F18486E298E0B501A90128E030E07D
:1012400008E010E00E94772880E090E0A8ECB2EC83
:10125000ED81FE8180839183A283B3838483958310
:10126000A683B783F40180859185A285B3858050DC
:10127000984FA040B040F9F486E298E060E070E05A
:101280004BE950E020E830E005E010E0EE24EA947D
:10129000FE2C0E947728D4011C962D913C911D971D
:1012A0001896ED90FC90199786E298E060E070E067
:1012B0004BE950E01AC086E298E060E070E040E060
:1012C00050E020E830E005E010E0EE24EA94FE2C47
:1012D0000E947728F40124853585E084F18486E234
:1012E00098E060E070E040E050E00E9477280894C9
:1012F000211C311C8D819E8146969E838D8394E1B5
:101300002916310409F0E5CE809124089091250832
:10131000019709F064C0D4016D917D918D919C91EC
:101320000E948B2BF40124813581468157810091E5
:101330001E0810911F08C0902008D0902108CB01F2
:101340000896081719070CF04AC0C80108966817D4
:1013500079070CF044C0CA01B9010E948B2BCB0164
:101360000896C816D906DCF5C601089668177907ED
:10137000B4F586E298E060E04FEF2FEF0E94EF288F
:101380007C0186E298E0B801A60128E030E008E0A0
:1013900010E00E947728D4016D917D918D919C91F0
:1013A0000E948B2B5B016C01F40164817581868145
:1013B00097810E948B2B9B01AC01D4011896ED9074
:1013C000FC90199786E298E0B501A90128E030E089
:1013D0000E947728C4016AE178E00E945D072696A2
:1013E0000FB6F894DEBF0FBECDBFCF91DF911F9136
:1013F0000F91FF90EF90DF90CF90BF90AF909F90B4
:101400008F907F906F905F904F903F902F900895B6
:101410002F923F924F925F926F927F928F929F9204
:10142000AF92BF92CF92DF92EF92FF920F931F93F2
:10143000DF93CF9300D000D0CDB7DEB75C017E83C1
:101440006D83DB016D917D918D919C910E948B2B21
:101450001B012C01ED81FE8164817581868197815C
:101460000E948B2B3B014C01AD81BE8150960D91AA
:101470001C91519786E298E060E04FEF2FEF0E94B9
:10148000EF287C0186E298E0B101A30198010E9457
:101490007728CC24B7FCC094DC2CC601B5010E948F
:1014A000BE2B7B018C01ED81FE812485358546852F
:1014B00057850E94722C9B01AC01AD81BE816D915C
:1014C0007D918D919C910E94BB2AED81FE8160836C
:1014D000718382839383C801B7012085318542855A
:1014E00053850E94722CAD81BE8114962D913D9141
:1014F0004D915C9117970E94BB2A2B013C01ED8115
:10150000FE816483758386839783E0913A04F0912A
:101510003B04EE0FFF1FE351FC4F808191819C83C0
:101520008B83C090F703D090F803AA24BB2450C04B
:10153000D60116960D90BC91A02DBA83A983F60111
:101540002480358002811381E080F180AD81BE81ED
:101550006D917D918D919C910E948B2BCB01880D7B
:10156000991DE816F9060CF05CC0E20CF31C6E1530
:101570007F050CF056C0C301B2010E948B2B860E72
:10158000971E081519050CF04CC0E981FA810E0F61
:101590001F1F601771070CF044C080E090E0A0E0CE
:1015A000B0E0ED81FE8180879187A287B387848731
:1015B0009587A687B78780E090E0A8ECB2EC80839F
:1015C0009183A283B38384839583A683B78331C039
:1015D000AD81BE8150968D909C905197EB81FC819E
:1015E000AE16BF060CF4A4CF6D917D918D919C91A8
:1015F0000E948B2B5B016C01C301B2010E948B2BFB
:101600009B01AC01AD81BE815496ED90FC90559745
:1016100086E298E0B501A901940184010E9477282F
:1016200008C00894A11CB11CE8E0F0E0CE0EDF1E5B
:10163000CFCF26960FB6F894DEBF0FBECDBFCF91A9
:10164000DF911F910F91FF90EF90DF90CF90BF90AF
:10165000AF909F908F907F906F905F904F903F9052
:101660002F9008956F927F928F929F92AF92BF9228
:10167000CF92DF92EF92FF920F931F93CF93DF935E
:1016800082E090E090931908809318080E94D21B82
:101690003B014C0186E298E060E00E94A12686E2D0
:1016A00098E060E270E042E350E00E94952686E216
:1016B00098E060E070E00E949B2686E298E061E49A
:1016C00072E00E944C2386E298E066E170E04EE40E
:1016D00050E024E530E000E110E0EE24FF240E9419
:1016E000772886E298E066E170E046E650E024E57F
:1016F00030E0EE24EA94FE2C0E94772886E298E0FF
:101700006EE270E042E550E00E94952686E298E0A5
:101710006FEF7FEF0E949B2686E298E06DE472E017
:101720000E944C2386E298E06CE170E04AE650E0CB
:101730000E94952686E298E060E070E00E949B2679
:1017400086E298E063E272E00E944C2368EC70E06D
:1017500080E090E00E94E01B0E94D21B5B016C01C4
:10176000C2E0D0E00E94D21BDC01CB018A199B09A8
:10177000AC09BD090E948E0420915A0430915B048B
:10178000233031050CF44FC080911808909119084E
:10179000892B09F448C086E298E066E170E04EE4E7
:1017A00050E024E530E000E110E0EE24EA94FE2C65
:1017B0000E94772886E298E066E170E046E650E015
:1017C00024E530E0EE24FF240E94772886E298E0AA
:1017D0006EE270E042E550E00E94952686E298E0D5
:1017E00060E070E00E949B2686E298E06DE472E083
:1017F0000E944C2386E298E06CE170E04AE650E0FB
:101800000E94952686E298E06FEF7FEF0E949B266C
:1018100086E298E063E272E00E944C23109219087D
:101820001092180852C02E5F3F4F0CF04EC08091AE
:10183000180890911908029709F447C086E298E0C9
:1018400066E170E046E650E024E530E000E110E0BB
:10185000EE24EA94FE2C0E94772886E298E066E166
:1018600070E04EE450E024E530E0EE24FF240E94D6
:10187000772886E298E06EE270E042E550E00E9450
:10188000952686E298E06FEF7FEF0E949B2686E226
:1018900098E06DE472E00E944C2386E298E06CE1EF
:1018A00070E04AE650E00E94952686E298E060E00B
:1018B00070E00E949B2686E298E063E272E00E945C
:1018C0004C23D0931908C093180882E00E94B51DDC
:1018D000892B09F047CF8091180890911908029739
:1018E00009F0FEC086E298E060E04FEF2FEF0E9423
:1018F000EF28BC0186E298E00E945C2860913C04DD
:1019000070913D0480913E0490913F040E948B2B86
:101910005B016C016091400470914104809142042C
:10192000909143040E948B2B9B01AC01E0904404F6
:10193000F090450486E298E0B501A90128E030E086
:1019400008E010E00E94772860912A0670912B062B
:1019500080912C0690912D060E948B2B5B016C01CF
:1019600060912E0670912F0680913006909131067D
:101970000E948B2B9B01AC01E0903206F090330665
:1019800086E298E0B501A90128E030E00E947728BE
:1019900086E298E060E070E040E050E020E830E06F
:1019A0000AE010E0EE24EA94FE2C0E94772886E2FA
:1019B00098E060E070E046E950E020E830E00E9406
:1019C0007728209136063091370686E298E060E06D
:1019D00070E040E050E005E010E0FFE1EF2EF12C78
:1019E0000E947728209148043091490486E298E0CB
:1019F00060E070E04BE950E0E12CE8EFFE2E0E9441
:101A00007728E0913A04F0913B04EE0FFF1FE35179
:101A1000FC4F608171818091F7039091F8030E94DF
:101A20001B080E94D21B661977092091500430913F
:101A3000510440915204509153042F3F8FEF3807C7
:101A40008FEF48078FEF580789F0CB01AA2797FD42
:101A5000A095BA2F820F931FA41FB51F8093500427
:101A600090935104A0935204B093530420913E06E6
:101A700030913F0640914006509141062F3F8FEF35
:101A800038078FEF48078FEF580789F0CB01AA2757
:101A900097FDA095BA2F820F931FA41FB51F8093A7
:101AA0003E0690933F06A0934006B0934106CB01BB
:101AB000AA2797FDA095BA2F20911A0830911B08EC
:101AC00040911C0850911D08820F931FA41FB51F41
:101AD00080931A0890931B08A0931C08B0931D08CC
:101AE000DF91CF911F910F91FF90EF90DF90CF90FA
:101AF000BF90AF909F908F907F906F900895AF921E
:101B0000BF92CF92DF92EF92FF920F931F9386E2E4
:101B100098E060E070E00E945C2886E298E061E076
:101B20000E94A12686E298E060E070E040E050E08C
:101B30000E94952686E298E06FEF7FEF0E949B2639
:101B400086E298E064E572E00E944C230E94D21B7A
:101B50005B016C010E94D21B7B018C01DC01CB017B
:101B60008A199B09AC09BD090E948E0482E00E947B
:101B7000B51D57016801892B69F710921908109259
:101B800018081F910F91FF90EF90DF90CF90BF90BA
:101B9000AF9008952F923F924F925F926F927F92F3
:101BA0008F929F92AF92BF92CF92DF92EF92FF926D
:101BB0000F931F93CF93DF93CCE3D4E000E010E0CA
:101BC000B1E02B2E312C44244A94542C32010F2E98
:101BD000F0E08F2EF0E09F2EF0E0AF2EF0E0BF2E71
:101BE000F02D0F2EF0E0CF2EF0E0DF2EF8ECEF2EF0
:101BF000F2ECFF2EF02D80E090E0A8E7B2E48883BD
:101C00009983AA83BB83A0E8B0E0BD87AC873F86F9
:101C10002E86398A288A84E690E09B8B8A8B4C8AB0
:101C20005D8A6E8A7F8A0E94D21B688F798F8A8F25
:101C30009B8FAEEEB1E00A9FF0010B9FF00D1A9F53
:101C4000F00D1124EE58FB4F80E090E080869186E5
:101C5000A286B38684869586A686B786C482D582F8
:101C6000E682F782C082D182E282F3820196769682
:101C70008431910559F70F5F1F4FC251DE4F02307B
:101C8000110509F0B8CF80E090E0ACEEB2E48093AB
:101C9000400490934104A0934204B093430480E035
:101CA00090E0A8E1B2E480932E0690932F06A093D3
:101CB0003006B093310680E098EFA0E0B0E080936A
:101CC000440490934504A0934604B09347048FE1E5
:101CD00090E0A0E0B0E08093320690933306A093AA
:101CE0003406B093350686E298E060E04FEF2FEFC0
:101CF0000E94EF28BC0186E298E00E945C28809157
:101D00003A0490913B0482309105A1F08330910513
:101D10002CF4009749F00197C9F409C0833091056C
:101D200061F0049799F40CC085EA92E00BC085EC51
:101D300092E008C085E093E005C085E593E002C02D
:101D400085EC93E09093F8038093F703E0913A04D5
:101D5000F0913B04EE0FFF1FE351FC4F6081718156
:101D60008091F7039091F8030E941B0860913C0456
:101D700070913D0480913E0490913F040E948B2B12
:101D80005B016C01609140047091410480914204B8
:101D9000909143040E948B2B9B01AC01E090440482
:101DA000F090450486E298E0B501A90128E030E012
:101DB00008E010E00E94772860912A0670912B06B7
:101DC00080912C0690912D060E948B2B5B016C015B
:101DD00060912E0670912F06809130069091310609
:101DE0000E948B2B9B01AC01E0903206F0903306F1
:101DF00086E298E0B501A90128E030E00E9477284A
:101E000086E298E060E070E040E050E020E830E0FA
:101E10000AE010E0EE24EA94FE2C0E94772886E285
:101E200098E060E070E046E950E020E830E00E9491
:101E30007728209136063091370686E298E060E0F8
:101E400070E040E050E005E010E0EFE1EE2EF12C14
:101E50000E947728209148043091490486E298E056
:101E600060E070E04BE950E0E12CB8EFFB2E0E94FF
:101E7000772886E298E068E370E044E450E024E1EB
:101E800030E004E110E0EE24FF240E94772886E28F
:101E900098E060E04FEF2FEF0E94EF287C0186E290
:101EA00098E068E370E048E450E020E130E004E0CE
:101EB00010E00E94772886E298E060E04FEF2FEF75
:101EC0000E94EF287C0186E298E068E370E040E53C
:101ED00050E020E130E00E94772868EE73E080E077
:101EE00090E00E94E01B86E298E068E370E044E442
:101EF00050E024E130E004E110E0EE24FF240E94F1
:101F0000772886E298E060E04FEF2FEF0E94EF28FD
:101F10007C0186E298E068E370E048E450E020E16C
:101F200030E004E010E00E94772886E298E060E06C
:101F30004FEF2FEF0E94EF287C0186E298E06CE3E0
:101F400070E040E550E020E130E00E94772868EE44
:101F500073E080E090E00E94E01B86E298E060E0A1
:101F60004FEF2FEF0E94EF287C0186E298E068E3B4
:101F700070E044E450E024E130E004E110E00E942D
:101F8000772886E298E060E470E044E450E024E0E2
:101F900030E0EE24FF240E94772868EE73E080E0B2
:101FA00090E00E94E01B86E298E060E04FEF2FEFA8
:101FB0000E94EF287C0186E298E060E470E044E44F
:101FC00050E024E030E00E94772886E298E06CE25E
:101FD00070E040E450E024E130E0EE24FF240E9471
:101FE000772886E298E060E04FEF2FEF0E94EF281D
:101FF0007C0186E298E060E370E044E450E020E198
:1020000030E004E010E00E94772886E298E060E08B
:102010004FEF2FEF0E94EF287C0186E298E060E30B
:1020200070E048E450E024E030E008E010E00E9476
:10203000772886E298E060E04FEF2FEF0E94EF28CC
:102040007C0186E298E064E370E04CE450E028E034
:1020500030E004E010E00E94772886E298E064E433
:1020600070E040E450E024E130E004E110E0EE24D0
:10207000FF240E94772886E298E060E04FEF2FEF80
:102080000E94EF287C0186E298E068E470E044E476
:1020900050E02CE030E00CE010E00E9477286CE289
:1020A00071E080E090E00E94E01B86E298E060E052
:1020B0004FEF2FEF0E94EF287C0186E298E068E264
:1020C00070E040E450E022E430E004E110E00E94DF
:1020D0007728E0913A04F0913B04EE0FFF1FE351A3
:1020E000FC4F608171818091F7039091F8030E9409
:1020F0001B080E94D21B60931A0870931B088093E0
:102100001C0890931D08109225081092240882E064
:1021100090E09093190880931808DF91CF911F9158
:102120000F91FF90EF90DF90CF90BF90AF909F9076
:102130008F907F906F905F904F903F902F90089579
:10214000AF92BF92CF92DF92EF92FF920F931F93C5
:1021500086E298E060E070E00E945C2886E298E009
:1021600060E270E048E150E00E94952686E298E047
:102170006FEF7FEF0E949B2686E298E06EE672E0AA
:102180000E944C2386E298E066E170E040E250E075
:1021900024E530E000E110E0EE24EA94FE2C0E94F9
:1021A000772886E298E066E170E048E350E024E5B5
:1021B00030E00E94722486E298E066E170E040E53B
:1021C00050E024E530E00E94722486E298E066E167
:1021D00070E048E650E024E530E00E94722486E298
:1021E00098E066E170E040E850E024E530E00E94CD
:1021F000722486E298E060E00E94A12686E298E0E0
:1022000062E370E044E250E00E94952686E298E0A6
:1022100060E070E00E949B2686E298E069E772E049
:102220000E944C2386E298E06CE170E04CE350E0C1
:102230000E94952686E298E06FEF7FEF0E949B2632
:1022400086E298E06EE772E00E944C2386E298E016
:1022500062E370E044E550E00E94952686E298E053
:102260006FEF7FEF0E949B2686E298E063E872E0C2
:102270000E944C2386E298E06CE170E04CE650E06E
:102280000E94952686E298E06FEF7FEF0E949B26E2
:1022900086E298E068E872E00E944C2386E298E0CB
:1022A0006CE170E044E850E00E94952686E298E0F8
:1022B0006FEF7FEF0E949B2686E298E06DE872E068
:1022C0000E944C230E94D21B5B016C010E94D21B16
:1022D0007B018C01DC01CB018A199B09AC09BD098A
:1022E0000E948E0482E00E94B51D57016801892B6F
:1022F00069F710923B0410923A040E94CA0D1F9194
:102300000F91FF90EF90DF90CF90BF90AF90089526
:10231000AF92BF92CF92DF92EF92FF920F931F93F3
:10232000CF93DF9386E298E060E070E00E945C2843
:1023300086E298E06CE070E040E250E024E030E0BB
:1023400008E110E0E12CF8EFFF2E0E94772886E2EA
:1023500098E060E170E040E250E024E030E004E02A
:1023600010E00E94772886E298E064E170E044E2A1
:1023700050E024E030E00E94772886E298E060E1B7
:1023800070E048E250E024E030E00E94772886E2E6
:1023900098E06CE170E04CE250E024E030E0EE24A4
:1023A000EA94FE2C0E94772886E298E06EE170E0C5
:1023B00040E350E024E030E00E94772886E298E095
:1023C00060E270E044E350E024E030E00E947728CF
:1023D00086E298E062E270E040E350E024E030E022
:1023E0000E94772886E298E064E270E04CE250E0D8
:1023F00024E030E00E94772886E298E060E370E015
:1024000040E250E024E030E008E110E0EFE1EE2EA1
:10241000F12C0E94772886E298E064E370E040E2C5
:1024200050E024E030E004E010E00E94772886E2EB
:1024300098E068E370E044E250E024E030E00E947D
:10244000772886E298E064E370E048E250E024E018
:1024500030E00E94772886E298E060E470E04CE289
:1024600050E02CE030E00CE010E0EE24EA94FE2C8A
:102470000E94772886E298E064E470E04CE250E045
:1024800024E030E008E010E0EE24FF240E947728EA
:1024900086E298E060E570E044E250E024E030E05D
:1024A00004E010E0EE24EA94FE2C0E94772886E2F5
:1024B00098E060E570E04CE250E024E030E00CE0B1
:1024C00010E00E94772886E298E068E570E04AE232
:1024D00050E024E030E002E010E00E94772886E23D
:1024E00098E068E570E04CE250E02CE030E00CE071
:1024F00010E00E94772886E298E06CE570E040E307
:1025000050E024E030E008E010E0EE24FF240E94D8
:10251000772886E298E068E670E04CE250E02CE034
:1025200030E00CE010E0EE24EA94FE2C0E947728C4
:1025300086E298E06CE670E040E350E024E030E0B2
:1025400004E010E0EE24FF240E94772886E298E061
:1025500066E170E04EE450E024E530E000E110E098
:10256000EE24EA94FE2C0E94772886E298E066E149
:1025700070E046E650E024E530E00E94722486E2F6
:1025800098E060E00E94A12686E298E062E370E0B5
:1025900042E550E00E94952686E298E060E070E017
:1025A0000E949B2686E298E062E972E00E944C233A
:1025B00086E298E06CE170E04AE650E00E949526E1
:1025C00086E298E06FEF7FEF0E949B2686E298E01C
:1025D00068E972E00E944C230E94D21B7B018C01AF
:1025E000C0E0D0E00E94D21B5B016C01DC01CB019A
:1025F0008E199F09A00BB10B0E948E0480915A0482
:1026000090915B04833091050CF453C0209709F43A
:1026100050C086E298E066E170E04EE450E024E5C8
:1026200030E000E110E0EE24FF240E94772886E2EB
:1026300098E066E170E04EE450E024E530E0EE24FE
:10264000EA94FE2C0E94722486E298E066E170E033
:1026500046E650E024E530E00E94772886E298E0E4
:1026600062E370E042E550E00E94952686E298E041
:102670006FEF7FEF0E949B2686E298E062E972E0AE
:102680000E944C2386E298E06CE170E04AE650E05C
:102690000E94952686E298E060E070E00E949B260A
:1026A00086E298E068E972E00E944C23C0E0D0E046
:1026B00057C08E5F9F4F0CF053C0C130D10509F455
:1026C0004FC086E298E066E170E046E650E024E51F
:1026D00030E000E110E0EE24FF240E94772886E23B
:1026E00098E066E170E046E650E024E530E0EE2454
:1026F000EA94FE2C0E94722486E298E066E170E083
:102700004EE450E024E530E00E94772886E298E02D
:1027100062E370E042E550E00E94952686E298E090
:1027200060E070E00E949B2686E298E062E972E039
:102730000E944C2386E298E06CE170E04AE650E0AB
:102740000E94952686E298E06FEF7FEF0E949B261D
:1027500086E298E068E972E00E944C23C1E0D0E094
:1027600082E00E94B51D86017501892B09F03ACFE0
:10277000CD2B39F481E090E09093190880931808EC
:1027800002C00E94A010DF91CF911F910F91FF9086
:10279000EF90DF90CF90BF90AF900895EF92FF92AF
:1027A0000F931F93CF93DF93EC0188859985813038
:1027B0009105D9F0823091051CF4892B41F05EC05F
:1027C0008230910501F1039709F058C02BC06C814C
:1027D0007D814E815F8186E298E028E030E008E06C
:1027E00010E0E12CF8EFFF2E2BC06C817D814E8133
:1027F0005F8186E298E028E030E008E010E0EFE159
:10280000EE2EF12C1DC06C817D814E815F8186E2B0
:1028100098E028E030E008E010E0B0EEEB2EBFEFEB
:10282000FB2E0EC06C817D814E815F8186E298E037
:1028300028E030E008E010E0A0EEEA2EA7E0FA2E53
:102840000E9472246C817D814E815F814D5F5F4F5C
:1028500086E298E028E030E002E010E00E9477286D
:102860006C817D816D5F7F4F4E815F8186E298E054
:1028700022E030E008E010E00E947728DF91CF915D
:102880001F910F91FF90EF900895EF92FF920F9399
:102890001F93CF93DF93EC010E94D21B28813981D3
:1028A0004A815B81621B730B840B950B69587341E2
:1028B00080409040C0F18A859B85892BA1F581E0FD
:1028C00090E00E948A05611571058105910559F115
:1028D00087E090E00E948A057B018C0187E090E010
:1028E0000E948A05FD82EC8297012937310514F098
:1028F00028E730E03D832C836A3071051CF46AE0E0
:1029000070E005C06F38710514F06EE870E07F83E9
:102910006E8382E090E00E948A057987688781E073
:1029200090E09B878A878A859B85892B19F0CE0149
:102930000E94CE13DF91CF911F910F91FF90EF90E6
:1029400008952F923F924F925F926F927F928F9253
:102950009F92AF92BF92CF92DF92EF92FF920F932E
:102960001F93DF93CF93CDB7DEB72A970FB6F894B6
:10297000DEBF0FBECDBF3B0158874F834901DB014E
:102980009A968D919C919B9798962D913C919997B1
:10299000FB01FE96FA87E9871E821D825C01CC242A
:1029A000B7FCC094DC2C79010027F7FC0095102FB0
:1029B000A985BA856D917D918D919C9120E030E043
:1029C00040E050E00E941F2B882309F004C1C6019B
:1029D000B5010E94BE2B1B012C01C801B7010E944A
:1029E000BE2B69837A838B839C83E985FA85648116
:1029F00075818681978120E030E040E050E00E94C0
:102A00001F2B882309F0E7C086E190E02D813E81ED
:102A1000289F8001299F100D389F100D1124060D4D
:102A2000171D0A5B1F4FD801EF81F885ED93FD93C9
:102A30008D929D928D01F301808591858D939C935C
:102A40000A541040608171818281938120E030E0DE
:102A500040E850E40E94BB2A4B015C012F8138857D
:102A6000B901882777FD8095982F0E94BE2B20E022
:102A700030E040E05FEB0E94722C6B017C01C501ED
:102A8000B401A70196010E94BB2AD801D6966D9386
:102A90007D938D939C93D997F30164817581868191
:102AA000978120E030E040E850E40E94BB2AA70173
:102AB00096010E94BB2AD801DA966D937D938D937F
:102AC0009C93DD97C201B101A20191010E94722C79
:102AD0007B018C0169817A818B819C819B01AC0196
:102AE0000E94722C9B01AC01C801B7010E94BB2A55
:102AF0007B018C0120E030E040E050E00E946E2C31
:102B0000181624F017FB109517F91095C801B70196
:102B10000E94D92C5B016C0186E190E0ED81FE8181
:102B2000E89F7001E99FF00CF89FF00C1124E60C6F
:102B3000F71C2EE330E0E20EF31EC201B101A60144
:102B400095010E94232B20E030E040E05EE30E94EC
:102B5000722CD7016D937D938D939D937D01698137
:102B60007A818B819C81A60195010E94232B20E014
:102B700030E040E05EE30E94722CF70161937193B4
:102B8000819391937F01008111812AEB3FEFE20E47
:102B9000F31ED701D6966D917D918D919C91D99719
:102BA0000E948B2B5B016C01F70162AD73AD84ADAC
:102BB00095AD0E948B2B9B01AC0186E298E0B5019C
:102BC000A9019801A0EEEA2EA7E0FA2E0E9477282C
:102BD00021E030E012C02D813E812F5F3F4F3E83C8
:102BE0002D8349855A854A5E5F4F5A87498724312C
:102BF000310509F0DDCE20E030E0C9012A960FB69C
:102C0000F894DEBF0FBECDBFCF91DF911F910F9122
:102C1000FF90EF90DF90CF90BF90AF909F908F90FC
:102C20007F906F905F904F903F902F900895AF925C
:102C3000BF92CF92DF92EF92FF920F931F93CF93A9
:102C4000DF935C01EB018AA59BA597FF03C09095DC
:102C500081959F4F03974CF488A599A597FF03C0D2
:102C6000909581959F4F03975CF10E94D21B288D10
:102C7000398D4A8D5B8D621B730B840B950B2A89F2
:102C80003B89442737FD4095542F261737074807BF
:102C90005907B0F4888999899C01220F331F220FAC
:102CA000331F280F391FC501BE0142E050E00E94CA
:102CB000A1147C010E94D21B688F798F8A8F9B8F11
:102CC00000E010E0B6E1CB2ED12C0C9DB0010D9DA3
:102CD000700D1C9D700D11246A5C7F4F6C0F7D1F61
:102CE000C5010E94080A0F5F1F4F0431110569F7E3
:102CF000EF28E1F0688179818A819B810E948B2B8A
:102D00005B016C016C817D818E819F810E948B2B88
:102D10009B01AC01E884F98486E298E0B501A90141
:102D200028E030E008E010E00E947728DF91CF91A2
:102D30001F910F91FF90EF90DF90CF90BF90AF90D9
:102D40000895AF92BF92CF92DF92EF92FF920F93CE
:102D50001F93CF93DF93EC010E94D21B9B01AC0128
:102D60006C897D898E899F896F3FEFEF7E07EFEF3A
:102D70008E07EFEF9E0709F47DC0261B370BF3E1AA
:102D800029383F079CF081E090E09F878E87998BE0
:102D9000888B84E690E09B8B8A8B8FEF9FEFAFEF61
:102DA000BFEF8C8B9D8BAE8BBF8B64C000D00F921E
:102DB000B901882777FD8095982F20E830E040E022
:102DC00050E0EDB7FEB7218332834383548320E084
:102DD00030E040E050E0A8E8EA2EA3E1FA2E012D11
:102DE000112DAA24BB2465010E944F23F0E8CF2EA9
:102DF000D12CC61AD70A0F900F900F900F9088858C
:102E00009985AA85BB858050984FA040B040B1F409
:102E100086E298E060E070E046E950E020E830E0CB
:102E200005E010E0EE24EA94FE2C0E94772886E26A
:102E300098E060E070E046E950E015C086E298E076
:102E400060E070E045E050E020E830E005E010E0B0
:102E5000EE24EA94FE2C0E94772886E298E060E057
:102E600070E045E050E09601E0EEEE2EEFEFFE2E32
:102E70000E947728DF91CF911F910F91FF90EF90E3
:102E8000DF90CF90BF90AF9008952F923F924F92D6
:102E90005F926F927F928F929F92AF92BF92CF92EA
:102EA000DF92EF92FF920F931F93DF93CF93CDB7F3
:102EB000DEB7AE970FB6F894DEBF0FBECDBF7CA3D2
:102EC0006BA3DB018D919D910D90BC91A02D8F87FF
:102ED000988BA98BBA8BDB0114968D919D910D90E7
:102EE000BC91A02D8B879C87AD87BE87FB01068C8C
:102EF000F78DE02DFAA3E9A333970CF4B2C0E0916B
:102F00003A04F0913B04EE0FFF1FE351FC4F208188
:102F1000318138A32F8F8091F7039091F8039EA7FA
:102F20008DA71C8E1B8E94C0ADA5BEA514960D90CA
:102F3000BC91A02DBE8BAD8BEDA5FEA5A080B18070
:102F400006811781C280D3806B857C858D859E85A7
:102F500020E030E040E051E40E94BB2A1B012C013C
:102F6000ABA1BCA194966D907D908D909C9097970D
:102F7000B601882777FD8095982F0E94BE2BA4016B
:102F800093010E94BA2A9B01AC01C201B1010E94C7
:102F90006E2C18160CF052C00C0D1D1DB8018827A0
:102FA00077FD8095982F0E94BE2BA40193010E946B
:102FB000BA2A9B01AC01C201B1010E941F2B8823D8
:102FC0000CF03CC06F85788989899A8920E030E0CF
:102FD00040E051E40E94BB2A7B018C01B5018827A7
:102FE00077FD8095982F0E94BE2B9B01AC01C801F4
:102FF000B7010E946E2C18160CF5ED89FE89AE0EF5
:10300000BF1EB501882777FD8095982F0E94BE2BA3
:103010009B01AC016F85788989899A890E941F2B51
:10302000882364F428EF3FEFC20ED31EB601882731
:1030300077FD8095982F0E94BE2B9BC28B8D9C8D17
:1030400001969C8F8B8FADA5BEA51896BEA7ADA788
:10305000EB8DFC8D2F8D38A1E217F3070CF464CFB4
:103060007CC22B843C844D845E8489A19AA18E5FAE
:103070009F4F0CF09AC0E0913A04F0913B04EE0FA0
:10308000FF1FE351FC4F208131813A8729878091CE
:10309000F7039091F8039EA78DA7882499247AC0FE
:1030A000ADA5BEA514966D907C901597CD90DC9043
:1030B00011971296AD90BC90139716966D917C91D6
:1030C00017976A0D7B1D882777FD8095982F0E94A2
:1030D000BE2B6DA37EA38FA398A7EBA1FCA1E4A0B8
:1030E000F5A006A117A1A80197010E94BA2A9B0189
:1030F000AC01C201B1010E941F2B88230CF041C01A
:10310000B501882777FD8095982F0E94BE2BA801D6
:1031100097010E94BA2A9B01AC01C201B1010E9431
:103120006E2C181674F56F85788989899A8920E044
:1031300030E040E051E40E94BB2A7B018C01B601E3
:10314000882777FD8095982F0E94BE2B9B01AC01AC
:10315000C801B7010E946E2C18169CF4C60CD71C2F
:10316000B601882777FD8095982F0E94BE2B9B0182
:10317000AC016F85788989899A890E941F2B87FD08
:1031800010C00894811C911C2DA53EA5285F3F4FBF
:103190003EA72DA789859A85881699060CF480CFBD
:1031A000EBC12DA03EA04FA058A4ABA1BCA15C9642
:1031B0000D90BC91A02DBE8FAD8F13970CF4B6C0AF
:1031C000E0913A04F0913B04EE0FFF1FE351FC4FF6
:1031D0002081318138872F838091F7039091F80304
:1031E0009EA78DA71A8E198E98C0ADA5BEA5149660
:1031F0000D911C911597ED91FC911197FC8BEB8B28
:1032000016962D913C9117973C832B831296AD9087
:10321000BC9013976F85788989899A8920E030E07E
:1032200040E051E40E94BB2A6B017C01ABA1BCA130
:1032300090966D907D908D909C909397EB89FC89F2
:10324000BF01882777FD8095982F0E94BE2BA4018F
:1032500093010E94BA2A9B01AC01C701B6010E94EA
:103260006E2C18160CF04EC02B893C89020F131FD0
:10327000B801882777FD8095982F0E94BE2BA40166
:1032800093010E94BA2A9B01AC01C701B6010E94BA
:103290001F2B8823BCF5C201B10120E030E040E0E3
:1032A00051E40E94BB2A7B018C01B501882777FD80
:1032B0008095982F0E94BE2B9B01AC01C801B701DD
:1032C0000E946E2C1816F4F48B819C81A80EB91EF6
:1032D000B501882777FD8095982F0E94BE2B9B0112
:1032E000AC01C201B1010E941F2B88235CF4AB89A1
:1032F000BC891897BD01882777FD8095982F0E947B
:10330000BE2B55C1E98DFA8D3196FA8FE98F2DA527
:103310003EA5285F3F4F3EA72DA7898D9A8DAF818F
:10332000B8858A179B070CF460CF35C16F84788805
:1033300089889A88ED8DFE8DEE5FFF4F0CF099C065
:10334000E0913A04F0913B04EE0FFF1FE351FC4F74
:10335000808191819E838D83A091F703B091F803C2
:10336000BEA7ADA7188E1F8A77C0EDA5FEA5A080C9
:10337000B180268137813A832983C280D3806481DA
:1033800075816A0D7B1D882777FD8095982F0E9497
:10339000BE2B69A77AA78BA79CA7ABA1BCA19096CF
:1033A000ED90FD900D911C919397A80197010E94BB
:1033B000BA2A9B01AC01C401B3010E941F2B8823D0
:1033C0000CF03FC0B501882777FD8095982F0E94AB
:1033D000BE2BA80197010E94BA2A9B01AC01C4012F
:1033E000B3010E946E2C181664F5C201B10120E0F1
:1033F00030E040E051E40E94BB2A7B018C01B60121
:10340000882777FD8095982F0E94BE2B9B01AC01E9
:10341000C801B7010E946E2C18169CF4E981FA814C
:10342000CE0EDF1EB601882777FD8095982F0E946B
:10343000BE2B9B01AC01C201B1010E941F2B87FD75
:1034400014C02F89388D2F5F3F4F388F2F8B8DA55C
:103450009EA508969EA78DA7AF89B88DED81FE81A8
:10346000AE17BF070CF481CFA5C069A47AA48BA4C2
:103470009CA489A19AA197FF03C0909581959F4F25
:1034800003974CF48D8D9E8D97FF03C09095819589
:103490009F4F0397E4F186E298E060E04FEF2FEF53
:1034A0000E94EF287C016F85788989899A890E941A
:1034B0008B2B5B016C016B857C858D859E850E94C5
:1034C0008B2B9B01AC0186E298E0B501A90128E0B5
:1034D00030E008E010E00E947728C401B3010E94A8
:1034E0008B2B5B016C01C201B1010E948B2B9B01F4
:1034F000AC01ABA1BCA11896ED90FC90199786E2A7
:1035000098E0B501A90128E030E00E947728EBA1FE
:10351000FCA16082718282829382248235824682FB
:103520005782CF010E94A116AE960FB6F894DEBF67
:103530000FBECDBFCF91DF911F910F91FF90EF9004
:10354000DF90CF90BF90AF909F908F907F906F90C3
:103550005F904F903F902F9008956B857C858D856F
:103560009E85EBA1FCA124A135A146A157A10E94F3
:10357000BB2A1B012C0179CDC201B101ABA1BCA1B9
:1035800094962D913D914D915C9197970E94BB2A05
:103590001B012C010ACE6F85788989899A89EBA154
:1035A000FCA120A131A142A153A10E94BB2A3B0151
:1035B0004C01C0CEC401B301ABA1BCA190962D912A
:1035C0003D914D915C9193970E94BB2A3B014C0128
:1035D00050CFEF92FF920F931F93CF93DF930E94F0
:1035E000D21B7B018C018091520890915308E70116
:1035F000C81BD90BCE010E948E04809118089091AF
:1036000019088130910581F0823091051CF4892BD5
:1036100041F079C08230910551F0039709F073C0F1
:1036200066C00E94881165C00E947F0D62C0CE01F5
:103630006CE374E00E944517CE016AE276E00E94D6
:103640004517CE016CE374E00E941716CE016AE2C2
:1036500076E00E9417168CE394E06AE276E00E941E
:103660004C088AE296E06CE374E00E944C088AE120
:1036700098E00E94451482E00E94B51D892B31F428
:1036800083E090E0909319088093180880913606A3
:1036900090913706181619066CF08091700490917D
:1036A00071040196909371048093700480E090E01F
:1036B0000E94BD058091480490914904181619068E
:1036C0006CF080915E0690915F06019690935F0684
:1036D00080935E0681E090E00E94BD05E092520872
:1036E000F092530800935408109355080CC00E94A0
:1036F000320B0E94D21B6093520870935308809340
:10370000540890935508DF91CF911F910F91FF902E
:10371000EF9008951F920F920FB60F9211242F93DE
:103720003F938F939F93AF93BF9380915A0890914B
:103730005B08A0915C08B0915D0830915E0801962D
:10374000A11DB11D232F2D5F2D3720F02D57019680
:10375000A11DB11D20935E0880935A0890935B08C9
:10376000A0935C08B0935D0880915608909157082B
:10377000A0915808B09159080196A11DB11D8093E0
:10378000560890935708A0935808B0935908BF91D2
:10379000AF919F918F913F912F910F900FBE0F90FE
:1037A0001F9018958FB7F89420915A0830915B08B4
:1037B00040915C0850915D088FBFB901CA0108951E
:1037C0009B01AC017FB7F8948091560890915708FF
:1037D000A0915808B091590866B5A89B05C06F3FE5
:1037E00019F00196A11DB11D7FBFBA2FA92F982FE7
:1037F0008827860F911DA11DB11D62E0880F991FBA
:10380000AA1FBB1F6A95D1F7BC012DC0FFB7F89462
:103810008091560890915708A0915808B091590886
:10382000E6B5A89B05C0EF3F19F00196A11DB11D9B
:10383000FFBFBA2FA92F982F88278E0F911DA11D8A
:10384000B11DE2E0880F991FAA1FBB1FEA95D1F7AF
:10385000861B970B885E9340C8F221503040404051
:10386000504068517C4F211531054105510571F6D5
:103870000895789484B5826084BD84B5816084BDE8
:1038800085B5826085BD85B5816085BDEEE6F0E0D9
:10389000808181608083E1E8F0E010828081826035
:1038A0008083808181608083E0E8F0E080818160B6
:1038B0008083E1EBF0E0808184608083E0EBF0E0E6
:1038C000808181608083E1E9F0E080818260808393
:1038D000808181608083E0E9F0E080818160808385
:1038E000E1EAF0E080818260808380818160808372
:1038F000E0EAF0E0808181608083E1E2F1E08081B4
:1039000082608083808181608083E0E2F1E0808159
:1039100081608083EAE7F0E0808184608083808139
:1039200082608083808181608083808180688083E1
:103930001092C1000895382F863308F03653209135
:103940007B00832F86958695869590E08170907098
:1039500043E0880F991F4A95E1F7277F282B209392
:103960007B0037708091F9038295880F880F807CE7
:10397000832B80937C0080917A00806480937A000E
:1039800080917A0086FDFCCF2091780040917900EB
:10399000942F80E030E0282B392BC9010895CF9374
:1039A000DF93482F50E0CA0188589E4FFC013491A4
:1039B0004E5C5E4FFA018491882369F190E0880F94
:1039C000991FFC01EC51FF4FA591B491FC01E2500D
:1039D000FF4FC591D491662351F42FB7F8948C9181
:1039E000932F909589238C93888189230BC0623013
:1039F00061F42FB7F8948C91932F909589238C9331
:103A00008881832B88832FBF06C09FB7F8948C9141
:103A1000832B8C939FBFDF91CF910895893009F458
:103A200049C08A30A0F4843051F1853040F48230AE
:103A300079F1833000F5813009F063C026C087300A
:103A400079F1883098F5863009F05BC025C08D305B
:103A500009F442C08E3028F48B30B1F18C30C0F5BF
:103A60002DC0803109F442C0813109F445C08F3046
:103A700009F047C037C0809180008F7703C08091E4
:103A800080008F7D80938000089584B58F7702C079
:103A900084B58F7D84BD08958091B0008F7703C079
:103AA0008091B0008F7D8093B00008958091900048
:103AB0008F7707C0809190008F7D03C08091900028
:103AC000877F8093900008958091A0008F7707C032
:103AD0008091A0008F7D03C08091A000877F80939C
:103AE000A0000895809120018F7703C0809120016C
:103AF0008F7D80932001089580912001877F80939E
:103B000020010895FF920F931F93F62E482F50E047
:103B1000CA0182549E4FFC012491CA0188589E4FCD
:103B2000FC0114914E5C5E4FFA0104910023C9F030
:103B3000222319F0822F0E940E1DE02FF0E0EE0FDD
:103B4000FF1FE250FF4FA591B4919FB7F894FF205B
:103B500021F48C911095812302C08C91812B8C9340
:103B60009FBF1F910F91FF9008950F931F93482FB0
:103B700050E0CA0182549E4FFC012491CA0188582A
:103B80009E4FFC0104914E5C5E4FFA01149111238B
:103B900019F420E030E015C0222319F0822F0E9492
:103BA0000E1D812F90E0880F991F885E9E4FFC01AB
:103BB000A591B4918C9120E030E0802311F021E0B8
:103BC00030E0C9011F910F91089508951F920F923F
:103BD0000FB60F920BB60F9211242F933F934F9372
:103BE0008F939F93EF93FF934091C60020919F087E
:103BF0003091A0082F5F3F4F2F7330708091A10844
:103C00009091A2082817390759F0E0919F08F09188
:103C1000A008E15AF74F40833093A00820939F08F3
:103C2000FF91EF919F918F914F913F912F910F9025
:103C30000BBE0F900FBE0F901F90189508951F9206
:103C40000F920FB60F920BB60F9211242F933F9342
:103C50004F938F939F93EF93FF934091CE002091CA
:103C60002709309128092F5F3F4F2F7330708091C3
:103C7000290990912A092817390759F0E091270955
:103C8000F0912809E951F74F408330932809209398
:103C90002709FF91EF919F918F914F913F912F9124
:103CA0000F900BBE0F900FBE0F901F9018950895A8
:103CB0001F920F920FB60F920BB60F9211242F93F3
:103CC0003F934F938F939F93EF93FF934091D60031
:103CD0002091AF093091B0092F5F3F4F2F733070A3
:103CE0008091B1099091B2092817390759F0E091F4
:103CF000AF09F091B009E159F64F40833093B00914
:103D00002093AF09FF91EF919F918F914F913F9138
:103D10002F910F900BBE0F900FBE0F901F90189514
:103D200008951F920F920FB60F920BB60F921124A7
:103D30002F933F934F938F939F93EF93FF934091D4
:103D400036012091370A3091380A2F5F3F4F2F7389
:103D500030708091390A90913A0A2817390759F042
:103D6000E091370AF091380AE950F64F40833093DA
:103D7000380A2093370AFF91EF919F918F914F91CD
:103D80003F912F910F900BBE0F900FBE0F901F9081
:103D90001895E0918B0AF0918C0AE05CFF4F8191BD
:103DA000919120813181821B930B8F739070892BAD
:103DB00011F00E94E51DE091AA0AF091AB0AE05CC7
:103DC000FF4F8191919120813181821B930B8F73E1
:103DD0009070892B11F00E941E1EE091C90AF0918B
:103DE000CA0AE05CFF4F8191919120813181821B51
:103DF000930B8F739070892B11F00E94571EE091E6
:103E0000E80AF091E90AE05CFF4F819191912081ED
:103E10003181821B930B8F739070892B11F00E945C
:103E2000901E08951F920F920FB60F920BB60F922D
:103E300011242F933F938F939F93EF93FF932091A0
:103E4000E3083091E4088091E5089091E60828178E
:103E5000390731F48091C1008F7D8093C10014C077
:103E6000E091E508F091E608ED55F74F208180914B
:103E7000E5089091E60801968F7390709093E6089C
:103E80008093E5082093C600FF91EF919F918F9159
:103E90003F912F910F900BBE0F900FBE0F901F9070
:103EA00018951F920F920FB60F920BB60F92112416
:103EB0002F933F938F939F93EF93FF9320916B09E1
:103EC00030916C0980916D0990916E09281739071E
:103ED00031F48091C9008F7D8093C90014C0E091B6
:103EE0006D09F0916E09E55DF64F208180916D09B5
:103EF00090916E0901968F73907090936E098093E4
:103F00006D092093CE00FF91EF919F918F913F918A
:103F10002F910F900BBE0F900FBE0F901F90189512
:103F20001F920F920FB60F920BB60F9211242F9380
:103F30003F938F939F93EF93FF932091F3093091D9
:103F4000F4098091F5099091F6092817390731F4A1
:103F50008091D1008F7D8093D10014C0E091F5094C
:103F6000F091F609ED54F64F20818091F50990917A
:103F7000F60901968F7390709093F6098093F50976
:103F80002093D600FF91EF919F918F913F912F91B8
:103F90000F900BBE0F900FBE0F901F9018951F92A1
:103FA0000F920FB60F920BB60F9211242F933F93DF
:103FB0008F939F93EF93FF9320917B0A30917C0A1C
:103FC00080917D0A90917E0A2817390731F48091FB
:103FD00031018F7D8093310114C0E0917D0AF09111
:103FE0007E0AE55CF54F208180917D0A90917E0AE2
:103FF00001968F73907090937E0A80937D0A209330
:104000003601FF91EF919F918F913F912F910F90EA
:104010000BBE0F900FBE0F901F901895AF92BF92DE
:10402000DF92EF92FF920F931F93CF93DF93EC01F8
:104030007A018B01DD24403081EE580780E068076B
:1040400080E0780711F0DD24D39491E0A92EB12C03
:10405000EC89FD89DD2069F0C5010E8C02C0880F56
:10406000991F0A94E2F7808360E079E08DE390E0A5
:1040700005C0108260E874E88EE190E0A801970125
:104080000E94722D21503040404050405695479537
:104090003795279580E12030380720F0DD2011F09A
:1040A000DD24D6CFE889F9893083EA89FB8920832A
:1040B000EE89FF89408121E030E0C9010A8C02C00D
:1040C000880F991F0A94E2F7482B4083EE89FF89F5
:1040D0004081C9010B8C02C0880F991F0A94E2F736
:1040E000482B4083EE89FF894081C9010C8C02C0B6
:1040F000880F991F0A94E2F7482B4083EE89FF89C5
:1041000080810D8C02C0220F331F0A94E2F72095A4
:1041100028232083DF91CF911F910F91FF90EF9083
:10412000DF90BF90AF900895DC011C96ED91FC915B
:104130001D97E05CFF4F2191319180819181281B77
:10414000390B2F733070C9010895DC011C96ED9175
:10415000FC911D97E05CFF4F20813181E054F040DD
:10416000DF01AE5BBF4F8D919C91119728173907E6
:1041700019F42FEF3FEF07C08D919C91E80FF91FC5
:104180008081282F30E0C9010895DC011C96ED9153
:10419000FC911D97E05CFF4F20813181E054F0409D
:1041A000DF01AE5BBF4F8D919C91119728173907A6
:1041B00019F42FEF3FEF10C08D919C911197E80FEC
:1041C000F91F20818D919C91119701968F739070AA
:1041D00011969C938E9330E0C9010895FC01868569
:1041E0009785DC01A05CBF4FFC01EE5BFF4F2D917A
:1041F0003C9111978081918128173907C1F7089563
:10420000CF93DF93EC01EE85FF85E05CFF4F2081CB
:104210003181E054F0402F5F3F4F2F733070DF014A
:10422000AE5BBF4F8D919C91119728173907D1F341
:10423000E05CFF4F80819181E054F040E80FF91F6E
:104240006083EE85FF85E05CFF4F31832083EE893C
:10425000FF89208181E090E00D8C02C0880F991FBA
:104260000A94E2F7282B208381E090E0DF91CF9140
:1042700008951F931092820A1092810A28EE33E06B
:1042800040E050E02093830A3093840A4093850AEB
:104290005093860A6EEF73E07093800A60937F0AF2
:1042A0008FE598E090938C0A80938B0A83EA98E0DC
:1042B00090938E0A80938D0A85EC90E09093900AFB
:1042C00080938F0A84EC90E09093920A8093910AF5
:1042D00080EC90E09093940A8093930A81EC90E0B4
:1042E0009093960A8093950A86EC90E09093980AB2
:1042F0008093970A14E01093990AB3E0B0939A0A56
:10430000A7E0A0939B0AF5E0F0939C0AE1E0E0931C
:104310009D0A1092A10A1092A00A2093A20A30933B
:10432000A30A4093A40A5093A50A70939F0A60932E
:104330009E0A87EE98E09093AB0A8093AA0A8BE2DC
:1043400099E09093AD0A8093AC0A8DEC90E0909345
:10435000AF0A8093AE0A8CEC90E09093B10A809300
:10436000B00A88EC90E09093B30A8093B20A89EC8B
:1043700090E09093B50A8093B40A8EEC90E090930D
:10438000B70A8093B60A1093B80AB093B90AA093FB
:10439000BA0AF093BB0AE093BC0A1092C00A1092CA
:1043A000BF0A2093C10A3093C20A4093C30A5093B4
:1043B000C40A7093BE0A6093BD0A8FE699E0909399
:1043C000CA0A8093C90A83EB99E09093CC0A809340
:1043D000CB0A85ED90E09093CE0A8093CD0A84EDD0
:1043E00090E09093D00A8093CF0A80ED90E0909374
:1043F000D20A8093D10A81ED90E09093D40A809301
:10440000D30A86ED90E09093D60A8093D50A109354
:10441000D70AB093D80AA093D90AF093DA0AE093A6
:10442000DB0A1092DF0A1092DE0A2093E00A309332
:10443000E10A4093E20A5093E30A7093DD0A609325
:10444000DC0A87EF99E09093E90A8093E80A8BE30E
:104450009AE09093EB0A8093EA0A85E391E09093C7
:10446000ED0A8093EC0A84E391E09093EF0A809345
:10447000EE0A80E391E09093F10A8093F00A81E3E1
:1044800091E09093F30A8093F20A86E391E090938F
:10449000F50A8093F40A1093F60AB093F70AA093F2
:1044A000F80AF093F90AE093FA0A1F910895CF925F
:1044B000DF92EF92FF920F931F93CF93DF937C01D4
:1044C0006B018A01C0E0D0E00FC0D6016D916D0193
:1044D000D701ED91FC910190F081E02DC701199574
:1044E000C80FD91F015010400115110571F7CE01F9
:1044F000DF91CF911F910F91FF90EF90DF90CF90C0
:104500000895CF93DF93DB010D900020E9F7119719
:10451000A61BB70BEC01E881F9810280F381E02D45
:10452000AD011995DF91CF9108954F925F927F92DF
:104530008F929F92AF92BF92CF92DF92EF92FF92B3
:104540000F931F93DF93CF93CDB7DEB7A1970FB62D
:10455000F894DEBF0FBECDBF2C01742ECB012230EC
:1045600008F42AE019A231E2C32ED12CCC0EDD1EB4
:10457000822E9924AA24BB24672D752FA5019401AE
:104580000E94722D79018A01C801B701A501940129
:104590000E942C2D472D461B0894C108D1084A3093
:1045A00014F4405D01C0495CF6014083E114F1045C
:1045B0000105110521F07E2C5F2DC801DDCFC20160
:1045C000B6010E948122A1960FB6F894DEBF0FBEFD
:1045D000CDBFCF91DF911F910F91FF90EF90DF90B2
:1045E000CF90BF90AF909F908F907F905F904F90B3
:1045F0000895CF92DF92EF92FF920F931F93CF9384
:10460000DF93EC016A017B012115310541F4E8815A
:10461000F9810190F081E02D642F19951FC02A3097
:104620003105D1F477FF17C0E881F9810190F0815D
:10463000E02D6DE219958C0144275527BA014C19DC
:104640005D096E097F09CE012AE00E94952298013A
:10465000280F391F04C02AE00E9495229C01C9013D
:10466000DF91CF911F910F91FF90EF90DF90CF904E
:104670000895EF92FF920F931F937B019A010027F9
:10468000F7FC0095102FB801A7010E94F9221F9195
:104690000F91FF90EF9008950E94812208952F922C
:1046A0003F924F925F926F927F928F929F92AF92C2
:1046B000BF92CF92DF92EF92FF920F931F93DF93FF
:1046C000CF93CDB7DEB73B014C0119012A016E89AA
:1046D0007F89888D998D6A197B098C099D09621AD9
:1046E000730A840A950AA40193010E942C2DE218F2
:1046F000F30804091509A80197010E94942D2A0DB9
:104700003B1D4C1D5D1DB901CA01CF91DF911F9169
:104710000F91FF90EF90DF90CF90BF90AF909F9060
:104720008F907F906F905F904F903F902F90089563
:10473000CF93DF930E94391C0E943C04C9ECDEE158
:104740000E94E91A2097E1F30E94C91EF9CF08954B
:10475000FC01138212828EE094E091838083758342
:104760006483578346837187608753874287158A9E
:10477000158614861786168621E0248B8FEF9FEF0F
:10478000938B828B918B808B268B08952F923F92F7
:104790004F925F926F927F928F929F92AF92BF9251
:1047A000CF92DF92EF92FF920F931F93DF93CF93FD
:1047B00000D00F92CDB7DEB73C017C836B836A01DA
:1047C0005901FA82E982222433249801241B350BF3
:1047D00037FF03C0309521953F4FC5014B815C8168
:1047E000841B950B97FF03C0909581959F4F82176F
:1047F00093075CF481E0282E312CC601CB80DC804D
:104800009C838B83C80185015C018B819C81A816E8
:10481000B90644F4C501AB80BC809C838B83C8017E
:1048200086016C012501AB81BC814A1A5B0A7801C3
:10483000EC18FD08F7FE04C0F094E194F108F3943D
:10484000C016D10624F088248A94982C03C0B1E0C5
:104850008B2E912CC20162E070E00E945F2D8B01D3
:1048600025C0D301ED91FC912114310441F0048065
:10487000F581E02DC301B6014B815C8107C0048046
:10488000F581E02DC3016B817C81A60129813A81EC
:1048900019950E191F0917FF04C0C80CD91C040D67
:1048A000151DEB81FC813196FC83EB834B815C8190
:1048B000A416B506B4F60F900F900F900F90CF91FD
:1048C000DF911F910F91FF90EF90DF90CF90BF90FD
:1048D000AF909F908F907F906F905F904F903F90A0
:1048E0002F9008954F925F926F927F928F929F9236
:1048F000AF92BF92CF92DF92EF92FF920F931F93EE
:104900006C015B014A0139012801DC01ED91FC9148
:104910000284F385E02D87011995D601ED91FC9174
:10492000A40141505040440D551D0284F385E02DF3
:10493000C601B50193011995D601ED91FC91008452
:10494000F185E02DC601B501A40192011995D601AA
:10495000ED91FC910894A108B108A60CB71C008445
:10496000F185E02DC601B501A401920119951F91B1
:104970000F91FF90EF90DF90CF90BF90AF909F90FE
:104980008F907F906F905F904F900895CF92DF92BD
:10499000EF92FF920F931F93DC016B017801ED9171
:1049A000FC918A0101501040020F131F0680F7810D
:1049B000E02D960119951F910F91FF90EF90DF90D8
:1049C000CF900895CF92DF92EF92FF920F931F93B3
:1049D000DC016A01C9017801ED91FC9111979B01FD
:1049E00021503040280F391F0680F781E02DCD017E
:1049F000860119951F910F91FF90EF90DF90CF9056
:104A000008956F927F928F929F92AF92BF92CF92B2
:104A1000DF92EF92FF920F931F93CF93DF935C018E
:104A20003A0169014801EB01C60ED71E0DC0D50140
:104A3000ED91FC910084F185E02DC501BE01A3013B
:104A40009401870119952196CC15DD0584F3DF913A
:104A5000CF911F910F91FF90EF90DF90CF90BF907B
:104A6000AF909F908F907F906F900895EF92FF92FC
:104A70000F931F93FC017B01A081B18120853185BB
:104A8000028513851E960D90BC91A02D60E070E00C
:104A900040E050E0FD0119951F910F91FF90EF90BC
:104AA00008952F923F924F925F926F927F928F92D2
:104AB0009F92AF92BF92CF92DF92EF92FF920F93AD
:104AC0001F93DF93CF93CDB7DEB72F970FB6F89430
:104AD000DEBF0FBECDBF5C015E834D8318870F83A1
:104AE000FA86E986CB86DC0118968D919C91199700
:104AF000681779070CF0A4C01A968D919C911B97AA
:104B0000481759070CF09CC0EC2DF0E0FF87EE87AA
:104B1000CF01880F991F8E0F9F1F880F991F860F37
:104B2000971F181619060CF08BC0CF0103E0880FF1
:104B3000991F0A95E1F7840F951F181619060CF0B6
:104B40007FC085E0289FA00111245A8349832B014F
:104B50001B011C825C81553011F480E005C0E981A5
:104B6000FA81EC5FFD4F84912C863D866D807E80BE
:104B700043011B82C82EDD2480FF1CC0D501ED91AE
:104B8000FC91BB85B13049F40480F581E02DC5016D
:104B9000B201A3012F81388522C00684F785E02D5C
:104BA000C5016C857D85A4012E853F858901EF8037
:104BB000F88423C0E985FA852F813885E217F30749
:104BC000E9F0D501ED91FC91BB85B13051F4048041
:104BD000F581E02DC501B201A30129853A8519951A
:104BE0000DC00684F785E02DC5016C857D85A40187
:104BF0002E853F858901E984FA841995EB81EF5F61
:104C0000EB832E853F85820E931E0894611C711CD8
:104C1000E83021F0D594C7948C2DACCF3C813F5F18
:104C20003C834E855F85240E351E0894411C511C23
:104C300089819A8101969A838983363009F08ACFD7
:104C40002F960FB6F894DEBF0FBECDBFCF91DF9188
:104C50001F910F91FF90EF90DF90CF90BF90AF909A
:104C60009F908F907F906F905F904F903F902F908C
:104C70000895CF92EF92FF920F931F93CF93DF93FC
:104C8000EC01262F6A3061F42C8930E013E0220F0A
:104C9000331F1A95E1F78E859F85820F931F37C0CA
:104CA0006D30C9F16C857D854E855F8508891989D0
:104CB000EA88FB88CC880E9451252C8986E0289FB1
:104CC000B00111248C859D85680F791F7D876C87C5
:104CD0008E89882301F1422F50E08AEF9FEF9C01DB
:104CE000429FC001439F900D529F900D1124288533
:104CF0003985820F931F861797076CF4B3E0440F32
:104D0000551FBA95E1F78E859F85840F951F9F8764
:104D10008E871D861C8681E090E0DF91CF911F91E8
:104D20000F91FF90EF90CF900895FC0175876487F5
:104D3000578746870895FC01738B628B718B608B5C
:104D40000895FC01668B08950895DC0158968C91B6
:104D50005897882329F06EBD0DB407FEFDCF089546
:104D600030E840E050E070E0832F90E08623972306
:104D70005996ED91FC915A9796962C919697892B7E
:104D800021F08081822B808304C08081209528239C
:104D900020835B96ED91FC915C97808197969C9126
:104DA0009797892B80835B96ED91FC915C9790811E
:104DB00097968C91979780958923808336954F5F3E
:104DC0005F4F4830510581F608950F931F938C0172
:104DD000DC015F96ED91FC919097908199968C9172
:104DE00099978095892380835D96ED91FC915E97DC
:104DF000908198968C91809589238083C8010E9428
:104E0000A526D8015D96ED91FC915E9780819896DC
:104E10009C91892B80831F910F9108950F931F936D
:104E20008C01DC015F96ED91FC91909780819996C1
:104E30009C919997892B80835D96ED91FC915E976B
:104E4000908198968C91809589238083C8010E94D7
:104E5000A526D8015D96ED91FC915E97808198968C
:104E60009C91892B80831F910F910895CF92DF929F
:104E7000EF92FF920F931F937C01162FC42ED22E18
:104E80006AE20E94E526C70160E00E940E27F70152
:104E900062A5610FC7010E940E27C70160E00E9452
:104EA0000E27F70162A56D0DC7010E940E27C701ED
:104EB0006BE20E94E526C70160E00E940E27F70121
:104EC00063A56C0DC7010E940E27C70160E00E9418
:104ED0000E27F70163A5600FC7010E940E27C701C7
:104EE0006CE20E94E5261F910F91FF90EF90DF90FA
:104EF000CF900895FF920F931F93CF93DF93EC0110
:104F0000F22E132F77FD2EC08885998568177907B3
:104F10004CF557FD27C08A859B854817590714F51E
:104F2000262F2F5F042F0F5FCE010E943627EF8DB3
:104F3000F8A1808199A5892B8083ED8DFE8D9081CC
:104F400088A5809589238083CE01612F0E94A526A4
:104F5000CE016F2D0E94A526ED8DFE8D808198A536
:104F6000892B8083DF91CF911F910F91FF9008953E
:104F7000DF92EF92FF920F931F93CF93DF93EC0199
:104F8000FB017901D02E8885998568177907D4F5BA
:104F90002A853B8542175307ACF5C701840F951F3F
:104FA000281739071CF47901E41AF50A042F015077
:104FB0000E0DCE016E2F2E2F0E943627EF8DF8A1F9
:104FC000808199A5892B8083ED8DFE8D908188A5A8
:104FD00080958923808308C0CE01612F0E94A52679
:104FE000CE016D2D0E94A5260894E108F1088FEFEF
:104FF000E8168FEFF80681F7ED8DFE8D808198A57C
:10500000892B8083DF91CF911F910F91FF90EF90BB
:10501000DF900895DF92EF92FF920F931F93CF934B
:10502000DF93EC01FA017901D02E288539856217CA
:105030007307D4F58A859B8548175907ACF5C701D6
:10504000860F971F281739071CF47901E61AF70A0B
:10505000262F21502E0DCE014E2F0E2F0E943627C7
:10506000EF8DF8A1808199A5892B8083ED8DFE8D30
:10507000908188A580958923808308C0CE01612F07
:105080000E94A526CE016D2D0E94A5260894E10858
:10509000F1088FEFE8168FEFF80681F7ED8DFE8DA2
:1050A000808198A5892B8083DF91CF911F910F91EB
:1050B000FF90EF90DF900895EF92FF920F931F9370
:1050C000FC017B01A081B18120853185028513859A
:1050D0001E960D90BC91A02D60E070E040E050E085
:1050E000FD0119951F910F91FF90EF900895AF92D8
:1050F000BF92CF92DF92EF92FF920F931F93CF93C5
:10510000DF936C015901E801DC0118962D913C9167
:105110001997621773070CF057C01A96ED91FC911E
:105120001B974E175F070CF04FC0C501860F971FE6
:10513000281739071CF45901A61AB70ACE01840FA3
:10514000951FE817F9071CF4EF01C41BD50B262F98
:1051500021502A0D042F01500C0FC6010E94362742
:10516000D6015F96ED91FC919097808199969C91E4
:105170009997892B80835D96ED91FC915E97908144
:1051800098968C918095892380838E010EC0C601EC
:105190006F2D0E94A526C6016E2D0E94A52621977F
:1051A0001C161D06A4F3015010401016110614F42D
:1051B000E501F6CFD6015D96ED91FC915E97808179
:1051C00098969C91892B8083DF91CF911F910F91AD
:1051D000FF90EF90DF90CF90BF90AF90089550E098
:1051E0004C7F507033E0440F551F3A95E1F730E0A3
:1051F00093E0359527959A95E1F7422B532B70E074
:10520000687F7070762F6627462B572BCA0108954A
:10521000662311F460E201C061E20E94E526089570
:10522000AF92BF92CF92DF92EF92FF920F931F93B4
:10523000CF93DF935C01FB01EB012196D49031C049
:105240008E010F5F1F4FFE016491C5010E94E5268C
:1052500078010894E11CF11CF801C4900C2D0F7723
:10526000E701102F08C0FE012196E491C5016E2FC1
:105270000E940E2711501123B1F7E701C00FD11D75
:10528000C7FE0EC0FE018491682F70E06F3F71056C
:1052900011F464EF71E0219680E090E00E94E01B41
:1052A000DA94DD2069F6DF91CF911F910F91FF9085
:1052B000EF90DF90CF90BF90AF9008950F931F9322
:1052C000CF93DF93EC018B011BA61AA68AA161E0A4
:1052D0000E94CF1C89A161E00E94CF1CE9A14E2F42
:1052E00050E0FA01EE5CFE4FE491F0E0EE0FFF1F9C
:1052F000E250FF4F859194919E8F8D8FEAA12E2FC2
:1053000030E0F901EE5CFE4FE491F0E0EE0FFF1F9C
:10531000E250FF4F8591949198A38F8F48585E4F2C
:10532000FA01849188A728583E4FF901849189A7F2
:10533000888D882361F00E94982A80E00E94872A45
:1053400081E00E94792A80E00E94822A3DC08DA1DE
:1053500061E00E94CF1C8CA161E00E94CF1CEDA1F6
:105360004E2F50E0FA01EE5CFE4FE491F0E0EE0FBC
:10537000FF1FE250FF4FA591B491BC8FAB8FECA102
:105380002E2F30E0F901EE5CFE4FE491F0E0EE0FDD
:10539000FF1FE250FF4F859194919A8F898F485853
:1053A0005E4FFA0194919FA328583E4FF9018491D2
:1053B0008EA38C91909598239C93E98DFA8D908182
:1053C0008EA1809589238083ED8DFE8D908188A5A7
:1053D0008095892380838BA1882309F161E00E9455
:1053E000CF1C8BA161E00E94821D64EF71E080E020
:1053F00090E00E94E01B8BA160E00E94821D64EFA0
:1054000071E080E090E00E94E01B8BA161E00E94CF
:10541000821D64EF71E080E090E00E94E01B0115C6
:10542000110521F0CE01B8010E941029DF91CF9122
:105430001F910F9108951F93CF93DF93EC01162FC7
:105440006FEF76E00E945E29112349F4CE016AE3F2
:1054500077E00E94102982E08AA781E00EC0113017
:1054600071F480E890E09B878A87CE0167E477E05B
:105470000E94102982E08AA783E08BA705C0CE0195
:1054800064E577E00E941029CE0161E677E00E9492
:105490001029123041F4CE0166E30E94E526CE01C8
:1054A00060EC0E940E271F8BDF91CF911F91089512
:1054B000DF92EF92FF920F931F938C01F62EE42E52
:1054C000D22E60E870E040EA50E00E94A82386E215
:1054D00094E0F80191838083F1A2E2A2D3A281E05B
:1054E000808F15A214A21F910F91FF90EF90DF9073
:1054F0000895882319F48CB5806202C08CB58F7D25
:105500008CBD08959CB5937F982B9CBD08952CB5B8
:10551000382F33702C7F322B3CBD2DB590E0959504
:1055200087959595879581702E7F822B8DBD0895E7
:1055300084E361E00E94CF1C83E361E00E94CF1C02
:1055400085E361E00E94CF1C84E360E00E94821D3D
:1055500083E360E00E94821D85E361E00E94821D7A
:105560008CB580618CBD8CB580648CBD0895F89439
:105570000C94B52D5058BB27AA270ED075C166D103
:1055800030F06BD120F031F49F3F11F41EF45BC179
:105590000EF4E095E7FB51C1E92F77D180F3BA17FC
:1055A000620773078407950718F071F49EF58FC1A1
:1055B0000EF4E0950B2EBA2FA02D0B01B90190012E
:1055C0000C01CA01A0011124FF27591B99F0593F72
:1055D00050F4503E68F11A16F040A22F232F342FBA
:1055E0004427585FF3CF469537952795A795F04008
:1055F0005395C9F77EF41F16BA0B620B730B840B1D
:10560000BAF09150A1F0FF0FBB1F661F771F881FD4
:10561000C2F70EC0BA0F621F731F841F48F487952C
:1056200077956795B795F7959E3F08F0B3CF93951B
:10563000880F08F09927EE0F979587950895D9D090
:1056400008F481E008950CD00FC107D140F0FED0DE
:1056500030F021F45F3F19F0F0C0511139C1F3C0AF
:1056600014D198F39923C9F35523B1F3951B550B26
:10567000BB27AA2762177307840738F09F5F5F4F25
:10568000220F331F441FAA1FA9F333D00E2E3AF066
:10569000E0E830D091505040E695001CCAF729D080
:1056A000FE2F27D0660F771F881FBB1F26173707CF
:1056B0004807AB07B0E809F0BB0B802DBF01FF27FF
:1056C00093585F4F2AF09E3F510568F0B6C000C165
:1056D0005F3FECF3983EDCF3869577956795B79539
:1056E000F7959F5FC9F7880F911D9695879597F954
:1056F0000895E1E0660F771F881FBB1F62177307CD
:105700008407BA0720F0621B730B840BBA0BEE1FE1
:1057100088F7E095089504D06894B111D9C0089530
:10572000BCD088F09F5790F0B92F9927B751A0F0BF
:10573000D1F0660F771F881F991F1AF0BA95C9F725
:1057400012C0B13081F0C3D0B1E00895C0C0672F5E
:10575000782F8827B85F39F0B93FCCF386957795D5
:105760006795B395D9F73EF49095809570956195BE
:105770007F4F8F4F9F4F0895E89409C097FB3EF4E9
:1057800090958095709561957F4F8F4F9F4F99238E
:10579000A9F0F92F96E9BB279395F695879577950C
:1057A0006795B795F111F8CFFAF4BB0F11F460FFCC
:1057B0001BC06F5F7F4F8F4F9F4F16C0882311F024
:1057C00096E911C0772321F09EE8872F762F05C038
:1057D000662371F096E8862F70E060E02AF09A95D3
:1057E000660F771F881FDAF7880F9695879597F9C8
:1057F0000895990F0008550FAA0BE0E8FEEF161662
:105800001706E807F907C0F012161306E407F507B4
:1058100098F0621B730B840B950B39F40A2661F028
:10582000232B242B252B21F408950A2609F4A140CB
:10583000A6958FEF811D811D089597F99F6780E8D8
:1058400070E060E008959FEF80EC089500240A94D2
:105850001616170618060906089500240A9412164B
:105860001306140605060895092E0394000C11F47E
:10587000882352F0BB0F40F4BF2B11F460FF04C02B
:105880006F5F7F4F8F4F9F4F089557FD9058440F84
:10589000551F59F05F3F71F04795880F97FB991F8F
:1058A00061F09F3F79F0879508951216130614064C
:1058B000551FF2CF4695F1DF08C0161617061806D9
:1058C000991FF1CF86957105610508940895E894B4
:1058D000BB2766277727CB0197F908958ADF08F45D
:1058E0008FEF08950BD0C0CFB1DF28F0B6DF18F0EE
:1058F000952309F0A2CFA7CF1124EACFC6DFA0F3EA
:10590000959FD1F3950F50E0551F629FF001729F54
:10591000BB27F00DB11D639FAA27F00DB11DAA1F73
:10592000649F6627B00DA11D661F829F2227B00DC0
:10593000A11D621F739FB00DA11D621F839FA00D4B
:10594000611D221F749F3327A00D611D231F849F9B
:10595000600D211D822F762F6A2F11249F575040F2
:105960008AF0E1F088234AF0EE0FFF1FBB1F661F8D
:10597000771F881F91505040A9F79E3F510570F046
:105980005CCFA6CF5F3FECF3983EDCF3869577952E
:105990006795B795F795E7959F5FC1F7FE2B880F41
:1059A000911D9695879597F9089511F40EF44BCFB4
:1059B0003EC073DFD0F39923D9F3CEF39F57550B35
:1059C00087FF43D00024A0E640EA90018058569516
:1059D000979528F4805C660F771F881F20F02617A4
:1059E0003707480730F4621B730B840B20293129D9
:1059F0004A2BA69517940794202531254A2758F756
:105A0000660F771F881F20F026173707480730F4E6
:105A1000620B730B840B200D311D411DA09581F786
:105A2000B901842F9158880F9695879508959F3FC7
:105A300031F0915020F4879577956795B795880F49
:105A4000911D9695879597F9089591505040660F4E
:105A5000771F881FD2F70895629FD001739FF001CE
:105A6000829FE00DF11D649FE00DF11D929FF00DEE
:105A7000839FF00D749FF00D659FF00D9927729F25
:105A8000B00DE11DF91F639FB00DE11DF91FBD01B0
:105A9000CF0111240895AA1BBB1B51E107C0AA1F07
:105AA000BB1FA617B70710F0A61BB70B881F991FBF
:105AB0005A95A9F780959095BC01CD01089597FB63
:105AC000092E07260AD077FD04D0E5DF06D0002096
:105AD0001AF4709561957F4F0895F6F7909581952A
