:100000000C94F5030C9422040C9422040C94220406
:100010000C9422040C9422040C9422040C942204C8
:100020000C9422040C9422040C9422040C942204B8
:100030000C9422040C9422040C9422040C942204A8
:100040000C9422040C9422040C9422040C94220498
:100050000C9422040C9422040C9422040C94C814D2
:100060000C9422040C9424170C946C180C94220405
:100070000C9422040C9422040C9422040C94220468
:100080000C9422040C9422040C9422040C94220458
:100090000C9464170C94AB180C9422040C94220456
:1000A0000C9422040C9422040C9422040C94220438
:1000B0000C9422040C9422040C9422040C94220428
:1000C0000C9422040C9422040C9422040C94A41783
:1000D0000C94EA180C9422040C94E4170C9429193B
:1000E0000C94220400002100240027002A002D0087
:1000F0003000330001010000040107010A01000083
:100100002200250028002B002E00310034000201BF
:100110000000050108010B0100002000230026005B
:1001200029002C002F00320000010000030106010D
:10013000090105050505070508080808020202026D
:100140000A0A080804040404010101010101010173
:100150000303030303030303040707070C0C0C0C3E
:100160000C0C0C0C02020202060606060606060627
:100170000B0B0B0B0B0B0B0B0102102020080810B4
:100180002040102040800201020108040201010207
:1001900004081020408080402010080402018004E0
:1001A000020180402010080402010804020101023B
:1001B0000408102040800102040810204080000044
:1001C000090A02080B0C0D070603040100000000D9
:1001D000000000000000000000000000000000001F
:1001E0000000000000000000000011100F000000DF
:1001F00000000000000000000000000000000000FF
:100200000000000000000000003E5B4F5B3E3E6BC4
:100210004F6B3E1C3E7C3E1C183C7E3C181C577DA0
:10022000571C1C5E7F5E1C00183C1800FFE7C3E7EC
:10023000FF0018241800FFE7DBE7FF30483A060EFE
:100240002629792926407F050507407F05253F5A45
:100250003CE73C5A7F3E1C1C08081C1C3E7F1422B5
:100260007F22145F5F005F5F06097F017F00668960
:10027000956A606060606094A2FFA29408047E04A6
:100280000810207E201008082A1C08081C2A0808CC
:100290001E101010100C1E0C1E0C30383E3830068C
:1002A0000E3E0E06000000000000005F0000000788
:1002B000000700147F147F14242A7F2A12231308B6
:1002C000646236495620500008070300001C224192
:1002D000000041221C002A1C7F1C2A08083E080836
:1002E00000807030000808080808000060600020E6
:1002F000100804023E5149453E00427F40007249C9
:100300004949462141494D331814127F102745456C
:1003100045393C4A49493141211109073649494982
:1003200036464949291E00001400000040340000F0
:100330000008142241141414141400412214080259
:10034000015909063E415D594E7C1211127C7F49CC
:100350004949363E414141227F4141413E7F494921
:1003600049417F090909013E414151737F0808084D
:100370007F00417F41002040413F017F081422411E
:100380007F404040407F021C027F7F0408107F3E78
:100390004141413E7F090909063E4151215E7F09E5
:1003A000192946264949493203017F01033F40404C
:1003B000403F1F2040201F3F4038403F6314081437
:1003C0006303047804036159494D43007F4141416F
:1003D0000204081020004141417F04020102044050
:1003E00040404040000307080020545478407F28D4
:1003F0004444383844444428384444287F385454CA
:10040000541800087E090218A4A49C787F080404EC
:100410007800447D40002040403D007F102844008B
:1004200000417F40007C047804787C08040478381C
:1004300044444438FC1824241818242418FC7C084C
:10044000040408485454542404043F44243C4040C9
:10045000207C1C2040201C3C4030403C442810287C
:10046000444C9090907C4464544C440008364100C5
:100470000000770000004136080002010204023C3F
:100480002623263C1EA1A161123A4040207A38540E
:100490005455592155557941215454784121555489
:1004A000784020545579400C1E52721239555555DA
:1004B00059395454545939555454580000457C41C5
:1004C0000002457D420001457C40F0292429F0F0DE
:1004D000282528F07C545545002054547C547C0A2F
:1004E000097F4932494949323248484832324A48FC
:1004F00048303A4141217A3A42402078009DA0A0FC
:100500007D39444444393D4040403D3C24FF24244F
:10051000487E4943662B2FFC2F2BFF0929F620C06C
:10052000887E090320545479410000447D413048BD
:10053000484A32384040227A007A0A0A727D0D1900
:10054000317D2629292F28262929292630484D4062
:1005500020380808080808080808382F10C8ACBA5E
:100560002F102834FA00007B000008142A142222DD
:10057000142A1408AA005500AAAA55AA55AA0000D0
:1005800000FF00101010FF00141414FF001010FFE3
:1005900000FF1010F010F0141414FC001414F700F5
:1005A000FF0000FF00FF1414F404FC141417101FC4
:1005B00010101F101F1414141F00101010F0000052
:1005C00000001F101010101F10101010F01000006D
:1005D00000FF101010101010101010FF100000007D
:1005E000FF140000FF00FF00001F10170000FC04B4
:1005F000F414141710171414F404F40000FF00F797
:1006000014141414141414F700F7141414171410F9
:10061000101F101F141414F4141010F010F0000028
:100620001F101F0000001F14000000FC140000F049
:1006300010F01010FF10FF141414FF141010101FEE
:1006400000000000F010FFFFFFFFFFF0F0F0F0F0FF
:10065000FFFFFF0000000000FFFF0F0F0F0F0F381C
:10066000444438447C2A2A3E147E02020606027E56
:10067000027E0263554941633844443C04407E2075
:100680001E2006027E020299A5E7A5991C2A492A86
:100690001C4C7201724C304A4D4D30304878483015
:1006A000BC625A463D3E494949007E0101017E2A0D
:1006B0002A2A2A2A44445F444440514A4440404440
:1006C0004A51400000FF0103E080FF000008086B72
:1006D0006B083612362436060F090F06000018186C
:1006E0000000001010003040FF0101001F01011E3A
:1006F00000191D1712003C3C3C3C00000000000F9C
:100700000180961180FFB103012C2DB203012C2D25
:10071000B306012C2D012C2DB40107C003A20284C5
:10072000C101C5C2020A00C3028A2AC4028AEEC5F8
:10073000010E20003601C83A0105022A0400020019
:10074000812B04000100A0022A040000007F2B047A
:100750000000009F04E010021C07123732292D29E7
:10076000252B3900010310E110031D07062E2C294B
:100770002D2E2E373F0000021013800A29806412AC
:100780000180321180FF3A81050AB1830006030A15
:10079000360108B6021502B40100C08202700AC117
:1007A0000105C2020102C5823C380AFC021115E0B3
:1007B0001009160920211B131917151E2B040502F9
:1007C0000EE1900B14081E221D181E1B1A242B0666
:1007D00006020F0A2A04000200812B040002008195
:1007E00013800A2980FF2704991A11241FBECFEF16
:1007F000D1E2DEBFCDBF00E00CBF12E0A0E0B2E06E
:10080000E4E0FEE400E00BBF02C007900D92AA3CBA
:10081000B107D9F71BBE19E0AAECB2E001C01D92E6
:10082000A537B107E1F717E0CAEED7E004C0229779
:10083000FE010E94FC26C63ED107C9F70E94021D98
:100840000C9424040C940000F8940C94002784E980
:1008500096E066E047E028E00E94B3230E9410156E
:100860006093C0067093C1068093C2069093C3063E
:1008700008958DEE98E040E855E260E070E00E9457
:10088000681984E996E062E00E94852382E061E0D5
:100890000E94C01681E00E94D9159093ED028093CA
:1008A000EC0280E00E94D9159093EF028093EE0253
:1008B00083E00E94D9159093F1028093F00282E0C8
:1008C0000E94D9159093F3028093F20285E00E9472
:1008D000D9159093D1048093D00484E00E94D91557
:1008E0009093D3048093D20487E00E94D91590930B
:1008F000D5048093D40486E00E94D9159093D70440
:100900008093D6041092F5021092F4021092D9044A
:100910001092D8040895EF92FF920F931F937C01D9
:1009200081E00E94D9152091EC023091ED02821BEA
:10093000930B9093DF028093DE0280E00E94D91532
:100940002091EE023091EF028C01021B130B1093E9
:10095000DD020093DC028091DE029091DF02E89ECE
:10096000B001E99E700DF89E700D1124882777FD67
:100970008095982F0E94162520E030E04AE754E445
:100980000E947B2420E030E040E05EE30E94CA2524
:100990006093E4027093E5028093E6029093E7028D
:1009A0000E9DB0010F9D700D1E9D700D11248827A6
:1009B00077FD8095982F0E94162520E030E04AE7C9
:1009C00054E40E947B2420E030E040E05EE30E949B
:1009D000CA256093E0027093E1028093E202909353
:1009E000E30283E00E94D9152091F0023091F102D8
:1009F000821B930B9093EB028093EA0282E00E94A9
:100A0000D9152091F2023091F302821B930B90933F
:100A1000E9028093E8020091D0041091D10485E0AE
:100A20000E94D915081B190B1093C3040093C2042C
:100A30000091D2041091D30484E00E94D915081BC0
:100A4000190B1093C1040093C0048091C2049091CB
:100A5000C3049C01E29EC001E39E900DF29E900DA6
:100A6000112468EE73E00E94C526882777FD8095E3
:100A7000982F0E94162520E030E040E05EE30E94BF
:100A8000CA256093C8047093C9048093CA049093E4
:100A9000CB040E9DC0010F9D900D1E9D900D112445
:100AA00068EE73E00E94C526882777FD8095982F11
:100AB0000E94162520E030E040E05EE30E94CA2557
:100AC0006093C4047093C5048093C6049093C704D4
:100AD0000091D4041091D50487E00E94D915081B19
:100AE000190B1093CF040093CE040091D6041091FB
:100AF000D70486E00E94D915081B190B1093CD046A
:100B00000093CC041F910F91FF90EF900895AF9246
:100B1000BF92CF92DF92EF92FF920F931F93CF93EA
:100B2000DF938C0182E090E090939306809392068D
:100B300084E996E060E00E940B2084E996E066E29A
:100B400070E048E250E00E94FF1F84E996E060E018
:100B500070E00E94052084E996E060E072E00E9467
:100B6000EC1C84E996E067E170E04CE350E00E9401
:100B7000FF1F84E996E06BE072E00E94EC1C0F5FBF
:100B80001F4F84E996E0B8014AE050E00E94D91C6A
:100B900084E996E063E172E00E94EC1C84E996E04F
:100BA00066E170E04EE450E024E530E000E110E062
:100BB000EE24FF240E94E12184E996E066E170E0E2
:100BC00046E650E024E530E0EE24EA94FE2C0E9454
:100BD000E12184E996E068E270E042E550E00E949D
:100BE000FF1F84E996E06FEF7FEF0E94052084E904
:100BF00096E06AE172E00E94EC1C84E996E06CE108
:100C000070E04AE650E00E94FF1F84E996E060E051
:100C100070E00E94052084E996E063E272E00E94A1
:100C2000EC1C84E996E060E070E040E950E020E8E8
:100C300030E0EE24FF240E94E12184E996E065E0A3
:100C400070E044E950E00E94FF1F84E996E06FEFF6
:100C50007FEF0E94052084E996E060E372E00E9445
:100C6000EC1C84E996E060E078EF0E94052084E9BE
:100C700096E067E372E00E94EC1C6091F4027091D0
:100C8000F50284E996E04AE050E00E94D91C84E92C
:100C900096E06FE170E00E94052084E996E06BE346
:100CA00072E00E94EC1C6091D8047091D90484E930
:100CB00096E04AE050E00E94D91C0E9410155B01AA
:100CC0006C01C2E0D0E00E941015DC01CB018A1952
:100CD0009B09AC09BD090E948B042091DE02309172
:100CE000DF02233031050CF44FC0809192069091C1
:100CF0009306892B09F448C084E996E066E170E028
:100D00004EE450E024E530E000E110E0EE24EA9407
:100D1000FE2C0E94E12184E996E066E170E046E65F
:100D200050E024E530E0EE24FF240E94E12184E934
:100D300096E068E270E042E550E00E94FF1F84E91F
:100D400096E060E070E00E94052084E996E06AE1A8
:100D500072E00E94EC1C84E996E06CE170E04AE6E7
:100D600050E00E94FF1F84E996E06FEF7FEF0E9442
:100D7000052084E996E063E272E00E94EC1C109288
:100D800093061092920652C02E5F3F4F0CF04EC059
:100D90008091920690919306029709F447C084E9E6
:100DA00096E066E170E046E650E024E530E000E1E0
:100DB00010E0EE24EA94FE2C0E94E12184E996E002
:100DC00066E170E04EE450E024E530E0EE24FF24DC
:100DD0000E94E12184E996E068E270E042E550E09B
:100DE0000E94FF1F84E996E06FEF7FEF0E940520CD
:100DF00084E996E06AE172E00E94EC1C84E996E0E6
:100E00006CE170E04AE650E00E94FF1F84E996E042
:100E100060E070E00E94052084E996E063E272E001
:100E20000E94EC1CD0939306C093920682E00E942D
:100E3000F316892B09F047CFDF91CF911F910F91C6
:100E4000FF90EF90DF90CF90BF90AF9008952F92DA
:100E50003F924F925F926F927F928F929F92AF924A
:100E6000BF92CF92DF92EF92FF920F931F93DF9387
:100E7000CF93CDB7DEB72A970FB6F894DEBF0FBE7B
:100E8000CDBF7A876987DB01AD90BD90CD90DC90B6
:100E9000139714968D919D910D90BC91A02D8983EF
:100EA0009A83AB83BC83FB010488F589E02DF88726
:100EB000EF8333971CF41C012D013BC0A985BA8533
:100EC0005A96ED90FD900D911C915D9760E070E059
:100ED00080E293E4A80197010E94122420E030E010
:100EE00040E051E40E94122420E030E040E251E46E
:100EF0000E9412249B01AC0169817A818B819C81C3
:100F00000E94C62518165CF40F2EF0E02F2EF0E09C
:100F10003F2EFEE04F2EF3E45F2EF02D0AC06981D4
:100F20007A818B819C81A80197010E9413241B0167
:100F30002C01EF81F885EE5FFF4F0CF03EC0A985D4
:100F4000BA855A96ED90FD900D911C915D97C80160
:100F5000B70120E030E040E050E00E94C6251816BE
:100F60004CF4C801B70120E030E040E251E40E94B7
:100F7000132408C060E070E080E291E4A8019701CA
:100F80000E9412249B01AC01C201B1010E9477248E
:100F900088235CF40F2EF0E02F2EF0E03F2EF0E2DD
:100FA0004F2EF1E45F2EF02D08C0C201B101A8015F
:100FB00097010E9413241B012C01E985FA85028800
:100FC000F389E02DFE83ED8333971CF43501460150
:100FD00031C0A985BA855696ED90FD900D911C9172
:100FE000599760E070E080E093E4A80197010E94C7
:100FF000122420E030E040E051E40E9412249B01E2
:10100000AC01C601B5010E94C62518165CF40F2E6E
:10101000F0E06F2EF0E07F2EF0EF8F2EF2E49F2EA7
:10102000F02D08C0C601B501A80197010E94132444
:101030003B014C01ED81FE81EE5FFF4F8CF5A985F0
:10104000BA855696ED90FD900D911C915997C80167
:10105000B70120E030E040E050E00E94C6251816BD
:101060001CF4A801970103C0A80197015058C401BE
:10107000B3010E94772488235CF40F2EF0E06F2EDA
:10108000F0E07F2EF0E08F2EF0E09F2EF02D08C0D4
:10109000C401B301A80197010E9413243B014C0134
:1010A0008F81988597FF03C0909581959F4F0397F7
:1010B0004CF48D819E8197FF03C0909581959F4F41
:1010C0000397C4F184E996E060E04FEF2FEF0E94B0
:1010D00059227C01C601B5010E94E3245B016C0129
:1010E00069817A818B819C810E94E3249B01AC0100
:1010F00084E996E0B501A90128E030E008E010E0BD
:101100000E94E121C401B3010E94E3245B016C0150
:10111000C201B1010E94E3249B01AC01E985FA857B
:10112000E084F18484E996E0B501A90128E030E08B
:101130000E94E121A985BA856D927D928D929C9243
:101140001397FD0124823582468257822A960FB674
:10115000F894DEBF0FBECDBFCF91DF911F910F91ED
:10116000FF90EF90DF90CF90BF90AF909F908F90C7
:101170007F906F905F904F903F902F9008952F92A7
:101180003F924F925F926F927F928F929F92AF9217
:10119000BF92CF92DF92EF92FF920F931F93CF9364
:1011A000DF935C01EB016C817D818E819F810E94C8
:1011B000E3241B012C01688179818A819B810E9433
:1011C000E3243B014C010889198984E996E060E039
:1011D0004FEF2FEF0E9459227C0184E996E0B10184
:1011E000A30198010E94E121CC24B7FCC094DC2C1F
:1011F000C601B5010E9416257B018C012C853D8519
:101200004E855F850E94CA259B01AC016C817D8162
:101210008E819F810E9413245B016C016C837D830E
:101220008E839F83C801B701288539854A855B85F0
:101230000E94CA25288139814A815B810E9413243A
:101240007B018C01688379838A839B83C601B50106
:1012500020E030E040E050E00E94772487FD30C07D
:101260008888998860E870E068197909882777FD8F
:101270008095982F0E9416259B01AC01C601B501EF
:101280000E94C6251816E4F0C801B70120E030E03E
:1012900040E251E40E94772487FD12C066E970E0C5
:1012A00068197909882777FD8095982F0E9416255F
:1012B0009B01AC01C801B7010E94C6251816CCF4E9
:1012C00080E090E0A0E0B0E088879987AA87BB879C
:1012D0008C879D87AE87BF8780E090E0A8ECB2EC5A
:1012E0008C839D83AE83BF8388839983AA83BB83CA
:1012F00016C0C601B5010E94E3245B016C01C80160
:10130000B7010E94E3249B01AC01EC88FD8884E9CD
:1013100096E0B501A901940184010E94E121DF91C9
:10132000CF911F910F91FF90EF90DF90CF90BF90E2
:10133000AF909F908F907F906F905F904F903F9075
:101340002F900895AF92BF92CF92DF92EF92FF92CB
:101350000F931F93CF93DF9383E090E090939306D6
:101360008093920684E996E060E00E940B2084E975
:1013700096E060E270E042E350E00E94FF1F84E9E3
:1013800096E060E070E00E94052084E996E061E468
:1013900072E00E94EC1C84E996E066E170E04EE4A5
:1013A00050E024E530E000E110E0EE24FF240E944C
:1013B000E12184E996E066E170E046E650E024E54C
:1013C00030E0EE24EA94FE2C0E94E12184E996E0CC
:1013D0006EE270E042E550E00E94FF1F84E996E073
:1013E0006FEF7FEF0E94052084E996E06DE472E0E4
:1013F0000E94EC1C84E996E06CE170E04AE650E063
:101400000E94FF1F84E996E060E070E00E940520E2
:1014100084E996E063E272E00E94EC1C68EC70E004
:1014200080E090E00E941E150E9410155B016C0187
:10143000C3E0D0E00E941015DC01CB018A199B09A2
:10144000AC09BD090E948B042091DE023091DF02BD
:10145000233031050CF44FC0809192069091930691
:10146000892B09F448C084E996E066E170E04EE417
:1014700050E024E530E000E110E0EE24EA94FE2C98
:101480000E94E12184E996E066E170E046E650E0E2
:1014900024E530E0EE24FF240E94E12184E996E077
:1014A0006EE270E042E550E00E94FF1F84E996E0A2
:1014B00060E070E00E94052084E996E06DE472E04F
:1014C0000E94EC1C84E996E06CE170E04AE650E092
:1014D0000E94FF1F84E996E06FEF7FEF0E940520D6
:1014E00084E996E063E272E00E94EC1C109293069D
:1014F0001092920652C02E5F3F4F0CF04EC080916A
:10150000920690919306039709F447C084E996E008
:1015100066E170E046E650E024E530E000E110E0EE
:10152000EE24EA94FE2C0E94E12184E996E066E133
:1015300070E04EE450E024E530E0EE24FF240E9409
:10154000E12184E996E06EE270E042E550E00E941D
:10155000FF1F84E996E06FEF7FEF0E94052084E98A
:1015600096E06DE472E00E94EC1C84E996E06CE188
:1015700070E04AE650E00E94FF1F84E996E060E0D8
:1015800070E00E94052084E996E063E272E00E9428
:10159000EC1CD0939306C093920682E00E94F3164F
:1015A000892B09F047CF809192069091930603977B
:1015B00009F08FC084E996E060E04FEF2FEF0E94C2
:1015C0005922BC0184E996E00E94C6216091CA02BA
:1015D0007091CB028091CC029091CD020E94E324C5
:1015E0005B016C016091CE027091CF028091D002BC
:1015F0009091D1020E94E3249B01AC01E090D202C1
:10160000F090D30284E996E0B501A90128E030E02A
:1016100008E010E00E94E1216091AE047091AF04F7
:101620008091B0049091B1040E94E3245B016C01AD
:101630006091B2047091B3048091B4049091B504A8
:101640000E94E3249B01AC01E090B604F090B70443
:1016500084E996E0B501A90128E030E00E94E1218B
:1016600084E996E060E070E040E050E020E830E09F
:101670000AE010E0EE24EA94FE2C0E94E12184E9C5
:1016800096E060E070E046E950E020E830E00E943B
:10169000E1212091BA043091BB0484E996E060E036
:1016A00070E040E050E005E010E0FFE1EF2EF12CAB
:1016B0000E94E1212091D6023091D70284E996E080
:1016C00060E070E04BE950E0E12CE8EFFE2E0E9474
:1016D000E121DF91CF911F910F91FF90EF90DF906B
:1016E000CF90BF90AF9008952F923F924F925F920C
:1016F0006F927F928F929F92AF92BF92CF92DF9222
:10170000EF92FF920F931F93CF93DF93CAECD2E037
:1017100000E010E00F2EF0E04F2EF0E05F2EF8E733
:101720006F2EF2E47F2EF02D84EE282E81E0382EED
:101730000F2EF0E08F2EF0E09F2EF0E0AF2EF0E0C5
:10174000BF2EF02D0F2EF0E0CF2EF0E0DF2EF8ECC4
:10175000EF2EF2ECFF2EF02D488259826A827B82B6
:1017600080E890E09D878C870E9410156E877F87A8
:10177000888B998B029DF001039DF00D129DF00D59
:101780001124EA50FD4F80E090E080869186A28689
:10179000B38684869586A686B786C082D182E28289
:1017A000F382C482D582E682F782019676968431EE
:1017B000910559F70F5F1F4FCC51DE4F02301105D5
:1017C00059F680E090E0ACEEB2E48093CE029093C4
:1017D000CF02A093D002B093D10280E090E0A8E1C4
:1017E000B2E48093B2049093B304A093B404B09392
:1017F000B50480E098EFA0E0B0E08093D20290932F
:10180000D302A093D402B093D5028FE190E0A0E080
:10181000B0E08093B6049093B704A093B804B0935B
:10182000B90484E996E060E04FEF2FEF0E9459225F
:10183000BC0184E996E00E94C6216091CA027091C1
:10184000CB028091CC029091CD020E94E3245B01F7
:101850006C016091CE027091CF028091D002909184
:10186000D1020E94E3249B01AC01E090D202F090EF
:10187000D30284E996E0B501A90128E030E008E050
:1018800010E00E94E1216091AE047091AF0480915C
:10189000B0049091B1040E94E3245B016C0160915B
:1018A000B2047091B3048091B4049091B5040E9485
:1018B000E3249B01AC01E090B604F090B70484E906
:1018C00096E0B501A90128E030E00E94E12184E919
:1018D00096E060E070E040E050E020E830E00AE0B0
:1018E00010E0EE24EA94FE2C0E94E12184E996E0C7
:1018F00060E070E046E950E020E830E00E94E1213D
:101900002091BA043091BB0484E996E060E070E075
:1019100040E050E005E010E0BFE1EB2EF12C0E942A
:10192000E1212091D6023091D70284E996E060E06F
:1019300070E04BE950E0E12CA8EFFA2E0E94E12183
:1019400084E996E068E370E044E450E024E130E0AC
:1019500004E110E0EE24FF240E94E12184E996E0F6
:1019600060E04FEF2FEF0E9459227C0184E996E05E
:1019700068E370E048E450E020E130E004E010E08B
:101980000E94E12184E996E060E04FEF2FEF0E9492
:1019900059227C0184E996E068E370E040E550E07C
:1019A00020E130E00E94E12168EE73E080E090E009
:1019B0000E941E1584E996E068E370E044E450E07C
:1019C00024E130E004E110E0EE24FF240E94E12154
:1019D00084E996E060E04FEF2FEF0E9459227C01EE
:1019E00084E996E068E370E048E450E020E130E00C
:1019F00004E010E00E94E12184E996E060E04FEF0E
:101A00002FEF0E9459227C0184E996E06CE370E09C
:101A100040E550E020E130E00E94E12168EE73E013
:101A200080E090E00E941E1584E996E060E04FEFB0
:101A30002FEF0E9459227C0184E996E068E370E070
:101A400044E450E024E130E004E110E00E94E121B0
:101A500084E996E060E470E044E450E024E030E0A3
:101A6000EE24FF240E94E12168EE73E080E090E024
:101A70000E941E1584E996E060E04FEF2FEF0E9470
:101A800059227C0184E996E068E370E044E450E088
:101A900024E130E00E94E12183E090E090939306FE
:101AA00080939206DF91CF911F910F91FF90EF905D
:101AB000DF90CF90BF90AF909F908F907F906F906E
:101AC0005F904F903F902F900895AF92BF92CF922A
:101AD000DF92EF92FF920F931F9384E996E060E00C
:101AE00070E00E94C62184E996E061E00E940B202C
:101AF00084E996E060E070E040E050E00E94FF1F63
:101B000084E996E06FEF7FEF0E94052084E996E07C
:101B100064E572E00E94EC1C0E9410155B016C01F0
:101B20000E9410157B018C01DC01CB018A199B09F5
:101B3000AC09BD090E948B0482E00E94F316570194
:101B40006801892B69F710929306109292061F91F3
:101B50000F91FF90EF90DF90CF90BF90AF900895DE
:101B60008F929F92AF92BF92CF92DF92EF92FF92AD
:101B70000F931F93CF93DF9382E090E090939306AF
:101B80008093920684E996E060E070E00E94C621AE
:101B900084E996E06CE070E040E250E024E030E060
:101BA00008E110E0E12CF8EFFF2E0E94E12184E92A
:101BB00096E060E170E040E250E024E030E004E0D4
:101BC00010E00E94E12184E996E064E170E044E2E3
:101BD00050E024E030E00E94E12184E996E060E1F9
:101BE00070E048E250E024E030E00E94E12184E926
:101BF00096E06CE170E04CE250E024E030E0EE244E
:101C0000EA94FE2C0E94E12184E996E06EE170E006
:101C100040E350E024E030E00E94E12184E996E0D6
:101C200060E270E044E350E024E030E00E94E12113
:101C300084E996E062E270E040E350E024E030E0C6
:101C40000E94E12184E996E064E270E04CE250E019
:101C500024E030E00E94E12184E996E060E370E056
:101C600040E250E024E030E008E110E0EFE1EE2E49
:101C7000F12C0E94E12184E996E064E370E040E207
:101C800050E024E030E004E010E00E94E12184E92B
:101C900096E068E370E044E250E024E030E00E9427
:101CA000E12184E996E064E370E048E250E024E05A
:101CB00030E00E94E12184E996E060E470E04CE2CB
:101CC00050E02CE030E00CE010E0EE24EA94FE2C32
:101CD0000E94E12184E996E064E470E04CE250E087
:101CE00024E030E008E010E0EE24FF240E94E1212F
:101CF00084E996E060E570E044E250E024E030E002
:101D000004E010E0EE24EA94FE2C0E94E12184E934
:101D100096E060E570E04CE250E024E030E00CE05A
:101D200010E00E94E12184E996E068E570E04AE273
:101D300050E024E030E002E010E00E94E12184E97C
:101D400096E068E570E04CE250E02CE030E00CE01A
:101D500010E00E94E12184E996E06CE570E040E348
:101D600050E024E030E008E010E0EE24FF240E9480
:101D7000E12184E996E068E670E04CE250E02CE076
:101D800030E00CE010E0EE24EA94FE2C0E94E12109
:101D900084E996E06CE670E040E350E024E030E057
:101DA00004E010E0EE24FF240E94E12184E996E0A3
:101DB00066E170E04EE450E024E530E000E110E040
:101DC000EE24EA94FE2C0E94E12184E996E066E18B
:101DD00070E046E650E024E530E00E94DC1D84E936
:101DE00096E060E00E940B2084E996E062E370E0F8
:101DF00042E550E00E94FF1F84E996E060E070E059
:101E00000E94052084E996E06EE672E00E94EC1CD8
:101E100084E996E06CE170E04AE650E00E94FF1F22
:101E200084E996E06FEF7FEF0E94052084E996E059
:101E300064E772E00E94EC1C0E9410157B018C018B
:101E400092E0892E912CC1E0D0E00E9410155B0138
:101E50006C01DC01CB018E199F09A00BB10B0E9414
:101E60008B042091DE023091DF02233031050CF427
:101E700059C08091920690919306019709F452C03F
:101E800084E996E066E170E04EE450E024E530E05D
:101E900000E110E0EE24FF240E94E12184E996E0B5
:101EA00066E170E04EE450E024E530E0EE24EA9490
:101EB000FE2C0E94DC1D84E996E066E170E046E6B7
:101EC00050E024E530E00E94E12184E996E062E3FD
:101ED00070E042E550E00E94FF1F84E996E06FEF5A
:101EE0007FEF0E94052084E996E06EE672E00E9492
:101EF000EC1C84E996E06CE170E04AE650E00E9458
:101F0000FF1F84E996E060E070E00E94052084E90C
:101F100096E064E772E00E94EC1CD0939306C093B5
:101F200092065CC02E5F3F4F0CF058C08091920625
:101F300090919306029709F451C084E996E066E116
:101F400070E046E650E024E530E000E110E0EE24E9
:101F5000FF240E94E12184E996E066E170E046E614
:101F600050E024E530E0EE24EA94FE2C0E94DC1DD3
:101F700084E996E066E170E04EE450E024E530E06C
:101F80000E94E12184E996E062E370E042E550E0DE
:101F90000E94FF1F84E996E060E070E00E94052047
:101FA00084E996E06EE672E00E94EC1C84E996E01B
:101FB0006CE170E04AE650E00E94FF1F84E996E081
:101FC0006FEF7FEF0E94052084E996E064E772E0FE
:101FD0000E94EC1C909293068092920682E00E94EE
:101FE000F31686017501892B09F02FCFDF91CF9170
:101FF0001F910F91FF90EF90DF90CF90BF90AF9027
:102000009F908F9008952F923F924F925F926F9280
:102010007F928F929F92AF92BF92CF92DF92EF9278
:10202000FF920F931F93CF93DF93C6EFD2E00F2E53
:10203000F0E02F2EF0E03F2EF8EC4F2EF2EC5F2E6A
:10204000F02D688579858A859B8520E030E040E029
:1020500050E00E947724882369F46C857D858E8505
:102060009F8520E030E040E050E00E947724882304
:1020700009F4E9C0AC80BD80CE80DF8068897989B1
:10208000882777FD8095982F0E9416253B014C01EB
:10209000E090AE04F090AF040091B0041091B10450
:1020A000C601B501A40193010E941324A801970160
:1020B0000E94C62518160CF0C6C0C801B70120E062
:1020C00030E040E051E40E9413249B01AC01C601C2
:1020D000B5010E94772488230CF0B5C0A880B98090
:1020E000CA80DB80E090B204F090B3040091B404A5
:1020F0001091B504C601B501A40193010E941324F7
:10210000A80197010E94C62518160CF09CC0C801B2
:10211000B70120E030E040E051E40E9413249B012D
:10212000AC01C601B5010E94772488230CF08BC056
:102130008DEE98E061E872E00E94EF1C8091BA0495
:102140009091BB042A893B89821B930B9093BB041B
:102150008093BA0480E090E0A0E0B0E08C879D8797
:10216000AE87BF8788879987AA87BB876C817D8167
:102170008E819F810E94E3243B014C01688179811B
:102180008A819B810E94E3245B016C010889198983
:1021900084E996E060E04FEF2FEF0E9459227C0126
:1021A00084E996E0B301A50198010E94E1216091C4
:1021B000AE047091AF048091B0049091B1040E947C
:1021C000E3245B016C016091B2047091B3048091CF
:1021D000B4049091B5040E94E3249B01AC01E0900B
:1021E000B604F090B70484E996E0B501A90128E0AF
:1021F00030E008E010E00E94E1212C823D824E8216
:102200005F82288239824A825B8284E996E060E0BC
:1022100070E040E050E020E830E005E010E0EE241F
:10222000EA94FE2C0E94E1212091BA043091BB0473
:1022300084E996E060E070E040E050E0BFE1EB2E22
:10224000F12C0E94E121669684E0CE3AD80709F08D
:10225000F8CEAC960F2EF0E02F2EF0E03F2EF8ECEB
:102260004F2EF2EC5F2EF02D688579858A859B854F
:1022700020E030E040E050E00E947724882369F4B9
:102280006C857D858E859F8520E030E040E050E0C4
:102290000E947724882309F4E9C0AC80BD80CE80F9
:1022A000DF8068897989882777FD8095982F0E943B
:1022B00016253B014C01E090CA02F090CB02009140
:1022C000CC021091CD02C601B501A40193010E9478
:1022D0001324A80197010E94C62518160CF0C6C049
:1022E000C801B70120E030E040E051E40E9413242F
:1022F0009B01AC01C601B5010E94772488230CF034
:10230000B5C0A880B980CA80DB80E090CE02F09092
:10231000CF020091D0021091D102C601B501A401F3
:1023200093010E941324A80197010E94C625181644
:102330000CF09CC0C801B70120E030E040E051E45F
:102340000E9413249B01AC01C601B5010E947724B1
:1023500088230CF08BC08DEE98E061E872E00E945B
:10236000EF1C8091D6029091D7022A893B89821B6B
:10237000930B9093D7028093D60280E090E0A0E088
:10238000B0E08C879D87AE87BF8788879987AA87AB
:10239000BB876C817D818E819F810E94E3243B01FC
:1023A0004C01688179818A819B810E94E3245B01D1
:1023B0006C010889198984E996E060E04FEF2FEFFE
:1023C0000E9459227C0184E996E0B301A50198019D
:1023D0000E94E1216091CA027091CB028091CC02EF
:1023E0009091CD020E94E3245B016C016091CE02CA
:1023F0007091CF028091D0029091D1020E94E3248B
:102400009B01AC01E090D202F090D30284E996E007
:10241000B501A90128E030E008E010E00E94E121C8
:102420002C823D824E825F82288239824A825B8280
:1024300084E996E060E070E04BE950E020E830E0AD
:1024400005E010E0EE24EA94FE2C0E94E1212091A8
:10245000D6023091D70284E996E060E070E04BE963
:1024600050E0E12CA8EFFA2E0E94E121669686E06A
:10247000C239D80709F0F8CEDF91CF911F910F91A3
:10248000FF90EF90DF90CF90BF90AF909F908F9094
:102490007F906F905F904F903F902F9008952F9274
:1024A0003F924F925F926F927F928F929F92AF92E4
:1024B000BF92CF92DF92EF92FF920F931F93DF9321
:1024C000CF93CDB7DEB72A970FB6F894DEBF0FBE15
:1024D000CDBF3B0158874F834901FB0180A191A1EA
:1024E000268D378DAB014C5C5F4F5A8749871E8222
:1024F0001D825C01CC24B7FCC094DC2C7901002740
:10250000F7FC0095102FE985FA8560817181828141
:10251000938120E030E040E050E00E94772488235F
:1025200009F0F4C0C601B5010E9416251B012C015B
:10253000C801B7010E94162569837A838B839C8327
:10254000E985FA85648175818681978120E030E094
:1025500040E050E00E947724882309F0D7C086E14C
:1025600090E02D813E81289F8001299F100D389F8A
:10257000100D1124060D171D2F813885F80135AF78
:1025800024AF97AE86AE005C1F4FF3018085918526
:10259000F8019183808300541040F30160817181C0
:1025A0008281938120E030E040E850E40E941324CF
:1025B0004B015C012F813885B901882777FD809513
:1025C000982F0E94162520E030E040E05FEB0E944B
:1025D000CA256B017C01C501B401A70196010E94C7
:1025E0001324F80160AB71AB82AB93ABF301648150
:1025F00075818681978120E030E040E850E40E94B8
:102600001324A70196010E941324F80164A775A75B
:1026100086A797A7C201B101A20191010E94CA2514
:102620007B018C0169817A818B819C819B01AC014A
:102630000E94CA259B01AC01C801B7010E94132466
:102640007B018C0120E030E040E050E00E94C62594
:10265000181624F017FB109517F91095C801B7014B
:102660000E9431265B016C0186E190E02D813E8164
:10267000289F7001299FF00C389FF00C1124E60C64
:10268000F71CC201B101A60195010E947B2420E044
:1026900030E040E05EE30E94CA25F70164AB75AB11
:1026A00086AB97AB69817A818B819C81A60195016C
:1026B0000E947B2420E030E040E05EE30E94CA25D7
:1026C000F70160AF71AF82AF93AF04AD15AD60A9F4
:1026D00071A982A993A90E94E3245B016C01F7010F
:1026E00064A575A586A597A50E94E3249B01AC016E
:1026F00084E996E0B501A9019801E0EEEE2EE7E04D
:10270000FE2E0E94E12121E030E012C02D813E81A9
:102710002F5F3F4F3E832D8349855A854A5E5F4F29
:102720005A8749872431310509F0EDCE20E030E0A9
:10273000C9012A960FB6F894DEBF0FBECDBFCF9168
:10274000DF911F910F91FF90EF90DF90CF90BF909E
:10275000AF909F908F907F906F905F904F903F9041
:102760002F900895AF92BF92CF92DF92EF92FF9297
:102770000F931F93CF93DF935C01EB0188A199A185
:1027800097FF03C0909581959F4F03974CF48E8DD2
:102790009F8D97FF03C0909581959F4F0397F4F00D
:1027A0000E9410152E853F8548895989621B730B3D
:1027B000840B950B653671058105910578F0C5018F
:1027C000BE0142E050E025E030E00E944F127C0163
:1027D0000E9410156E877F87888B998B00E010E030
:1027E000F6E1CF2ED12C0C9DB0010D9D700D1C9DDE
:1027F000700D1124645D7F4F6C0F7D1FC5010E9419
:10280000BF080F5F1F4F0431110569F7EF28E1F092
:10281000688179818A819B810E94E3245B016C013C
:102820006C817D818E819F810E94E3249B01AC019C
:10283000E884F98484E996E0B501A90128E030E054
:1028400008E010E00E94E121DF91CF911F910F91EC
:10285000FF90EF90DF90CF90BF90AF900895EF92F0
:10286000FF920F931F93CF93DF930E9410157B016C
:102870008C018091C0069091C106E701C81BD90B5D
:10288000CE010E948B048091920690919306823033
:102890009105B1F08330910534F4009759F0019718
:1028A00009F06FC00AC08330910569F0049709F000
:1028B00068C05BC00E94B00D5AC00E94650D57C031
:1028C0000E94740B54C0CE016AEC72E00E9427078C
:1028D000CE016EEA74E00E942707CE016AEC72E036
:1028E0000E94B213CE016EEA74E00E94B2130E94FD
:1028F000031082E00E94F316892B31F484E090E00B
:1029000090939306809392068091BA049091BB04B1
:10291000181619066CF08091F4029091F502019658
:102920009093F5028093F40280E090E00E94870586
:102930008091D6029091D702181619066CF08091FA
:10294000D8049091D90401969093D9048093D80427
:1029500081E090E00E948705E092C006F092C106F7
:102960000093C2061093C3060CC00E94A2090E94E5
:1029700010156093C0067093C1068093C2069093B1
:10298000C306DF91CF911F910F91FF90EF900895B3
:102990001F920F920FB60F9211242F933F938F9394
:1029A0009F93AF93BF938091C8069091C906A09161
:1029B000CA06B091CB063091CC060196A11DB11D7F
:1029C000232F2D5F2D3720F02D570196A11DB11D0E
:1029D0002093CC068093C8069093C906A093CA069C
:1029E000B093CB068091C4069091C506A091C6060F
:1029F000B091C7060196A11DB11D8093C4069093A6
:102A0000C506A093C606B093C706BF91AF919F912C
:102A10008F913F912F910F900FBE0F901F9018959F
:102A20008FB7F8942091C8063091C9064091CA0624
:102A30005091CB068FBFB901CA0108959B01AC012B
:102A40007FB7F8948091C4069091C506A091C60600
:102A5000B091C70666B5A89B05C06F3F19F00196F7
:102A6000A11DB11D7FBFBA2FA92F982F8827860FD0
:102A7000911DA11DB11D62E0880F991FAA1FBB1FE8
:102A80006A95D1F7BC012DC0FFB7F8948091C406B8
:102A90009091C506A091C606B091C706E6B5A89B61
:102AA00005C0EF3F19F00196A11DB11DFFBFBA2F60
:102AB000A92F982F88278E0F911DA11DB11DE2E02F
:102AC000880F991FAA1FBB1FEA95D1F7861B970B8A
:102AD000885E9340C8F221503040404050406851D9
:102AE0007C4F211531054105510571F60895789403
:102AF00084B5826084BD84B5816084BD85B5826003
:102B000085BD85B5816085BDEEE6F0E080818160A0
:102B10008083E1E8F0E010828081826080838081A0
:102B200081608083E0E8F0E0808181608083E1EB78
:102B3000F0E0808184608083E0EBF0E08081816060
:102B40008083E1E9F0E08081826080838081816020
:102B50008083E0E9F0E0808181608083E1EAF0E059
:102B6000808182608083808181608083E0EAF0E000
:102B7000808181608083E1E2F1E0808182608083F6
:102B8000808181608083E0E2F1E0808181608083E8
:102B9000EAE7F0E0808184608083808182608083C6
:102BA0008081816080838081806880831092C100F1
:102BB0000895382F863308F0365320917B00832FF9
:102BC00086958695869590E08170907043E0880F99
:102BD000991F4A95E1F7277F282B20937B003770B8
:102BE000809189028295880F880F807C832B809347
:102BF0007C0080917A00806480937A0080917A00D2
:102C000086FDFCCF2091780040917900942F80E0E0
:102C100030E0282B392BC9010895CF93DF93482F3B
:102C200050E0CA0188589E4FFC0134914E5C5E4FC3
:102C3000FA018491882369F190E0880F991FFC01C3
:102C4000EC51FF4FA591B491FC01E250FF4FC591AB
:102C5000D491662351F42FB7F8948C91932F9095CB
:102C600089238C93888189230BC0623061F42FB74C
:102C7000F8948C91932F909589238C938881832B42
:102C800088832FBF06C09FB7F8948C91832B8C93B9
:102C90009FBFDF91CF910895893009F449C08A30F0
:102CA000A0F4843051F1853040F4823079F18330E2
:102CB00000F5813009F063C026C0873079F1883093
:102CC00098F5863009F05BC025C08D3009F442C00C
:102CD0008E3028F48B30B1F18C30C0F52DC08031AE
:102CE00009F442C0813109F445C08F3009F047C072
:102CF00037C0809180008F7703C0809180008F7DE6
:102D000080938000089584B58F7702C084B58F7D4D
:102D100084BD08958091B0008F7703C08091B0008A
:102D20008F7D8093B0000895809190008F7707C0C9
:102D3000809190008F7D03C080919000877F809369
:102D4000900008958091A0008F7707C08091A00027
:102D50008F7D03C08091A000877F8093A00008959D
:102D6000809120018F7703C0809120018F7D809317
:102D70002001089580912001877F8093200108958C
:102D8000FF920F931F93F62E482F50E0CA018254F2
:102D90009E4FFC012491CA0188589E4FFC0114915A
:102DA0004E5C5E4FFA0104910023C9F0222319F012
:102DB000822F0E944C16E02FF0E0EE0FFF1FE25032
:102DC000FF4FA591B4919FB7F894FF2021F48C9107
:102DD0001095812302C08C91812B8C939FBF1F91F2
:102DE0000F91FF9008950F931F93482F50E0CA0151
:102DF00082549E4FFC012491CA0188589E4FFC01C9
:102E000004914E5C5E4FFA011491112319F420E0F5
:102E100030E015C0222319F0822F0E944C16812F1A
:102E200090E0880F991F885E9E4FFC01A591B49198
:102E30008C9120E030E0802311F021E030E0C901E6
:102E40001F910F91089508951F920F920FB60F9240
:102E50000BB60F9211242F933F934F938F939F9311
:102E6000EF93FF938091C00082FD1DC04091C6008A
:102E700020910D0730910E072F5F3F4F2F73307059
:102E800080910F07909110072817390771F0E09192
:102E90000D07F0910E07E353F94F408330930E076F
:102EA00020930D0702C08091C600FF91EF919F9182
:102EB0008F914F913F912F910F900BBE0F900FBEAE
:102EC0000F901F90189508951F920F920FB60F92B2
:102ED0000BB60F9211242F933F934F938F939F9391
:102EE000EF93FF938091C80082FD1DC04091CE00FA
:102EF00020919507309196072F5F3F4F2F733070C9
:102F000080919707909198072817390771F0E09101
:102F10009507F0919607EB5AF84F40833093960748
:102F20002093950702C08091CE00FF91EF919F9171
:102F30008F914F913F912F910F900BBE0F900FBE2D
:102F40000F901F90189508951F920F920FB60F9231
:102F50000BB60F9211242F933F934F938F939F9310
:102F6000EF93FF938091D00082FD1DC04091D60069
:102F700020911D0830911E082F5F3F4F2F73307036
:102F800080911F08909120082817390771F0E0916F
:102F90001D08F0911E08E352F84F408330931E083D
:102FA00020931D0802C08091D600FF91EF919F9160
:102FB0008F914F913F912F910F900BBE0F900FBEAD
:102FC0000F901F90189508951F920F920FB60F92B1
:102FD0000BB60F9211242F933F934F938F939F9390
:102FE000EF93FF938091300182FD1DC04091360127
:102FF0002091A5083091A6082F5F3F4F2F733070A6
:103000008091A7089091A8082817390771F0E091DE
:10301000A508F091A608EB59F74F40833093A60816
:103020002093A50802C080913601FF91EF919F91F6
:103030008F914F913F912F910F900BBE0F900FBE2C
:103040000F901F901895E091F908F091FA08E05C54
:10305000FF4F8191919120813181821B930B8F735E
:103060009070892B11F00E942317E0911B09F091B9
:103070001C09E05CFF4F8191919120813181821B7D
:10308000930B8F739070892B11F00E946317E0915E
:103090003D09F0913E09E05CFF4F819191912081C3
:1030A0003181821B930B8F739070892B11F00E94DA
:1030B000A317E0915F09F0916009E05CFF4F8191F7
:1030C000919120813181821B930B8F739070892B9A
:1030D00011F00E94E31708951F920F920FB60F92FE
:1030E0000BB60F9211242F933F938F939F93EF93DF
:1030F000FF9320915107309152078091530790918F
:1031000054072817390731F48091C1008F7D8093CF
:10311000C10014C0E0915307F0915407EF5EF84FDF
:103120002081809153079091540701968F7390707E
:1031300090935407809353072093C600FF91EF911B
:103140009F918F913F912F910F900BBE0F900FBECB
:103150000F901F9018951F920F920FB60F920BB6FB
:103160000F9211242F933F938F939F93EF93FF938D
:103170002091D9073091DA078091DB079091DC0725
:103180002817390731F48091C9008F7D8093C900D9
:1031900014C0E091DB07F091DC07E756F84F20817F
:1031A0008091DB079091DC0701968F73907090936C
:1031B000DC078093DB072093CE00FF91EF919F9176
:1031C0008F913F912F910F900BBE0F900FBE0F90DC
:1031D0001F9018951F920F920FB60F920BB60F9279
:1031E00011242F933F938F939F93EF93FF932091FD
:1031F00061083091620880916308909164082817F3
:10320000390731F48091D1008F7D8093D10014C0B3
:10321000E0916308F0916408EF5DF74F20818091A1
:1032200063089091640801968F739070909364087E
:10323000809363082093D600FF91EF919F918F9127
:103240003F912F910F900BBE0F900FBE0F901F90CC
:1032500018951F920F920FB60F920BB60F92112472
:103260002F933F938F939F93EF93FF932091E908C0
:103270003091EA088091EB089091EC082817390703
:1032800031F4809131018F7D8093310114C0E09140
:10329000EB08F091EC08E755F74F20818091EB089F
:1032A0009091EC0801968F7390709093EC08809346
:1032B000EB0820933601FF91EF919F918F913F9101
:1032C0002F910F900BBE0F900FBE0F901F9018956F
:1032D000AF92BF92DF92EF92FF920F931F93CF9323
:1032E000DF93EC017A018B01DD24403081EE580739
:1032F00080E0680780E0780711F0DD24D39491E046
:10330000A92EB12CEC89FD89DD2069F0C50108A04A
:1033100002C0880F991F0A94E2F7808360E079E089
:103320008DE390E005C0108260E874E88EE190E0E3
:10333000A80197010E94D8262150304040405040BB
:10334000569547953795279580E12030380720F02E
:10335000DD2011F0DD24D6CFE889F9893083EA89B0
:10336000FB89208319A2EE89FF89408121E030E0AA
:10337000C9010C8C02C0880F991F0A94E2F7482BF0
:103380004083EE89FF894081C9010D8C02C0880FFE
:10339000991F0A94E2F7482B4083EE89FF89408108
:1033A000C9010E8C02C0880F991F0A94E2F7482BBE
:1033B0004083EE89FF8980810F8C02C0220F331F6A
:1033C0000A94E2F7209528232083DF91CF911F9163
:1033D0000F91FF90EF90DF90BF90AF900895DC01C8
:1033E0001C96ED91FC911D97E05CFF4F219131916E
:1033F00080819181281B390B2F733070C90108958A
:10340000DC011C96ED91FC911D97E05CFF4F208143
:103410003181E054F040DF01AE5BBF4F8D919C9154
:1034200011972817390719F42FEF3FEF07C08D9137
:103430009C91E80FF91F8081282F30E0C901089581
:10344000DC011C96ED91FC911D97E05CFF4F208103
:103450003181E054F040DF01AE5BBF4F8D919C9114
:1034600011972817390719F42FEF3FEF10C08D91EE
:103470009C911197E80FF91F20818D919C911197D4
:1034800001968F73907011969C938E9330E0C901D2
:103490000895DC0191968C919197882339F0549688
:1034A000ED91FC915597808186FFF9CF91961C9202
:1034B0000895CF93DF93EC01EE85FF85E05CFF4F2D
:1034C00020813181E054F0402F5F3F4F2F733070E7
:1034D000DF01AE5BBF4F8D919C9111972817390783
:1034E000D1F3E05CFF4F80819181E054F040E80F20
:1034F000F91F6083EE85FF85E05CFF4F31832083F9
:10350000EE89FF89208181E090E00F8C02C0880F56
:10351000991F0A94E2F7282B208381E089A3EC8984
:10352000FD8980818064808381E090E0DF91CF918C
:1035300008951F931092F0081092EF0828EE33E0E0
:1035400040E050E02093F1083093F2084093F308F4
:103550005093F4086EE872E07093EE086093ED0803
:103560008DEC96E09093FA088093F90881E197E05A
:103570009093FC088093FB0885EC90E09093FE0804
:103580008093FD0884EC90E0909300098093FF08FD
:1035900080EC90E0909302098093010981EC90E027
:1035A000909304098093030982EC90E090930609BC
:1035B0008093050986EC90E09093080980930709B1
:1035C00014E010930909B3E0B0930A09A7E0A093AF
:1035D0000B09F5E0F0930C09E1E0E0930D0910927E
:1035E0001209109211092093130930931409409382
:1035F0001509509316097093100960930F0985E51A
:1036000097E090931C0980931B0989E997E09093B8
:103610001E0980931D098DEC90E090932009809302
:103620001F098CEC90E0909322098093210988EC8B
:1036300090E0909324098093230989EC90E0909383
:103640002609809325098AEC90E0909328098093BD
:1036500027098EEC90E090932A0980932909109312
:103660002B09B0932C09A0932D09F0932E09E09318
:103670002F091092340910923309209335093093A1
:103680003609409337095093380970933209609393
:1036900031098DED97E090933E0980933D0981E2D9
:1036A00098E09093400980933F0985ED90E09093D6
:1036B00042098093410984ED90E0909344098093FE
:1036C000430980ED90E0909346098093450981ED90
:1036D00090E0909348098093470982ED90E09093A1
:1036E0004A098093490986ED90E090934C098093B4
:1036F0004B0910934D09B0934E09A0934F09F093D5
:103700005009E093510910925609109255092093DF
:103710005709309358094093590950935A097093A7
:1037200054096093530985E698E09093600980936B
:103730005F0989EA98E0909362098093610985E3C3
:1037400091E0909364098093630984E391E09093FE
:1037500066098093650980E391E0909368098093FE
:10376000670981E391E090936A098093690982E394
:1037700091E090936C0980936B0986E391E09093BC
:103780006E0980936D0910936F09B0937009A0932F
:103790007109F0937209E09373091F910895CF9214
:1037A000DF92EF92FF920F931F93CF93DF937C01F1
:1037B0006B018A01C0E0D0E00FC0D6016D916D01B0
:1037C000D701ED91FC910190F081E02DC701199591
:1037D000C80FD91F015010400115110571F7CE0116
:1037E000DF91CF911F910F91FF90EF90DF90CF90DD
:1037F0000895EF92FF920F931F938C01DC01ED91DE
:10380000FC910190F081E02D6DE019957C01D801CB
:10381000ED91FC910190F081E02DC8016AE01995CD
:103820009C012E0D3F1DC9011F910F91FF90EF903C
:103830000895CF93DF93EC016115710519F420E031
:1038400030E00FC0DB010D900020E9F71197A61BB7
:10385000B70BE881F9810280F381E02DAD01199564
:103860009C01C901DF91CF9108954F925F927F92A1
:103870008F929F92AF92BF92CF92DF92EF92FF9280
:103880000F931F93DF93CF93CDB7DEB7A1970FB6FA
:10389000F894DEBF0FBECDBF2C01742ECB012230B9
:1038A00008F42AE019A231E2C32ED12CCC0EDD1E81
:1038B000822E9924AA24BB24672D752FA50194017B
:1038C0000E94D82679018A01C801B701A501940197
:1038D0000E949226472D461B0894C108D1084A3001
:1038E00014F4405D01C0495CF6014083E114F10429
:1038F0000105110521F07E2C5F2DC801DDCFC2012D
:10390000B6010E94191CA1960FB6F894DEBF0FBE37
:10391000CDBFCF91DF911F910F91FF90EF90DF907E
:10392000CF90BF90AF909F908F907F905F904F907F
:103930000895CF92DF92EF92FF920F931F93CF9350
:10394000DF93EC016A017B012115310541F4E88127
:10395000F9810190F081E02D642F19951FC02A3064
:103960003105D1F477FF17C0E881F9810190F0812A
:10397000E02D6DE219958C0144275527BA014C19A9
:103980005D096E097F09CE012AE00E94351C98016D
:10399000280F391F04C02AE00E94351C9C01C90170
:1039A000DF91CF911F910F91FF90EF90DF90CF901B
:1039B0000895EF92FF920F931F937B019A010027C6
:1039C000F7FC0095102FB801A7010E94991C1F91C8
:1039D0000F91FF90EF9008950E94191C0895EF92A7
:1039E000FF920F931F937C010E94191C8C01C70149
:1039F0000E94F91B080F191FC8011F910F91FF901A
:103A0000EF900895CF93DF930E9477150E943904B9
:103A1000C3E2D8E10E942F142097E1F30E942318FB
:103A2000F9CF0895FC01138212828EE992E091830E
:103A30008083758364835783468371876087538748
:103A40004287158A158614861786168621E0248BF0
:103A50008FEF9FEF938B828B918B808B268B0895BA
:103A60002F923F924F925F926F927F928F929F928E
:103A7000AF92BF92CF92DF92EF92FF920F931F937C
:103A8000DF93CF9300D00F92CDB7DEB73C017C839C
:103A90006B836A015901FA82E98222243324980156
:103AA000241B350B37FF03C0309521953F4FC501CF
:103AB0004B815C81841B950B97FF03C0909581958A
:103AC0009F4F821793075CF481E0282E312CC601AA
:103AD000CB80DC809C838B83C80185015C018B815A
:103AE0009C81A816B90644F4C501AB80BC809C83B8
:103AF0008B83C80186016C012501AB81BC814A1A08
:103B00005B0A7801EC18FD08F7FE04C0F094E1941C
:103B1000F108F394C016D10624F088248A94982CD6
:103B200003C0B1E08B2E912CC20162E070E00E94D4
:103B3000C5268B0125C0D301ED91FC9121143104E0
:103B400041F00480F581E02DC301B6014B815C8119
:103B500007C00480F581E02DC3016B817C81A60143
:103B600029813A8119950E191F0917FF04C0C80C45
:103B7000D91C040D151DEB81FC813196FC83EB8370
:103B80004B815C81A416B506B4F60F900F900F9090
:103B90000F90CF91DF911F910F91FF90EF90DF90E9
:103BA000CF90BF90AF909F908F907F906F905F90DD
:103BB0004F903F902F9008954F925F926F927F9217
:103BC0008F929F92AF92BF92CF92DF92EF92FF922D
:103BD0000F931F936C015B014A0139012801DC013D
:103BE000ED91FC910284F385E02D87011995D601B2
:103BF000ED91FC91A40141505040440D551D0284AB
:103C0000F385E02DC601B50193011995D601ED911B
:103C1000FC910084F185E02DC601B501A40192015B
:103C20001995D601ED91FC910894A108B108A60C54
:103C3000B71C0084F185E02DC601B501A4019201F5
:103C400019951F910F91FF90EF90DF90CF90BF904B
:103C5000AF909F908F907F906F905F904F9008955E
:103C6000CF92DF92EF92FF920F931F93DC016B01D3
:103C70007801ED91FC918A0101501040020F131F51
:103C80000680F781E02D960119951F910F91FF9005
:103C9000EF90DF90CF900895CF92DF92EF92FF9256
:103CA0000F931F93DC016A01C9017801ED91FC912A
:103CB00011979B0121503040280F391F0680F78152
:103CC000E02DCD01860119951F910F91FF90EF9086
:103CD000DF90CF9008956F927F928F929F92AF92D4
:103CE000BF92CF92DF92EF92FF920F931F93CF93E9
:103CF000DF935C013A0169014801EB01C60ED71E52
:103D00000DC0D501ED91FC910084F185E02DC50138
:103D1000BE01A3019401870119952196CC15DD05FB
:103D200084F3DF91CF911F910F91FF90EF90DF907F
:103D3000CF90BF90AF909F908F907F906F9008959D
:103D4000EF92FF920F931F93FC017B01A081B18141
:103D500020853185028513851E960D90BC91A02D7E
:103D600060E070E040E050E0FD0119951F910F9177
:103D7000FF90EF9008952F923F924F925F926F9233
:103D80007F928F929F92AF92BF92CF92DF92EF92EB
:103D9000FF920F931F93DF93CF93CDB7DEB72F978B
:103DA0000FB6F894DEBF0FBECDBF5C015E834D83BE
:103DB00018870F83FA86E986CB86DC0118968D91E9
:103DC0009C911997681779070CF0A4C01A968D91E9
:103DD0009C911B97481759070CF09CC0EC2DF0E004
:103DE000FF87EE87CF01880F991F8E0F9F1F880FC7
:103DF000991F860F971F181619060CF08BC0CF015C
:103E0000F3E0880F991FFA95E1F7840F951F1816B4
:103E100019060CF07FC085E0289FA00111245A8369
:103E200049832B011B011C825C81553011F480E019
:103E300005C0E981FA81EC5FFD4F84912C863D86B7
:103E40006D807E8043011B82C82EDD2480FF1CC054
:103E5000D501ED91FC91BB85B13049F40480F58129
:103E6000E02DC501B201A3012F81388522C006844F
:103E7000F785E02DC5016C857D85A4012E853F85E4
:103E80008901EF80F88423C0E985FA852F81388580
:103E9000E217F307E9F0D501ED91FC91BB85B13054
:103EA00051F40480F581E02DC501B201A3012985FB
:103EB0003A8519950DC00684F785E02DC5016C85FE
:103EC0007D85A4012E853F858901E984FA841995B1
:103ED000EB81EF5FEB832E853F85820E931E089466
:103EE000611C711CE83021F0D594C7948C2DACCFA7
:103EF0003C813F5F3C834E855F85240E351E0894D0
:103F0000411C511C89819A8101969A83898336309C
:103F100009F08ACF2F960FB6F894DEBF0FBECDBF43
:103F2000CF91DF911F910F91FF90EF90DF90CF9095
:103F3000BF90AF909F908F907F906F905F904F90C9
:103F40003F902F900895CF92EF92FF920F931F937F
:103F5000CF93DF93EC01262F6A3061F42C8930E097
:103F600003E0220F331F0A95E1F78E859F85820FAC
:103F7000931F37C06D30C9F16C857D854E855F8597
:103F800008891989EA88FB88CC880E94BB1E2C8985
:103F900086E0289FB00111248C859D85680F791FCC
:103FA0007D876C878E89882301F1422F50E08AEF4C
:103FB0009FEF9C01429FC001439F900D529F900D27
:103FC000112428853985820F931F861797076CF473
:103FD00013E0440F551F1A95E1F78E859F85840FD6
:103FE000951F9F878E871D861C8681E090E0DF915C
:103FF000CF911F910F91FF90EF90CF900895FC010A
:1040000075876487578746870895FC01738B628B99
:10401000718B608B0895FC01668B08950895DC0117
:1040200058968C915897882329F06EBD0DB407FEE1
:10403000FDCF089530E840E050E070E0832F90E03D
:10404000862397235996ED91FC915A9796962C9139
:104050009697892B21F08081822B808304C08081F8
:104060002095282320835B96ED91FC915C978081BD
:1040700097969C919797892B80835B96ED91FC9105
:104080005C97908197968C919797809589238083F0
:1040900036954F5F5F4F4830510581F608950F9375
:1040A0001F938C01DC015F96ED91FC9190979081BC
:1040B00099968C9199978095892380835D96ED914F
:1040C000FC915E97908198968C918095892380834E
:1040D000C8010E940F20D8015D96ED91FC915E977A
:1040E000808198969C91892B80831F910F910895D0
:1040F0000F931F938C01DC015F96ED91FC919097DB
:10410000808199969C919997892B80835D96ED91FA
:10411000FC915E97908198968C91809589238083FD
:10412000C8010E940F20D8015D96ED91FC915E9729
:10413000808198969C91892B80831F910F9108957F
:10414000CF92DF92EF92FF920F931F937C01162F75
:10415000C42ED22E6AE20E944F20C70160E00E9466
:104160007820F70162A5610FC7010E947820C7017E
:1041700060E00E947820F70162A56D0DC7010E94E2
:104180007820C7016BE20E944F20C70160E00E94C7
:104190007820F70163A56C0DC7010E947820C70144
:1041A00060E00E947820F70163A5600FC7010E94BC
:1041B0007820C7016CE20E944F201F910F91FF9061
:1041C000EF90DF90CF900895FF920F931F93CF93BE
:1041D000DF93EC01F22E132F77FD2EC08885998591
:1041E000681779074CF557FD27C08A859B854817C6
:1041F000590714F5262F2F5F042F0F5FCE010E9461
:10420000A020EF8DF8A1808199A5892B8083ED8D69
:10421000FE8D908188A5809589238083CE01612FB2
:104220000E940F20CE016F2D0E940F20ED8DFE8D7C
:10423000808198A5892B8083DF91CF911F910F9169
:10424000FF900895DF92EF92FF920F931F93CF9309
:10425000DF93EC01FB017901D02E888599856817E1
:104260007907D4F52A853B8542175307ACF5C7017A
:10427000840F951F281739071CF47901E41AF50AF1
:10428000042F01500E0DCE016E2F2E2F0E94A02064
:10429000EF8DF8A1808199A5892B8083ED8DFE8D0E
:1042A000908188A580958923808308C0CE01612FE5
:1042B0000E940F20CE016D2D0E940F200894E1086E
:1042C000F1088FEFE8168FEFF80681F7ED8DFE8D80
:1042D000808198A5892B8083DF91CF911F910F91C9
:1042E000FF90EF90DF900895DF92EF92FF920F938F
:1042F0001F93CF93DF93EC01FA017901D02E28852B
:10430000398562177307D4F58A859B854817590745
:10431000ACF5C701860F971F281739071CF47901E0
:10432000E61AF70A262F21502E0DCE014E2F0E2F02
:104330000E94A020EF8DF8A1808199A5892B808310
:10434000ED8DFE8D908188A580958923808308C09E
:10435000CE01612F0E940F20CE016D2D0E940F20F3
:104360000894E108F1088FEFE8168FEFF80681F75F
:10437000ED8DFE8D808198A5892B8083DF91CF9173
:104380001F910F91FF90EF90DF900895EF92FF92B1
:104390000F931F93FC017B01A081B18120853185A2
:1043A000028513851E960D90BC91A02D60E070E0F3
:1043B00040E050E0FD0119951F910F91FF90EF90A3
:1043C0000895AF92BF92CF92DF92EF92FF920F9338
:1043D0001F93CF93DF936C015901E801DC0118961C
:1043E0002D913C911997621773070CF057C01A96DC
:1043F000ED91FC911B974E175F070CF04FC0C50164
:10440000860F971F281739071CF45901A61AB70AF7
:10441000CE01840F951FE817F9071CF4EF01C41BA8
:10442000D50B262F21502A0D042F01500C0FC60149
:104430000E94A020D6015F96ED91FC91909780811B
:1044400099969C919997892B80835D96ED91FC912B
:104450005E97908198968C918095892380838E01B8
:104460000EC0C6016F2D0E940F20C6016E2D0E9446
:104470000F2021971C161D06A4F3015010401016A2
:10448000110614F4E501F6CFD6015D96ED91FC918D
:104490005E97808198969C91892B8083DF91CF9144
:1044A0001F910F91FF90EF90DF90CF90BF90AF9052
:1044B000089550E04C7F507033E0440F551F3A95FB
:1044C000E1F730E093E0359527959A95E1F7422B97
:1044D000532B70E0687F7070762F6627462B572B22
:1044E000CA010895662311F460E201C061E20E94EE
:1044F0004F200895AF92BF92CF92DF92EF92FF923A
:104500000F931F93CF93DF935C01FB01EB01219687
:10451000D49031C08E010F5F1F4FFE016491C50121
:104520000E944F2078010894E11CF11CF801C4900E
:104530000C2D0F77E701102F08C0FE012196E491A2
:10454000C5016E2F0E94782011501123B1F7E701A9
:10455000C00FD11DC7FE0EC0FE018491682F70E010
:104560006F3F710511F464EF71E0219680E090E0F7
:104570000E941E15DA94DD2069F6DF91CF911F911C
:104580000F91FF90EF90DF90CF90BF90AF90089584
:104590000F931F93CF93DF93EC018B011BA61AA6F9
:1045A0008AA161E00E940D1689A161E00E940D16AA
:1045B000E9A14E2F50E0FA01EE5CFE4FE491F0E0ED
:1045C000EE0FFF1FE250FF4F859194919E8F8D8FCC
:1045D000EAA12E2F30E0F901EE5CFE4FE491F0E00D
:1045E000EE0FFF1FE250FF4F8591949198A38F8F9C
:1045F00048585E4FFA01849188A728583E4FF90128
:10460000849189A7888D882361F00E94F32380E03C
:104610000E94E22381E00E94D42380E00E94DD23F7
:104620003DC08DA161E00E940D168CA161E00E9449
:104630000D16EDA14E2F50E0FA01EE5CFE4FE49115
:10464000F0E0EE0FFF1FE250FF4FA591B491BC8F39
:10465000AB8FECA12E2F30E0F901EE5CFE4FE49120
:10466000F0E0EE0FFF1FE250FF4F859194919A8F7B
:10467000898F48585E4FFA0194919FA328583E4F66
:10468000F90184918EA38C91909598239C93E98D48
:10469000FA8D90818EA1809589238083ED8DFE8D8A
:1046A000908188A58095892380838BA1882309F137
:1046B00061E00E940D168BA161E00E94C01664EFBC
:1046C00071E080E090E00E941E158BA160E00E94E6
:1046D000C01664EF71E080E090E00E941E158BA18F
:1046E00061E00E94C01664EF71E080E090E00E94FB
:1046F0001E150115110521F0CE01B8010E947A2284
:10470000DF91CF911F910F9108951F93CF93DF9366
:10471000EC01162F6FEF76E00E94C822112351F4AE
:10472000CE016AE377E00E947A2282E08AA781E0E4
:104730008BA705C0CE0167E477E00E947A22CE0104
:1047400064E577E00E947A22123041F4CE0166E3FC
:104750000E944F20CE0160EC0E9478201F8BDF91D9
:10476000CF911F910895DF92EF92FF920F931F93C5
:104770008C01F62EE42ED22E60E870E040EA50E084
:104780000E94121D86EB92E0F80191838083F1A2D2
:10479000E2A2D3A281E0808F15A214A21F910F91F3
:1047A000FF90EF90DF900895882319F48CB5806214
:1047B00002C08CB58F7D8CBD08959CB5937F982BDE
:1047C0009CBD08952CB5382F33702C7F322B3CBD07
:1047D0002DB590E0959587959595879581702E7F5D
:1047E000822B8DBD089584E361E00E940D1683E362
:1047F00061E00E940D1685E361E00E940D1684E3DE
:1048000060E00E94C01683E360E00E94C01685E36A
:1048100061E00E94C0168CB580618CBD8CB580644F
:104820008CBD08955058BB27AA270ED075C166D1FC
:1048300030F06BD120F031F49F3F11F41EF45BC1D6
:104840000EF4E095E7FB51C1E92F77D180F3BA1759
:10485000620773078407950718F071F49EF58FC1FE
:104860000EF4E0950B2EBA2FA02D0B01B90190018B
:104870000C01CA01A0011124FF27591B99F0593FCF
:1048800050F4503E68F11A16F040A22F232F342F17
:104890004427585FF3CF469537952795A795F04065
:1048A0005395C9F77EF41F16BA0B620B730B840B7A
:1048B000BAF09150A1F0FF0FBB1F661F771F881F32
:1048C000C2F70EC0BA0F621F731F841F48F487958A
:1048D00077956795B795F7959E3F08F0B3CF939579
:1048E000880F08F09927EE0F979587950895D9D0EE
:1048F00008F481E008950CD00FC107D140F0FED03C
:1049000030F021F45F3F19F0F0C0511139C1F3C00C
:1049100014D198F39923C9F35523B1F3951B550B83
:10492000BB27AA2762177307840738F09F5F5F4F82
:10493000220F331F441FAA1FA9F333D00E2E3AF0C3
:10494000E0E830D091505040E695001CCAF729D0DD
:10495000FE2F27D0660F771F881FBB1F261737072C
:104960004807AB07B0E809F0BB0B802DBF01FF275C
:1049700093585F4F2AF09E3F510568F0B6C000C1C2
:104980005F3FECF3983EDCF3869577956795B79596
:10499000F7959F5FC9F7880F911D9695879597F9B1
:1049A0000895E1E0660F771F881FBB1F621773072A
:1049B0008407BA0720F0621B730B840BBA0BEE1F3F
:1049C00088F7E095089504D06894B111D9C008958E
:1049D000BCD088F09F5790F0B92F9927B751A0F01D
:1049E000D1F0660F771F881F991F1AF0BA95C9F783
:1049F00012C0B13081F0C3D0B1E00895C0C0672FBC
:104A0000782F8827B85F39F0B93FCCF38695779532
:104A10006795B395D9F73EF490958095709561951B
:104A20007F4F8F4F9F4F0895E89409C097FB3EF446
:104A300090958095709561957F4F8F4F9F4F9923EB
:104A4000A9F0F92F96E9BB279395F6958795779569
:104A50006795B795F111F8CFFAF4BB0F11F460FF29
:104A60001BC06F5F7F4F8F4F9F4F16C0882311F081
:104A700096E911C0772321F09EE8872F762F05C095
:104A8000662371F096E8862F70E060E02AF09A9530
:104A9000660F771F881FDAF7880F9695879597F925
:104AA0000895990F0008550FAA0BE0E8FEEF1616BF
:104AB0001706E807F907C0F012161306E407F50712
:104AC00098F0621B730B840B950B39F40A2661F086
:104AD000232B242B252B21F408950A2609F4A14029
:104AE000A6958FEF811D811D089597F99F6780E836
:104AF00070E060E008959FEF80EC089500240A9430
:104B00001616170618060906089500240A941216A8
:104B10001306140605060895092E0394000C11F4DB
:104B2000882352F0BB0F40F4BF2B11F460FF04C088
:104B30006F5F7F4F8F4F9F4F089557FD9058440FE1
:104B4000551F59F05F3F71F04795880F97FB991FEC
:104B500061F09F3F79F087950895121613061406A9
:104B6000551FF2CF4695F1DF08C016161706180636
:104B7000991FF1CF86957105610508940895E89411
:104B8000BB2766277727CB0197F908958ADF08F4BA
:104B90008FEF08950BD0C0CFB1DF28F0B6DF18F04B
:104BA000952309F0A2CFA7CF1124EACFC6DFA0F347
:104BB000959FD1F3950F50E0551F629FF001729FB2
:104BC000BB27F00DB11D639FAA27F00DB11DAA1FD1
:104BD000649F6627B00DA11D661F829F2227B00D1E
:104BE000A11D621F739FB00DA11D621F839FA00DA9
:104BF000611D221F749F3327A00D611D231F849FF9
:104C0000600D211D822F762F6A2F11249F5750404F
:104C10008AF0E1F088234AF0EE0FFF1FBB1F661FEA
:104C2000771F881F91505040A9F79E3F510570F0A3
:104C30005CCFA6CF5F3FECF3983EDCF3869577958B
:104C40006795B795F795E7959F5FC1F7FE2B880F9E
:104C5000911D9695879597F9089511F40EF44BCF11
:104C60004AC073DFD0F39923D9F3CEF39F57550B86
:104C700087FF51D056959795B0E020F4660F771FC7
:104C8000881FBB1F1F930F9300249001A001800178
:104C9000F001A0E80E0F1F1F0A1E511D601B710BB3
:104CA0008009B50B48F4600F711F801DB51F0E1BE6
:104CB0001F0B0A0A510907C02E0F3F1F4A1F0E0F74
:104CC0001F1F0A1E511D660F771F881FBB1FA69549
:104CD000F795E795F8F60617170708065B07211DF5
:104CE000311D411D0F911F91B901842F9158880FDB
:104CF0009695879508959F3F49F0915028F48695A1
:104D000077956795B7959F5F80389F4F880F9695E9
:104D1000879597F9089591505040660F771F881F27
:104D2000D2F70895629FD001739FF001829FE00D3A
:104D3000F11D649FE00DF11D929FF00D839FF00D1A
:104D4000749FF00D659FF00D9927729FB00DE11DC6
:104D5000F91F639FB00DE11DF91FBD01CF011124A3
:104D60000895AA1BBB1B51E107C0AA1FBB1FA617B2
:104D7000B70710F0A61BB70B881F991F5A95A9F704
:104D800080959095BC01CD01089597FB092E0726CB
:104D90000AD077FD04D0E5DF06D000201AF4709524
:104DA00061957F4F0895F6F7909581959F4F0895EF
:104DB000A1E21A2EAA1BBB1BFD010DC0AA1FBB1F1F
:104DC000EE1FFF1FA217B307E407F50720F0A21B91
:104DD000B30BE40BF50B661F771F881F991F1A94FE
:104DE00069F760957095809590959B01AC01BD0128
:104DF000CF010895EE0FFF1F0590F491E02D199457
:044E0000F894FFCF54
:104E040047616D65204F7665720A00506C61796563
:104E14007220002057696E7321004E657720476128
:104E24006D65004578697420746F204D656E75005A
:104E340057696E733A200050313A00202050323ABC
:104E44000047616D65205061757365640052657338
:104E5400756D6500496E737472756374696F6E73F2
:104E640020636F6D696E6720736F6F6E2100504C05
:104E740041592100496E737472756374696F6E735E
:104E84000050322048495421000100000000591A02
:104E9400CF1BEF19201A001A491A00000000A31FA3
:104EA400CF1B111D301D301E4C1EDC1D6B1EA01EA1
:104EB4000E2000000000A31FCF1BE420301D222180
:0A4EC4007421DC1DE121C6217222D9
:00000001FF
