:100000000C94FC030C9428040C9428040C942804ED
:100010000C9428040C9428040C9428040C942804B0
:100020000C9428040C9428040C9428040C942804A0
:100030000C9428040C9428040C9428040C94280490
:100040000C9428040C9428040C9428040C94280480
:100050000C9428040C9428040C9428040C94521E2C
:100060000C9428040C94AE200C94DA210C942804EF
:100070000C9428040C9428040C9428040C94280450
:100080000C9428040C9428040C9428040C94280440
:100090000C94E7200C9419220C9428040C94280446
:1000A0000C9428040C9428040C9428040C94280420
:1000B0000C9428040C9428040C9428040C94280410
:1000C0000C9428040C9428040C9428040C942021EB
:1000D0000C9458220C9428040C9459210C949722C7
:1000E0000C94280400002100240027002A002D0081
:1000F0003000330001010000040107010A01000083
:100100002200250028002B002E00310034000201BF
:100110000000050108010B0100002000230026005B
:1001200029002C002F00320000010000030106010D
:10013000090105050505070508080808020202026D
:100140000A0A080804040404010101010101010173
:100150000303030303030303040707070C0C0C0C3E
:100160000C0C0C0C02020202060606060606060627
:100170000B0B0B0B0B0B0B0B0102102020080810B4
:100180002040102040800201020108040201010207
:1001900004081020408080402010080402018004E0
:1001A000020180402010080402010804020101023B
:1001B0000408102040800102040810204080000044
:1001C000090A02080B0C0D070603040100000000D9
:1001D000000000000000000000000000000000001F
:1001E0000000000000000000000011100F000000DF
:1001F00000000000000000000000000000000000FF
:100200000000000000000000003E5B4F5B3E3E6BC4
:100210004F6B3E1C3E7C3E1C183C7E3C181C577DA0
:10022000571C1C5E7F5E1C00183C1800FFE7C3E7EC
:10023000FF0018241800FFE7DBE7FF30483A060EFE
:100240002629792926407F050507407F05253F5A45
:100250003CE73C5A7F3E1C1C08081C1C3E7F1422B5
:100260007F22145F5F005F5F06097F017F00668960
:10027000956A606060606094A2FFA29408047E04A6
:100280000810207E201008082A1C08081C2A0808CC
:100290001E101010100C1E0C1E0C30383E3830068C
:1002A0000E3E0E06000000000000005F0000000788
:1002B000000700147F147F14242A7F2A12231308B6
:1002C000646236495620500008070300001C224192
:1002D000000041221C002A1C7F1C2A08083E080836
:1002E00000807030000808080808000060600020E6
:1002F000100804023E5149453E00427F40007249C9
:100300004949462141494D331814127F102745456C
:1003100045393C4A49493141211109073649494982
:1003200036464949291E00001400000040340000F0
:100330000008142241141414141400412214080259
:10034000015909063E415D594E7C1211127C7F49CC
:100350004949363E414141227F4141413E7F494921
:1003600049417F090909013E414151737F0808084D
:100370007F00417F41002040413F017F081422411E
:100380007F404040407F021C027F7F0408107F3E78
:100390004141413E7F090909063E4151215E7F09E5
:1003A000192946264949493203017F01033F40404C
:1003B000403F1F2040201F3F4038403F6314081437
:1003C0006303047804036159494D43007F4141416F
:1003D0000204081020004141417F04020102044050
:1003E00040404040000307080020545478407F28D4
:1003F0004444383844444428384444287F385454CA
:10040000541800087E090218A4A49C787F080404EC
:100410007800447D40002040403D007F102844008B
:1004200000417F40007C047804787C08040478381C
:1004300044444438FC1824241818242418FC7C084C
:10044000040408485454542404043F44243C4040C9
:10045000207C1C2040201C3C4030403C442810287C
:10046000444C9090907C4464544C440008364100C5
:100470000000770000004136080002010204023C3F
:100480002623263C1EA1A161123A4040207A38540E
:100490005455592155557941225454784221555487
:1004A000784020545579400C1E52721239555555DA
:1004B00059395454545939555454580000457C41C5
:1004C0000002457D420001457C407D1211127DF005
:1004D000282528F07C545545002054547C547C0A2F
:1004E000097F4932494949323A4444443A324A48F8
:1004F00048303A4141217A3A42402078009DA0A0FC
:100500007D3D4242423D3D4040403D3C24FF24244D
:10051000487E4943662B2FFC2F2BFF0929F620C06C
:10052000887E090320545479410000447D413048BD
:10053000484A32384040227A007A0A0A727D0D1900
:10054000317D2629292F28262929292630484D4062
:1005500020380808080808080808382F10C8ACBA5E
:100560002F102834FA00007B000008142A142222DD
:10057000142A1408AA005500AAAA55AA55AA0000D0
:1005800000FF00101010FF00141414FF001010FFE3
:1005900000FF1010F010F0141414FC001414F700F5
:1005A000FF0000FF00FF1414F404FC141417101FC4
:1005B00010101F101F1414141F00101010F0000052
:1005C00000001F101010101F10101010F01000006D
:1005D00000FF101010101010101010FF100000007D
:1005E000FF140000FF00FF00001F10170000FC04B4
:1005F000F414141710171414F404F40000FF00F797
:1006000014141414141414F700F7141414171410F9
:10061000101F101F141414F4141010F010F0000028
:100620001F101F0000001F14000000FC140000F049
:1006300010F01010FF10FF141414FF141010101FEE
:1006400000000000F010FFFFFFFFFFF0F0F0F0F0FF
:10065000FFFFFF0000000000FFFF0F0F0F0F0F381C
:1006600044443844FC4A4A4A347E02020606027E6A
:10067000027E0263554941633844443C04407E2075
:100680001E2006027E020299A5E7A5991C2A492A86
:100690001C4C7201724C304A4D4D30304878483015
:1006A000BC625A463D3E494949007E0101017E2A0D
:1006B0002A2A2A2A44445F444440514A4440404440
:1006C0004A51400000FF0103E080FF000008086B72
:1006D0006B083612362436060F090F06000018186C
:1006E0000000001010003040FF0101001F01011E3A
:1006F00000191D1712003C3C3C3C00000000000F9C
:100700000180961180FFB103012C2DB203012C2D25
:10071000B306012C2D012C2DB40107C003A20284C5
:10072000C101C5C2020A00C3028A2AC4028AEEC5F8
:10073000010E20003601C83A0105022A0400020019
:10074000812B04000100A0022A040000007F2B047A
:100750000000007F022A040000007F2B040000003C
:100760009F04E010021C07123732292D29252B394E
:1007700000010310E110031D07062E2C292D2E2E3B
:10078000373F0000021013800A2980641201803272
:100790001180FF3A81050AB1830006030A36010879
:1007A000B6021502B40100C08202700AC10105C27E
:1007B000020102C5823C380AFC021115E01009163C
:1007C0000920211B131917151E2B0405020EE19099
:1007D0000B14081E221D181E1B1A242B0606020FBE
:1007E0000A2A04000200812B040002008113800AFF
:1007F0002980FF002A04012411241FBECFEFD1E27B
:10080000DEBFCDBF00E00CBF14E0A0E0B2E0EEEF31
:10081000F0E600E00BBF02C007900D92A834B107CC
:10082000D9F71BE0A8E4B4E001C01D92A930B107DC
:10083000E1F717E0C8EFD7E004C02297FE010E945D
:100840007930C43FD107C9F70E9460260C947F2DF0
:100850000C94000084E398E066E047E028E00E9402
:10086000202D0E949A1E6093600870936108809307
:1008700062089093630808958DE89AE040E855E295
:1008800060E070E00E94D62284E398E062E00E947B
:10089000E32C82E061E00E944A2081E00E94631F15
:1008A000909377048093760480E00E94631F909376
:1008B00079048093780483E00E94631F90937B0403
:1008C00080937A0482E00E94631F90937D0480935A
:1008D0007C0485E00E94631F909365068093640604
:1008E00084E00E94631F909367068093660687E00A
:1008F0000E94631F909369068093680686E00E94B9
:10090000631F90936B0680936A0610927F04109287
:100910007E0410926D0610926C060895EF92FF927D
:100920000F931F937C0181E00E94631F2091760446
:1009300030917704821B930B909369048093680431
:1009400080E00E94631F20917804309179048C012B
:10095000021B130B109367040093660480916804D4
:1009600090916904E89EB001E99E700DF89E700DAB
:100970001124882777FD8095982F0E94862E20E0ED
:1009800030E04AE754E40E94EB2D20E030E040E004
:100990005EE30E943A2F60936E0470936F0480931D
:1009A0007004909371040E9DB0010F9D700D1E9DFB
:1009B000700D1124882777FD8095982F0E94862E30
:1009C00020E030E04AE754E40E94EB2D20E030E0E4
:1009D00040E05EE30E943A2F60936A0470936B04D8
:1009E00080936C0490936D0483E00E94631F2091B8
:1009F0007A0430917B04821B930B9093750480934F
:100A0000740482E00E94631F20917C0430917D0475
:100A1000821B930B9093730480937204009164067D
:100A20001091650685E00E94631F081B190B109347
:100A3000570600935606009166061091670684E0FB
:100A40000E94631F081B190B109355060093540650
:100A500080915606909157069C01E29EC001E39E4C
:100A6000900DF29E900D112468EE73E00E942730E5
:100A7000882777FD8095982F0E94862E20E030E011
:100A800040E05EE30E943A2F60935C0670935D063F
:100A900080935E0690935F060E9DC0010F9D900DA2
:100AA0001E9D900D112468EE73E00E942730882768
:100AB00077FD8095982F0E94862E20E030E040E060
:100AC0005EE30E943A2F6093580670935906809314
:100AD0005A0690935B06009168061091690687E0BC
:100AE0000E94631F081B190B109363060093620694
:100AF00000916A0610916B0686E00E94631F081B36
:100B0000190B10936106009360061F910F91FF90DF
:100B1000EF900895CF92DF92EF92FF920F931F9381
:100B2000CF93DF936C01EE24FF248701C0E0D0E077
:100B300016C08FE00E94631F62E070E00E942730C1
:100B40000C2E02C0880F991F0A94E2F7AA2797FD7E
:100B5000A095BA2FE80EF91E0A1F1B1F2196CC156F
:100B6000DD053CF3B701C801DF91CF911F910F91D3
:100B7000FF90EF90DF90CF900895CF92DF92EF92A9
:100B8000FF920F931F93CF93DF93EC016B01FB0157
:100B9000808591858130910509F45DC08230910591
:100BA0001CF4892B49F05FC08230910509F456C0CE
:100BB000039709F058C055C08C859D854E969D873A
:100BC0008C8788859985AA85BB858030F8EF9F073B
:100BD000F0E0AF07F0E0BF07E9F484E398E060E0FD
:100BE00070E04BE950E020E830E005E010E0EE2452
:100BF000EA94FE2C0E943F2B20915604309157041A
:100C000084E398E060E070E04BE950E0E12CA8EF6D
:100C1000FA2E1EC04F97A105B10529F584E398E08F
:100C200060E070E040E050E020E830E005E010E0F7
:100C3000EE24EA94FE2C0E943F2B2C853D8584E314
:100C400098E060E070E040E050E0FFE1EF2EF12C32
:100C50000E943F2B08C01F861E8605C0998B888B7B
:100C600002C01B8A1A8AF60180859185181619061A
:100C70006CF588859985AA85BB858030F8EF9F073C
:100C8000F0E0AF07F0E0BF0739F484E398E060E0FC
:100C900070E046E950E00AC04F97A105B10581F424
:100CA00084E398E060E070E045E050E020E830E068
:100CB00005E010E0E0EEEE2EEFEFFE2E0E943F2B5F
:100CC0000E949A1E6C8B7D8B8E8B9F8BF6011386F8
:100CD00012860E949A1EF601608371838283938339
:100CE000DF91CF911F910F91FF90EF90DF90CF9008
:100CF0000895AF92BF92CF92DF92EF92FF920F933F
:100D00001F93CF93DF935B01EC01B4E0CB2ED12C8A
:100D100012C0688D798D4A8D5B8D2C8D3D8D0E8D29
:100D20001F8D84E398E0EE24EA94FE2C0E943F2B72
:100D30000894C11CD11C2896CA14DB0454F3DF911B
:100D4000CF911F910F91FF90EF90DF90CF90BF90C8
:100D5000AF9008952F923F924F925F926F927F9241
:100D60008F929F92AF92BF92CF92DF92EF92FF92BB
:100D70000F931F93DF93CF9300D000D0CDB7DEB792
:100D80004C01CB01C6969E838D8322243324AD81F2
:100D9000BE8118966D917D918D919C911B9720E05D
:100DA00030E040E050E00E94E72D882379F4ED81A7
:100DB000FE81648575858685978520E030E040E07A
:100DC00050E00E94E72D882309F4EFC0D4016D9113
:100DD0007D918D919C910E94532E6B01F401E480D2
:100DE000F58006811781AD81BE816D917D918D91D8
:100DF0009C910E94532E69837A838B839C832981E3
:100E00003A81ED81FE814480558066807780A0889C
:100E1000B188C6010896281739070CF0C6C02A0DFC
:100E20003B1DC216D3060CF0C0C0C801B7010E941A
:100E3000532E8B01C301B2010E94532EC8010896A4
:100E4000681779070CF0B1C06A0D7B1D06171707EC
:100E50000CF0ABC0D4011C968D919C911D97ED8137
:100E6000FE8122893389821B930B1D969C938E935E
:100E70001C9780E090E0A0E0B0E084879587A6878B
:100E8000B78780879187A287B387C301B2010E9489
:100E9000532E5B016C01AD81BE8150960D911C916A
:100EA000519784E398E060E04FEF2FEF0E94B72B5B
:100EB0007C0184E398E069817A81A50198010E9410
:100EC0003F2BF40160817181828193810E94532EB6
:100ED0005B016C01D40114966D917D918D919C9173
:100EE00017970E94532E9B01AC01F401E084F1841A
:100EF00084E398E0B501A90128E030E008E010E0C3
:100F00000E943F2B80E090E0A8ECB2ECED81FE81E6
:100F100080839183A283B38384839583A683B783DD
:100F2000F40180859185A285B3858050984FA040BB
:100F3000B040F9F484E398E060E070E04BE950E001
:100F400020E830E005E010E0EE24EA94FE2C0E9458
:100F50003F2BD4011C962D913C911D971896ED9036
:100F6000FC90199784E398E060E070E04BE950E072
:100F70001AC084E398E060E070E040E050E020E8D0
:100F800030E005E010E0EE24EA94FE2C0E943F2BB6
:100F9000F40124853585E084F18484E398E060E001
:100FA00070E040E050E00E943F2B0894211C311C6F
:100FB0008D819E8146969E838D8394E1291631040E
:100FC00009F0E5CE8091320890913308019709F03D
:100FD00064C0D4016D917D918D919C910E94532E9E
:100FE000F401248135814681578100912C081091AC
:100FF0002D08C0902E08D0902F08CB010896081716
:1010000019070CF04AC0C8010896681779070CF058
:1010100044C0CA01B9010E94532ECB010896C816DC
:10102000D906DCF5C601089668177907B4F584E39C
:1010300098E060E04FEF2FEF0E94B72B7C0184E334
:1010400098E0B801A60128E030E008E010E00E9436
:101050003F2BD4016D917D918D919C910E94532ED7
:101060005B016C01F40164817581868197810E9426
:10107000532E9B01AC01D4011896ED90FC9019976A
:1010800084E398E0B501A90128E030E00E943F2BFD
:10109000C40168E278E00E94BD0526960FB6F89478
:1010A000DEBF0FBECDBFCF91DF911F910F91FF909B
:1010B000EF90DF90CF90BF90AF909F908F907F90F8
:1010C0006F905F904F903F902F9008952F923F9296
:1010D0004F925F926F927F928F929F92AF92BF9248
:1010E000CF92DF92EF92FF920F931F93DF93CF93F4
:1010F00000D000D0CDB7DEB75C017E836D83DB010D
:101100006D917D918D919C910E94532E1B012C011C
:10111000ED81FE8164817581868197810E94532EC5
:101120003B014C01AD81BE8150960D911C915197B0
:1011300084E398E060E04FEF2FEF0E94B72B7C0133
:1011400084E398E0B101A30198010E943F2BCC24D5
:10115000B7FCC094DC2CC601B5010E94862E7B0131
:101160008C01ED81FE8124853585468557850E9459
:101170003A2F9B01AC01AD81BE816D917D918D9126
:101180009C910E94832DED81FE8160837183828317
:101190009383C801B70120853185428553850E941C
:1011A0003A2FAD81BE8114962D913D914D915C9168
:1011B00017970E94832D2B013C01ED81FE816483F2
:1011C000758386839783E0914804F0914904EE0F7C
:1011D000FF1FE650FC4F808191819C838B83C090E0
:1011E0000404D0900504AA24BB2450C0D60116964E
:1011F0000D90BC91A02DBA83A983F601248035807F
:1012000002811381E080F180AD81BE816D917D917D
:101210008D919C910E94532ECB01880D991DE8164B
:10122000F9060CF05CC0E20CF31C6E157F050CF0A7
:1012300056C0C301B2010E94532E860E971E081598
:1012400019050CF04CC0E981FA810E0F1F1F6017C1
:1012500071070CF044C080E090E0A0E0B0E0ED81C8
:10126000FE8180879187A287B38784879587A68729
:10127000B78780E090E0A8ECB2EC80839183A283F2
:10128000B38384839583A683B78331C0AD81BE8148
:1012900050968D909C905197EB81FC81AE16BF06C5
:1012A0000CF4A4CF6D917D918D919C910E94532E51
:1012B0005B016C01C301B2010E94532E9B01AC0182
:1012C000AD81BE815496ED90FC90559784E398E0F3
:1012D000B501A901940184010E943F2B08C0089424
:1012E000A11CB11CE8E0F0E0CE0EDF1ECFCF2696A9
:1012F0000FB6F894DEBF0FBECDBFCF91DF911F9127
:101300000F91FF90EF90DF90CF90BF90AF909F90A4
:101310008F907F906F905F904F903F902F900895A7
:101320006F927F928F929F92AF92BF92CF92DF92F5
:10133000EF92FF920F931F93CF93DF9382E090E0A1
:1013400090932708809326080E949A1E3B014C0127
:1013500084E398E060E00E94692984E398E060E219
:1013600070E042E350E00E945D2984E398E060E091
:1013700070E00E94632984E398E060E072E00E94DC
:10138000142684E398E066E170E04EE450E024E542
:1013900030E000E110E0EE24FF240E943F2B84E3C4
:1013A00098E066E170E046E650E024E530E0EE24A7
:1013B000EA94FE2C0E943F2B84E398E06EE270E0FA
:1013C00042E550E00E945D2984E398E06FEF7FEFF3
:1013D0000E94632984E398E06CE072E00E94142686
:1013E00084E398E06CE170E04AE650E00E945D29F9
:1013F00084E398E060E070E00E94632984E398E071
:1014000063E172E00E94142668EC70E080E090E0F6
:101410000E94A81E0E949A1E5B016C01C2E0D0E0EF
:101420000E949A1EDC01CB018A199B09AC09BD09F7
:101430000E948E04209168043091690423303105A4
:101440000CF44FC08091260890912708892B09F44D
:1014500048C084E398E066E170E04EE450E024E5A3
:1014600030E000E110E0EE24EA94FE2C0E943F2BD5
:1014700084E398E066E170E046E650E024E530E081
:10148000EE24FF240E943F2B84E398E06EE270E09C
:1014900042E550E00E945D2984E398E060E070E05E
:1014A0000E94632984E398E06CE072E00E941426B5
:1014B00084E398E06CE170E04AE650E00E945D2928
:1014C00084E398E06FEF7FEF0E94632984E398E064
:1014D00063E172E00E9414261092270810922608F9
:1014E00052C02E5F3F4F0CF04EC080912608909165
:1014F0002708029709F447C084E398E066E170E0AA
:1015000046E650E024E530E000E110E0EE24EA9405
:10151000FE2C0E943F2B84E398E066E170E04EE4ED
:1015200050E024E530E0EE24FF240E943F2B84E3CA
:1015300098E06EE270E042E550E00E945D2984E3AD
:1015400098E06FEF7FEF0E94632984E398E06CE0FE
:1015500072E00E94142684E398E06CE170E04AE6B1
:1015600050E00E945D2984E398E060E070E00E9412
:10157000632984E398E063E172E00E941426D0932B
:101580002708C093260882E00E947D20892B09F05D
:1015900047CF8091260890912708029709F0FEC056
:1015A00084E398E060E04FEF2FEF0E94B72BBC017F
:1015B00084E398E00E94242B60914A0470914B04CC
:1015C00080914C0490914D040E94532E5B016C015C
:1015D00060914E0470914F04809150049091510499
:1015E0000E94532E9B01AC01E0905204F0905304F2
:1015F00084E398E0B501A90128E030E008E010E0BC
:101600000E943F2B609138067091390680913A060E
:1016100090913B060E94532E5B016C0160913C0649
:1016200070913D0680913E0690913F060E94532E98
:101630009B01AC01E0904006F090410684E398E005
:10164000B501A90128E030E00E943F2B84E398E037
:1016500060E070E040E050E020E830E00AE010E0B8
:10166000EE24EA94FE2C0E943F2B84E398E060E095
:1016700070E046E950E020E830E00E943F2B2091E6
:1016800044063091450684E398E060E070E040E075
:1016900050E005E010E0FFE1EF2EF12C0E943F2B1F
:1016A000209156043091570484E398E060E070E0A4
:1016B0004BE950E0E12CE8EFFE2E0E943F2BE09139
:1016C0004804F0914904EE0FFF1FE650FC4F608183
:1016D000718180910404909105040E9479060E9412
:1016E0009A1E6619770920915E0430915F0440913B
:1016F0006004509161042F3F8FEF38078FEF480748
:101700008FEF580789F0CB01AA2797FDA095BA2F34
:10171000820F931FA41FB51F80935E0490935F04F4
:10172000A0936004B093610420914C0630914D0663
:1017300040914E0650914F062F3F8FEF38078FEFA5
:1017400048078FEF580789F0CB01AA2797FDA0958E
:10175000BA2F820F931FA41FB51F80934C0690933E
:101760004D06A0934E06B0934F06CB01AA2797FDD6
:10177000A095BA2F209128083091290840912A0875
:1017800050912B08820F931FA41FB51F8093280828
:1017900090932908A0932A08B0932B08DF91CF914A
:1017A0001F910F91FF90EF90DF90CF90BF90AF907F
:1017B0009F908F907F906F900895AF92BF92CF923D
:1017C000DF92EF92FF920F931F9384E398E060E023
:1017D00070E00E94242B84E398E061E00E94692974
:1017E00084E398E060E070E040E050E00E945D2912
:1017F00084E398E06FEF7FEF0E94632984E398E031
:1018000060E272E00E9414260E949A1E5B016C0145
:101810000E949A1E7B018C01DC01CB018A199B0975
:10182000AC09BD090E948E0482E00E947D20570110
:101830006801892B69F710922708109226081F91DA
:101840000F91FF90EF90DF90CF90BF90AF900895F1
:101850002F923F924F925F926F927F928F929F92C0
:10186000AF92BF92CF92DF92EF92FF920F931F93AE
:10187000CF93DF93CAE4D4E000E010E0B1E02B2E78
:10188000312C44244A94542C32010F2EF0E08F2E38
:10189000F0E09F2EF0E0AF2EF0E0BF2EF02D0F2EE7
:1018A000F0E0CF2EF0E0DF2EF8ECEF2EF2ECFF2E82
:1018B000F02D80E090E0A8E7B2E488839983AA83C2
:1018C000BB83A0E8B0E0BD87AC873F862E86398A0F
:1018D000288A84E690E09B8B8A8B4C8A5D8A6E8A8C
:1018E0007F8A0E949A1E688F798F8A8F9B8FAEEEB7
:1018F000B1E00A9FF0010B9FF00D1A9FF00D11242B
:10190000E058FB4F80E090E080869186A286B38607
:1019100084869586A686B786C482D582E682F782BB
:10192000C082D182E282F38201967696843191055B
:1019300059F70F5F1F4FC251DE4F0230110509F0FA
:10194000B8CF80E090E0ACEEB2E480934E04909388
:101950004F04A0935004B093510480E090E0A8E1BC
:10196000B2E480933C0690933D06A0933E06B0936C
:101970003F0680E098EFA0E0B0E08093520490939F
:101980005304A0935404B09355048FE190E0A0E079
:10199000B0E08093400690934106A0934206B09336
:1019A000430684E398E060E04FEF2FEF0E94B72BEF
:1019B000BC0184E398E00E94242B8091480490911C
:1019C000490482309105A1F0833091052CF40097F1
:1019D00049F00197C9F409C08330910561F004977B
:1019E00099F40CC082EB92E00BC082ED92E008C04B
:1019F00082E193E005C082E693E002C082ED93E0CD
:101A00009093050480930404E0914804F091490404
:101A1000EE0FFF1FE650FC4F60817181809104043E
:101A2000909105040E94790660914A0470914B04DC
:101A300080914C0490914D040E94532E5B016C01E7
:101A400060914E0470914F04809150049091510424
:101A50000E94532E9B01AC01E0905204F09053047D
:101A600084E398E0B501A90128E030E008E010E047
:101A70000E943F2B609138067091390680913A069A
:101A800090913B060E94532E5B016C0160913C06D5
:101A900070913D0680913E0690913F060E94532E24
:101AA0009B01AC01E0904006F090410684E398E091
:101AB000B501A90128E030E00E943F2B84E398E0C3
:101AC00060E070E040E050E020E830E00AE010E044
:101AD000EE24EA94FE2C0E943F2B84E398E060E021
:101AE00070E046E950E020E830E00E943F2B209172
:101AF00044063091450684E398E060E070E040E001
:101B000050E005E010E0EFE1EE2EF12C0E943F2BBB
:101B1000209156043091570484E398E060E070E02F
:101B20004BE950E0E12CB8EFFB2E0E943F2B84E301
:101B300098E068E370E044E450E024E130E004E140
:101B400010E0EE24FF240E943F2B84E398E060E045
:101B50004FEF2FEF0E94B72B7C0184E398E068E3FE
:101B600070E048E450E020E130E004E010E00E9442
:101B70003F2B84E398E060E04FEF2FEF0E94B72BFC
:101B80007C0184E398E068E370E040E550E020E108
:101B900030E00E943F2B68EE73E080E090E00E940E
:101BA000A81E84E398E068E370E044E450E024E198
:101BB00030E004E110E0EE24FF240E943F2B84E398
:101BC00098E060E04FEF2FEF0E94B72B7C0184E399
:101BD00098E068E370E048E450E020E130E004E0A1
:101BE00010E00E943F2B84E398E060E04FEF2FEF7E
:101BF0000E94B72B7C0184E398E06CE370E040E541
:101C000050E020E130E00E943F2B68EE73E080E07E
:101C100090E00E94A81E84E398E060E04FEF2FEF71
:101C20000E94B72B7C0184E398E068E370E044E411
:101C300050E024E130E004E110E00E943F2B84E317
:101C400098E060E470E044E450E024E030E0EE240A
:101C5000FF240E943F2B68EE73E080E090E00E943A
:101C6000A81E84E398E060E04FEF2FEF0E94B72BAF
:101C70007C0184E398E060E470E044E450E024E018
:101C800030E00E943F2B84E398E06CE270E040E497
:101C900050E024E130E0EE24FF240E943F2B84E357
:101CA00098E060E04FEF2FEF0E94B72B7C0184E3B8
:101CB00098E060E370E044E450E020E130E004E0CC
:101CC00010E00E943F2B84E398E060E04FEF2FEF9D
:101CD0000E94B72B7C0184E398E060E370E048E465
:101CE00050E024E030E008E010E00E943F2B84E365
:101CF00098E060E04FEF2FEF0E94B72B7C0184E368
:101D000098E064E370E04CE450E028E030E004E068
:101D100010E00E943F2B84E398E064E470E040E42C
:101D200050E024E130E004E110E0EE24FF240E94C2
:101D30003F2B84E398E060E04FEF2FEF0E94B72B3A
:101D40007C0184E398E068E470E044E450E02CE037
:101D500030E00CE010E00E943F2B6CE271E080E08C
:101D600090E00E94A81E84E398E060E04FEF2FEF20
:101D70000E94B72B7C0184E398E068E270E040E4C5
:101D800050E022E430E004E110E00E943F2BE091BB
:101D90004804F0914904EE0FFF1FE650FC4F6081AC
:101DA000718180910404909105040E9479060E943B
:101DB0009A1E609328087093290880932A089093AC
:101DC0002B08109233081092320882E090E0909332
:101DD000270880932608DF91CF911F910F91FF90E4
:101DE000EF90DF90CF90BF90AF909F908F907F90BB
:101DF0006F905F904F903F902F9008958F929F9299
:101E0000AF92BF92CF92DF92EF92FF920F931F9308
:101E100084E398E060E070E00E94242B84E398E083
:101E200060E270E048E150E00E945D2984E398E0C0
:101E30006FEF7FEF0E94632984E398E06AE372E02A
:101E40000E94142684E398E066E170E040E250E0EE
:101E500024E530E000E110E0EE24EA94FE2C0E943C
:101E60003F2B84E398E066E170E048E350E024E52E
:101E700030E00E943A2784E398E066E170E040E5B4
:101E800050E024E530E00E943A2784E398E066E1E0
:101E900070E048E650E024E530E00E943A2784E311
:101EA00098E066E170E040E850E024E530E00E9410
:101EB0003A2784E398E060E00E94692984E398E08F
:101EC0006EE270E044E250E00E945D2984E398E015
:101ED00060E070E00E94632984E398E065E472E0CA
:101EE0000E94142684E398E061E370E04CE350E044
:101EF0000E945D2984E398E06FEF7FEF0E946329E1
:101F000084E398E06CE472E00E94142684E398E095
:101F100061E370E044E550E00E945D2984E398E0CD
:101F20006FEF7FEF0E94632984E398E062E572E03F
:101F30000E94142684E398E06EE270E04CE650E0E4
:101F40000E945D2984E398E06FEF7FEF0E94632990
:101F500084E398E068E572E00E94142684E398E048
:101F600062E270E044E850E00E945D2984E398E07A
:101F70006FEF7FEF0E94632984E398E06FE572E0E2
:101F80000E9414260E949A1E6B017C0100E010E062
:101F90000E949A1E4B015C01DC01CB018C199D094A
:101FA000AE09BF090E948E04809168049091690473
:101FB0002FEF8E3F92070CF05DC00130110509F044
:101FC00059C084E398E066E170E040E250E024E527
:101FD00030E000E110E0EE24EA94FE2C0E943F2B5A
:101FE00084E398E066E170E048E350E024E530E007
:101FF000EE24FF240E943F2B84E398E066E170E02A
:1020000048E350E024E530E0EE24EA94FE2C0E9400
:102010003A2784E398E06EE270E044E250E00E94E8
:102020005D2984E398E060E070E00E94632984E326
:1020300098E065E472E00E94142684E398E061E38E
:1020400070E04CE350E00E945D2984E398E06FEF7C
:102050007FEF0E94632984E398E06CE472E00E94C1
:10206000142668EC70E080E090E00E94A81E00E07A
:1020700010E015C2833091051CF00115110549F0DF
:102080002FEF8E3F92070CF087C00230110509F048
:1020900083C084E398E066E170E040E250E024E52C
:1020A00030E000E110E0EE24FF240E943F2B84E3A7
:1020B00098E066E170E040E250E024E530E0EE2494
:1020C000EA94FE2C0E943A2784E398E066E170E0EF
:1020D00048E350E024E530E00E943F2B84E398E0A1
:1020E00066E170E040E550E024E530E0EE24FF24B6
:1020F0000E943F2B84E398E066E170E040E550E009
:1021000024E530E0EE24EA94FE2C0E943A2784E392
:1021100098E06EE270E044E250E00E945D2984E3C2
:1021200098E06FEF7FEF0E94632984E398E065E415
:1021300072E00E94142684E398E061E370E04CE3CF
:1021400050E00E945D2984E398E060E070E00E9426
:10215000632984E398E06CE472E00E94142684E32F
:1021600098E061E370E044E550E00E945D2984E37B
:1021700098E06FEF7FEF0E94632984E398E062E5C7
:1021800072E00E94142668EC70E080E090E00E940B
:10219000A81E01E010E083C1833091051CF00130DE
:1021A000110549F02FEF8E3F92070CF087C00330E6
:1021B000110509F083C084E398E066E170E048E32C
:1021C00050E024E530E000E110E0EE24FF240E941E
:1021D0003F2B84E398E066E170E048E350E024E5BB
:1021E00030E0EE24EA94FE2C0E943A2784E398E043
:1021F00066E170E040E550E024E530E00E943F2BCE
:1022000084E398E066E170E048E650E024E530E0E1
:10221000EE24FF240E943F2B84E398E066E170E007
:1022200048E650E024E530E0EE24EA94FE2C0E94DB
:102230003A2784E398E061E370E04CE350E00E94C9
:102240005D2984E398E06FEF7FEF0E94632984E3C8
:1022500098E06CE472E00E94142684E398E061E365
:1022600070E044E550E00E945D2984E398E060E07E
:1022700070E00E94632984E398E062E572E00E94C6
:10228000142684E398E06EE270E04CE650E00E9491
:102290005D2984E398E06FEF7FEF0E94632984E378
:1022A00098E068E572E00E94142668EC70E080E037
:1022B00090E00E94A81E02E010E0F1C0833091057A
:1022C0001CF00230110549F02FEF8E3F92070CF001
:1022D00087C00430110509F083C084E398E066E10B
:1022E00070E040E550E024E530E000E110E0EE244D
:1022F000FF240E943F2B84E398E066E170E040E514
:1023000050E024E530E0EE24EA94FE2C0E943A27C7
:1023100084E398E066E170E048E650E024E530E0D0
:102320000E943F2B84E398E066E170E040E850E0D3
:1023300024E530E0EE24FF240E943F2B84E398E064
:1023400066E170E040E850E024E530E0EE24EA94F5
:10235000FE2C0E943A2784E398E061E370E044E5B4
:1023600050E00E945D2984E398E06FEF7FEF0E94C8
:10237000632984E398E062E572E00E94142684E316
:1023800098E06EE270E04CE650E00E945D2984E344
:1023900098E060E070E00E94632984E398E068E5DB
:1023A00072E00E94142684E398E062E270E044E860
:1023B00050E00E945D2984E398E06FEF7FEF0E9478
:1023C000632984E398E06FE572E00E94142668ECCC
:1023D00070E080E090E00E94A81E03E010E05FC083
:1023E00003970CF45CC00330110509F058C084E376
:1023F00098E066E170E040E850E024E530E000E17C
:1024000010E0EE24EA94FE2C0E943F2B84E398E037
:1024100066E170E048E650E024E530E0EE24FF2479
:102420000E943F2B84E398E066E170E048E650E0CC
:1024300024E530E0EE24EA94FE2C0E943A2784E35F
:1024400098E06EE270E04CE650E00E945D2984E383
:1024500098E06FEF7FEF0E94632984E398E068E5DE
:1024600072E00E94142684E398E062E270E044E89F
:1024700050E00E945D2984E398E060E070E00E94F3
:10248000632984E398E06FE572E00E94142668EC0B
:1024900070E080E090E00E94A81E04E010E082E07E
:1024A0000E947D2075016401892B09F071CD109384
:1024B0004904009348040E94280C1F910F91FF903B
:1024C000EF90DF90CF90BF90AF909F908F90089546
:1024D000AF92BF92CF92DF92EF92FF920F931F9332
:1024E0008C0184E398E060E00E94692984E398E02D
:1024F00066E270E048E250E00E945D2984E398E0E3
:1025000060E070E00E94632984E398E06BE672E08B
:102510000E94142684E398E067E170E04CE350E009
:102520000E945D2984E398E066E772E00E94142629
:102530000F5F1F4F84E398E0B8014AE050E00E942B
:10254000012684E398E06EE772E00E94142684E39B
:1025500098E066E170E04EE450E024E530E000E110
:1025600010E0EE24FF240E943F2B84E398E066E114
:1025700070E046E650E024E530E0EE24EA94FE2CDC
:102580000E943F2B84E398E068E270E042E550E06F
:102590000E945D2984E398E06FEF7FEF0E9463293A
:1025A00084E398E065E872E00E94142684E398E0F2
:1025B0006CE170E04AE650E00E945D2984E398E017
:1025C00060E070E00E94632984E398E063E172E0D8
:1025D0000E94142684E398E060E070E040E950E057
:1025E00020E830E0EE24FF240E943F2B84E398E0B3
:1025F00065E070E044E950E00E945D2984E398E0E2
:102600006FEF7FEF0E94632984E398E06EE872E049
:102610000E94142684E398E060E078EF0E9463292A
:1026200084E398E065E972E00E94142660917E04DC
:1026300070917F0484E398E04AE050E00E94012614
:1026400084E398E06FE170E00E94632984E398E0FE
:1026500069E972E00E94142660916C0670916D0623
:1026600084E398E04AE050E00E9401260E949A1E0E
:102670005B016C0101E010E00E949A1EDC01CB01BD
:102680008A199B09AC09BD090E948E0480916804D7
:1026900090916904833091050CF44AC0011511052D
:1026A00009F446C084E398E066E170E04EE450E04F
:1026B00024E530E000E110E0EE24EA94FE2C0E94D4
:1026C0003F2B84E398E066E170E046E650E024E5C5
:1026D00030E0EE24FF240E943F2B84E398E068E280
:1026E00070E042E550E00E945D2984E398E060E0FC
:1026F00070E00E94632984E398E065E872E00E943C
:10270000142684E398E06CE170E04AE650E00E9411
:102710005D2984E398E06FEF7FEF0E94632984E3F3
:1027200098E063E172E00E94142600E010E04DC0E2
:102730008E5F9F4F0CF049C00130110509F445C070
:1027400084E398E066E170E046E650E024E530E09E
:1027500000E110E0EE24EA94FE2C0E943F2B84E37B
:1027600098E066E170E04EE450E024E530E0EE24CD
:10277000FF240E943F2B84E398E068E270E042E58A
:1027800050E00E945D2984E398E06FEF7FEF0E94A4
:10279000632984E398E065E872E00E94142684E3EC
:1027A00098E06CE170E04AE650E00E945D2984E325
:1027B00098E060E070E00E94632984E398E063E1C0
:1027C00072E00E94142601E010E082E00E947D2069
:1027D000892B09F051CF012B29F410922708109270
:1027E000260802C00E94FE0E1F910F91FF90EF90ED
:1027F000DF90CF90BF90AF900895AF92BF92CF92ED
:10280000DF92EF92FF920F931F93CF93DF9384E3B6
:1028100098E060E070E00E94242B84E398E06CE094
:1028200070E040E250E024E030E008E110E0E12C0C
:10283000F8EFFF2E0E943F2B84E398E060E170E008
:1028400040E250E024E030E004E010E00E943F2B42
:1028500084E398E064E170E044E250E024E030E09A
:102860000E943F2B84E398E060E170E048E250E092
:1028700024E030E00E943F2B84E398E06CE170E0BC
:102880004CE250E024E030E0EE24EA94FE2C0E947A
:102890003F2B84E398E06EE170E040E350E024E0F9
:1028A00030E00E943F2B84E398E060E270E044E374
:1028B00050E024E030E00E943F2B84E398E062E2A5
:1028C00070E040E350E024E030E00E943F2B84E3DE
:1028D00098E064E270E04CE250E024E030E00E94D6
:1028E0003F2B84E398E060E370E040E250E024E0B6
:1028F00030E008E110E0EFE1EE2EF12C0E943F2BDA
:1029000084E398E064E370E040E250E024E030E0EB
:1029100004E010E00E943F2B84E398E068E370E05D
:1029200044E250E024E030E00E943F2B84E398E052
:1029300064E370E048E250E024E030E00E943F2B86
:1029400084E398E060E470E04CE250E02CE030E09A
:102950000CE010E0EE24EA94FE2C0E943F2B84E36E
:1029600098E064E470E04CE250E024E030E008E0FD
:1029700010E0EE24FF240E943F2B84E398E060E502
:1029800070E044E250E024E030E004E010E0EE24A7
:10299000EA94FE2C0E943F2B84E398E060E570E00F
:1029A0004CE250E024E030E00CE010E00E943F2BCD
:1029B00084E398E068E570E04AE250E024E030E02B
:1029C00002E010E00E943F2B84E398E068E570E0AD
:1029D0004CE250E02CE030E00CE010E00E943F2B95
:1029E00084E398E06CE570E040E350E024E030E000
:1029F00008E010E0EE24FF240E943F2B84E398E0DF
:102A000068E670E04CE250E02CE030E00CE010E0D2
:102A1000EE24EA94FE2C0E943F2B84E398E06CE6BF
:102A200070E040E350E024E030E004E010E0EE2409
:102A3000FF240E943F2B84E398E066E170E04EE4BF
:102A400050E024E530E000E110E0EE24EA94FE2CB2
:102A50000E943F2B84E398E066E170E046E650E098
:102A600024E530E00E943A2784E398E060E00E9489
:102A7000692984E398E062E370E042E550E00E9457
:102A80005D2984E398E060E070E00E94632984E3BC
:102A900098E06FE972E00E94142684E398E06CE10C
:102AA00070E04AE650E00E945D2984E398E06FEF11
:102AB0007FEF0E94632984E398E065EA72E00E9458
:102AC00014260E949A1E7B018C01C1E0D0E00E9476
:102AD0009A1E5B016C01DC01CB018E199F09A00BD2
:102AE000B10B0E948E048091680490916904833038
:102AF00091050CF453C0209709F450C084E398E08A
:102B000066E170E04EE450E024E530E000E110E0E2
:102B1000EE24FF240E943F2B84E398E066E170E0FE
:102B20004EE450E024E530E0EE24EA94FE2C0E94CE
:102B30003A2784E398E066E170E046E650E024E559
:102B400030E00E943F2B84E398E062E370E042E5CE
:102B500050E00E945D2984E398E06FEF7FEF0E94D0
:102B6000632984E398E06FE972E00E94142684E30D
:102B700098E06CE170E04AE650E00E945D2984E351
:102B800098E060E070E00E94632984E398E065EAE1
:102B900072E00E941426C0E0D0E057C08E5F9F4FC5
:102BA0000CF053C0C130D10509F44FC084E398E064
:102BB00066E170E046E650E024E530E000E110E038
:102BC000EE24FF240E943F2B84E398E066E170E04E
:102BD00046E650E024E530E0EE24EA94FE2C0E9424
:102BE0003A2784E398E066E170E04EE450E024E5A3
:102BF00030E00E943F2B84E398E062E370E042E51E
:102C000050E00E945D2984E398E060E070E00E945B
:102C1000632984E398E06FE972E00E94142684E35C
:102C200098E06CE170E04AE650E00E945D2984E3A0
:102C300098E06FEF7FEF0E94632984E398E065EAF4
:102C400072E00E941426C1E0D0E082E00E947D2064
:102C500086017501892B09F03ACFCD2B39F481E03B
:102C600090E0909327088093260802C00E94FE0EF1
:102C7000DF91CF911F910F91FF90EF90DF90CF9058
:102C8000BF90AF900895EF92FF920F931F93CF9351
:102C9000DF93EC018885998581309105D9F08230E8
:102CA00091051CF4892B41F05EC08230910501F141
:102CB000039709F058C02BC06C817D814E815F81E4
:102CC00084E398E028E030E008E010E0E12CF8EF41
:102CD000FF2E2BC06C817D814E815F8184E398E063
:102CE00028E030E008E010E0EFE1EE2EF12C1DC00E
:102CF0006C817D814E815F8184E398E028E030E043
:102D000008E010E0B0EEEB2EBFEFFB2E0EC06C81A2
:102D10007D814E815F8184E398E028E030E008E027
:102D200010E0A0EEEA2EA7E0FA2E0E943A276C816E
:102D30007D814E815F814D5F5F4F84E398E028E0A5
:102D400030E002E010E00E943F2B6C817D816D5FDE
:102D50007F4F4E815F8184E398E022E030E008E01D
:102D600010E00E943F2BDF91CF911F910F91FF90B8
:102D7000EF9008958F929F92AF92BF92CF92DF9281
:102D8000EF92FF920F931F93CF93DF93EC010E947A
:102D90009A1E288139814A815B81621B730B840BE7
:102DA000950B695873418040904008F47AC08A8539
:102DB0009B85892B09F075C081E090E00E948A050F
:102DC000611571058105910509F46BC087E090E0FC
:102DD0000E948A057B0187E090E00E948A058B01B2
:102DE000E0914804F0914904EE0FFF1FE650FC4FBC
:102DF000C080D180A0910404B091050480E090E0EF
:102E000038E0832E912C8E0C9F1C28E0A22EB12C32
:102E1000A00EB11E20C01696ED91FC911797149646
:102E20006D917C91159712964D915C9113972D9110
:102E30003C91119728153905E4F5260F371FE21646
:102E4000F306BCF54A155B05A4F54E0F5F1F04178A
:102E500015073CF12EC08C159D05ECF28C159D05D7
:102E600001F5B7016937710514F068E770E07D83FB
:102E70006C830A3011051CF46AE070E006C0B801EA
:102E80000F38110514F06EE870E07F836E8382E0E6
:102E900090E00E948A057987688781E090E09B87AF
:102EA0008A878A859B85892B39F0CE010E9443163B
:102EB00003C001961896CFCFDF91CF911F910F914C
:102EC000FF90EF90DF90CF90BF90AF909F908F904A
:102ED00008952F923F924F925F926F927F928F92BE
:102EE0009F92AF92BF92CF92DF92EF92FF920F9399
:102EF0001F93DF93CF93CDB7DEB72A970FB6F89421
:102F0000DEBF0FBECDBF3B0158874F834901DB01B8
:102F10009A968D919C919B9798962D913C9199971B
:102F2000FB01FE96FA87E9871E821D825C01CC2494
:102F3000B7FCC094DC2C79010027F7FC0095102F1A
:102F4000A985BA856D917D918D919C9120E030E0AD
:102F500040E050E00E94E72D882309F004C1C6013B
:102F6000B5010E94862E1B012C01C801B7010E94E9
:102F7000862E69837A838B839C83E985FA856481B5
:102F800075818681978120E030E040E050E00E942A
:102F9000E72D882309F0E7C086E190E02D813E818E
:102FA000289F8001299F100D389F100D1124060DB8
:102FB000171D0A5B1F4FD801EF81F885ED93FD9334
:102FC0008D929D928D01F301808591858D939C93C7
:102FD0000A541040608171818281938120E030E049
:102FE00040E850E40E94832D4B015C012F8138851D
:102FF000B901882777FD8095982F0E94862E20E0C2
:1030000030E040E05FEB0E943A2F6B017C01C5018C
:10301000B401A70196010E94832DD801D6966D9325
:103020007D938D939C93D997F301648175818681FB
:10303000978120E030E040E850E40E94832DA70112
:1030400096010E94832DD801DA966D937D938D931E
:103050009C93DD97C201B101A20191010E943A2F18
:103060007B018C0169817A818B819C819B01AC0100
:103070000E943A2F9B01AC01C801B7010E94832D29
:103080007B018C0120E030E040E050E00E94362FD0
:10309000181624F017FB109517F91095C801B70101
:1030A0000E94A12F5B016C0186E190E0ED81FE8121
:1030B000E89F7001E99FF00CF89FF00C1124E60CDA
:1030C000F71C2EE330E0E20EF31EC201B101A601AF
:1030D00095010E94EB2D20E030E040E05EE30E948D
:1030E0003A2FD7016D937D938D939D937D016981D7
:1030F0007A818B819C81A60195010E94EB2D20E0B5
:1031000030E040E05EE30E943A2FF7016193719353
:10311000819391937F01008111812AEB3FEFE20EB1
:10312000F31ED701D6966D917D918D919C91D99783
:103130000E94532E5B016C01F70162AD73AD84AD4B
:1031400095AD0E94532E9B01AC0184E398E0B5013C
:10315000A9019801E0EEEE2EE7E0FE2E0E943F2B43
:1031600021E030E012C02D813E812F5F3F4F3E8332
:103170002D8349855A854A5E5F4F5A874987243196
:10318000310509F0DDCE20E030E0C9012A960FB606
:10319000F894DEBF0FBECDBFCF91DF911F910F918D
:1031A000FF90EF90DF90CF90BF90AF909F908F9067
:1031B0007F906F905F904F903F902F900895AF92C7
:1031C000BF92CF92DF92EF92FF920F931F93CF9314
:1031D000DF935C01EB018AA59BA597FF03C0909547
:1031E00081959F4F03974CF488A599A597FF03C03D
:1031F000909581959F4F03975CF10E949A1E288DB0
:10320000398D4A8D5B8D621B730B840B950B2A895C
:103210003B89442737FD4095542F26173707480729
:103220005907B0F4888999899C01220F331F220F16
:10323000331F280F391FC501BE0142E050E00E9434
:1032400069177C010E949A1E688F798F8A8F9B8FE5
:1032500000E010E0F6E1CF2ED12C0C9DB0010D9DC9
:10326000700D1C9D700D11246A5C7F4F6C0F7D1FCB
:10327000C5010E9466080F5F1F4F0431110569F7F1
:10328000EF28E1F0688179818A819B810E94532E29
:103290005B016C016C817D818E819F810E94532E28
:1032A0009B01AC01E884F98484E398E0B501A901AD
:1032B00028E030E008E010E00E943F2BDF91CF9142
:1032C0001F910F91FF90EF90DF90CF90BF90AF9044
:1032D0000895AF92BF92CF92DF92EF92FF920F9339
:1032E0001F93CF93DF93EC010E949A1E9B01AC01C8
:1032F0006C897D898E899F896F3FEFEF7E07EFEFA5
:103300008E07EFEF9E0709F47DC0261B370BF3E114
:1033100029383F079CF081E090E09F878E87998B4A
:10332000888B84E690E09B8B8A8B8FEF9FEFAFEFCB
:10333000BFEF8C8B9D8BAE8BBF8B64C000D00F9288
:10334000B901882777FD8095982F20E830E040E08C
:1033500050E0EDB7FEB7218332834383548320E0EE
:1033600030E040E050E008E8E02E03E1F02E012DCF
:10337000112DAA24BB2465010E94172610E8C12E36
:10338000D12CC61AD70A0F900F900F900F908885F6
:103390009985AA85BB858050984FA040B040B1F474
:1033A00084E398E060E070E046E950E020E830E037
:1033B00005E010E0EE24EA94FE2C0E943F2B84E30B
:1033C00098E060E070E046E950E015C084E398E0E2
:1033D00060E070E045E050E020E830E005E010E01B
:1033E000EE24EA94FE2C0E943F2B84E398E060E0F8
:1033F00070E045E050E09601B0EEEB2EBFEFFB2E03
:103400000E943F2BDF91CF911F910F91FF90EF9082
:10341000DF90CF90BF90AF9008952F923F924F9240
:103420005F926F927F928F929F92AF92BF92CF9254
:10343000DF92EF92FF920F931F93DF93CF93CDB75D
:10344000DEB7AE970FB6F894DEBF0FBECDBF7CA33C
:103450006BA3DB018D919D910D90BC91A02D8F8769
:10346000988BA98BBA8BDB0114968D919D910D9051
:10347000BC91A02D8B879C87AD87BE87FB01068CF6
:10348000F78DE02DFAA3E9A333970CF4B2C0E091D5
:103490004804F0914904EE0FFF1FE650FC4F2081D5
:1034A000318138A32F8F80910404909105049EA749
:1034B0008DA71C8E1B8E94C0ADA5BEA514960D9035
:1034C000BC91A02DBE8BAD8BEDA5FEA5A080B180DB
:1034D00006811781C280D3806B857C858D859E8512
:1034E00020E030E040E051E40E94832D1B012C01DC
:1034F000ABA1BCA194966D907D908D909C90979778
:10350000B601882777FD8095982F0E94862EA4010A
:1035100093010E94822D9B01AC01C201B1010E9466
:10352000362F18160CF052C00C0D1D1DB80188273F
:1035300077FD8095982F0E94862EA40193010E940A
:10354000822D9B01AC01C201B1010E94E72D8823AD
:103550000CF03CC06F85788989899A8920E030E039
:1035600040E051E40E94832D7B018C01B501882746
:1035700077FD8095982F0E94862E9B01AC01C80193
:10358000B7010E94362F18160CF5ED89FE89AE0E94
:10359000BF1EB501882777FD8095982F0E94862E43
:1035A0009B01AC016F85788989899A890E94E72DF2
:1035B000882364F428EF3FEFC20ED31EB60188279C
:1035C00077FD8095982F0E94862E9BC28B8D9C8DB7
:1035D00001969C8F8B8FADA5BEA51896BEA7ADA7F3
:1035E000EB8DFC8D2F8D38A1E217F3070CF464CF1F
:1035F0007CC22B843C844D845E8489A19AA18E5F19
:103600009F4F0CF09AC0E0914804F0914904EE0FEE
:10361000FF1FE650FC4F208131813A872987809136
:103620000404909105049EA78DA7882499247AC04C
:10363000ADA5BEA514966D907C901597CD90DC90AD
:1036400011971296AD90BC90139716966D917C9140
:1036500017976A0D7B1D882777FD8095982F0E940C
:10366000862E6DA37EA38FA398A7EBA1FCA1E4A057
:10367000F5A006A117A1A80197010E94822D9B0128
:10368000AC01C201B1010E94E72D88230CF041C0BA
:10369000B501882777FD8095982F0E94862EA80176
:1036A00097010E94822D9B01AC01C201B1010E94D1
:1036B000362F181674F56F85788989899A8920E0E4
:1036C00030E040E051E40E94832D7B018C01B60183
:1036D000882777FD8095982F0E94862E9B01AC014C
:1036E000C801B7010E94362F18169CF4C60CD71CCF
:1036F000B601882777FD8095982F0E94862E9B0122
:10370000AC016F85788989899A890E94E72D87FDA8
:1037100010C00894811C911C2DA53EA5285F3F4F29
:103720003EA72DA789859A85881699060CF480CF27
:10373000EBC12DA03EA04FA058A4ABA1BCA15C96AC
:103740000D90BC91A02DBE8FAD8F13970CF4B6C019
:10375000E0914804F0914904EE0FFF1FE650FC4F42
:103760002081318138872F83809104049091050452
:103770009EA78DA71A8E198E98C0ADA5BEA51496CA
:103780000D911C911597ED91FC911197FC8BEB8B92
:1037900016962D913C9117973C832B831296AD90F2
:1037A000BC9013976F85788989899A8920E030E0E9
:1037B00040E051E40E94832D6B017C01ABA1BCA1D0
:1037C00090966D907D908D909C909397EB89FC895D
:1037D000BF01882777FD8095982F0E94862EA4012F
:1037E00093010E94822D9B01AC01C701B6010E948A
:1037F000362F18160CF04EC02B893C89020F131F70
:10380000B801882777FD8095982F0E94862EA40105
:1038100093010E94822D9B01AC01C701B6010E9459
:10382000E72D8823BCF5C201B10120E030E040E083
:1038300051E40E94832D7B018C01B501882777FD1F
:103840008095982F0E94862E9B01AC01C801B7017C
:103850000E94362F1816F4F48B819C81A80EB91E95
:10386000B501882777FD8095982F0E94862E9B01B1
:10387000AC01C201B1010E94E72D88235CF4AB8941
:10388000BC891897BD01882777FD8095982F0E94E5
:10389000862E55C1E98DFA8D3196FA8FE98F2DA5C7
:1038A0003EA5285F3F4F3EA72DA7898D9A8DAF81FA
:1038B000B8858A179B070CF460CF35C16F84788870
:1038C00089889A88ED8DFE8DEE5FFF4F0CF099C0D0
:1038D000E0914804F0914904EE0FFF1FE650FC4FC1
:1038E000808191819E838D83A0910404B091050411
:1038F000BEA7ADA7188E1F8A77C0EDA5FEA5A08034
:10390000B180268137813A832983C280D380648144
:1039100075816A0D7B1D882777FD8095982F0E9401
:10392000862E69A77AA78BA79CA7ABA1BCA190966E
:10393000ED90FD900D911C919397A80197010E9425
:10394000822D9B01AC01C401B3010E94E72D8823A5
:103950000CF03FC0B501882777FD8095982F0E9415
:10396000862EA80197010E94822D9B01AC01C40103
:10397000B3010E94362F181664F5C201B10120E090
:1039800030E040E051E40E94832D7B018C01B601C0
:10399000882777FD8095982F0E94862E9B01AC0189
:1039A000C801B7010E94362F18169CF4E981FA81EC
:1039B000CE0EDF1EB601882777FD8095982F0E94D6
:1039C000862E9B01AC01C201B1010E94E72D87FD4B
:1039D00014C02F89388D2F5F3F4F388F2F8B8DA5C7
:1039E0009EA508969EA78DA7AF89B88DED81FE8113
:1039F000AE17BF070CF481CFA5C069A47AA48BA42D
:103A00009CA489A19AA197FF03C0909581959F4F8F
:103A100003974CF48D8D9E8D97FF03C090958195F3
:103A20009F4F0397E4F184E398E060E04FEF2FEFBE
:103A30000E94B72B7C016F85788989899A890E94B9
:103A4000532E5B016C016B857C858D859E850E9464
:103A5000532E9B01AC0184E398E0B501A90128E055
:103A600030E008E010E00E943F2BC401B3010E9447
:103A7000532E5B016C01C201B1010E94532E9B01C8
:103A8000AC01ABA1BCA11896ED90FC90199784E312
:103A900098E0B501A90128E030E00E943F2BEBA19E
:103AA000FCA1608271828282938224823582468266
:103AB0005782CF010E946919AE960FB6F894DEBF07
:103AC0000FBECDBFCF91DF911F910F91FF90EF906F
:103AD000DF90CF90BF90AF909F908F907F906F902E
:103AE0005F904F903F902F9008956B857C858D85DA
:103AF0009E85EBA1FCA124A135A146A157A10E945E
:103B0000832D1B012C0179CDC201B101ABA1BCA158
:103B100094962D913D914D915C9197970E94832DA4
:103B20001B012C010ACE6F85788989899A89EBA1BE
:103B3000FCA120A131A142A153A10E94832D3B01F0
:103B40004C01C0CEC401B301ABA1BCA190962D9194
:103B50003D914D915C9193970E94832D3B014C01C7
:103B600050CFEF92FF920F931F93CF93DF930E945A
:103B70009A1E7B018C018091600890916108E70199
:103B8000C81BD90BCE010E948E048091260890910B
:103B900027088130910581F0823091051CF4892B32
:103BA00041F079C08230910551F0039709F073C05C
:103BB00066C00E94FD1365C00E94DD0B62C0CE018D
:103BC0006AE474E00E940D1ACE0168E376E00E9478
:103BD0000D1ACE016AE474E00E94DF18CE0168E39A
:103BE00076E00E94DF188AE494E068E376E00E94C1
:103BF000AA0688E396E06AE474E00E94AA0688E2D6
:103C000098E00E94BA1682E00E947D20892B31F450
:103C100083E090E0909327088093260880914406E3
:103C200090914506181619066CF080917E049091CB
:103C30007F04019690937F0480937E0480E090E05F
:103C40000E94681280915604909157041816190624
:103C50006CF080916C0690916D06019690936D06C4
:103C600080936C0681E090E00E946812E092600808
:103C7000F092610800936208109363080CC00E94E0
:103C800090090E949A1E6093600870936108809367
:103C9000620890936308DF91CF911F910F91FF907D
:103CA000EF9008951F920F920FB60F9211242F9349
:103CB0003F938F939F93AF93BF93809168089091A8
:103CC0006908A0916A08B0916B0830916C08019660
:103CD000A11DB11D232F2D5F2D3720F02D570196EB
:103CE000A11DB11D20936C0880936808909369080A
:103CF000A0936A08B0936B0880916408909165085E
:103D0000A0916608B09167080196A11DB11D80932E
:103D1000640890936508A0936608B0936708BF9104
:103D2000AF919F918F913F912F910F900FBE0F9068
:103D30001F9018958FB7F894209168083091690802
:103D400040916A0850916B088FBFB901CA0108956C
:103D50009B01AC017FB7F89480916408909165084D
:103D6000A0916608B091670866B5A89B05C06F3F33
:103D700019F00196A11DB11D7FBFBA2FA92F982F51
:103D80008827860F911DA11DB11D62E0880F991F24
:103D9000AA1FBB1F6A95D1F7BC012DC0FFB7F894CD
:103DA0008091640890916508A0916608B0916708B9
:103DB000E6B5A89B05C0EF3F19F00196A11DB11D06
:103DC000FFBFBA2FA92F982F88278E0F911DA11DF5
:103DD000B11DE2E0880F991FAA1FBB1FEA95D1F71A
:103DE000861B970B885E9340C8F2215030404040BC
:103DF000504068517C4F211531054105510571F640
:103E00000895789484B5826084BD84B5816084BD52
:103E100085B5826085BD85B5816085BDEEE6F0E043
:103E2000808181608083E1E8F0E01082808182609F
:103E30008083808181608083E0E8F0E08081816020
:103E40008083E1EBF0E0808184608083E0EBF0E050
:103E5000808181608083E1E9F0E0808182608083FD
:103E6000808181608083E0E9F0E0808181608083EF
:103E7000E1EAF0E0808182608083808181608083DC
:103E8000E0EAF0E0808181608083E1E2F1E080811E
:103E900082608083808181608083E0E2F1E08081C4
:103EA00081608083EAE7F0E08081846080838081A4
:103EB000826080838081816080838081806880834C
:103EC0001092C1000895382F863308F036532091A0
:103ED0007B00832F86958695869590E08170907003
:103EE00043E0880F991F4A95E1F7277F282B2093FD
:103EF0007B003770809106048295880F880F807C44
:103F0000832B80937C0080917A00806480937A0078
:103F100080917A0086FDFCCF209178004091790055
:103F2000942F80E030E0282B392BC9010895CF93DE
:103F3000DF93482F50E0CA0188589E4FFC0134910E
:103F40004E5C5E4FFA018491882369F190E0880FFE
:103F5000991FFC01EC51FF4FA591B491FC01E25077
:103F6000FF4FC591D491662351F42FB7F8948C91EB
:103F7000932F909589238C93888189230BC062307D
:103F800061F42FB7F8948C91932F909589238C939B
:103F90008881832B88832FBF06C09FB7F8948C91AC
:103FA000832B8C939FBFDF91CF910895893009F4C3
:103FB00049C08A30A0F4843051F1853040F4823019
:103FC00079F1833000F5813009F063C026C0873075
:103FD00079F1883098F5863009F05BC025C08D30C6
:103FE00009F442C08E3028F48B30B1F18C30C0F52A
:103FF0002DC0803109F442C0813109F445C08F30B1
:1040000009F047C037C0809180008F7703C080914E
:1040100080008F7D80938000089584B58F7702C0E3
:1040200084B58F7D84BD08958091B0008F7703C0E3
:104030008091B0008F7D8093B000089580919000B2
:104040008F7707C0809190008F7D03C08091900092
:10405000877F8093900008958091A0008F7707C09C
:104060008091A0008F7D03C08091A000877F809306
:10407000A0000895809120018F7703C080912001D6
:104080008F7D80932001089580912001877F809308
:1040900020010895FF920F931F93F62E482F50E0B2
:1040A000CA0182549E4FFC012491CA0188589E4F38
:1040B000FC0114914E5C5E4FFA0104910023C9F09B
:1040C000222319F0822F0E94D61FE02FF0E0EE0F7E
:1040D000FF1FE250FF4FA591B4919FB7F894FF20C6
:1040E00021F48C911095812302C08C91812B8C93AB
:1040F0009FBF1F910F91FF9008950F931F93482F1B
:1041000050E0CA0182549E4FFC012491CA01885894
:104110009E4FFC0104914E5C5E4FFA0114911123F5
:1041200019F420E030E015C0222319F0822F0E94FC
:10413000D61F812F90E0880F991F885E9E4FFC014B
:10414000A591B4918C9120E030E0802311F021E022
:1041500030E0C9011F910F91089508951F920F92A9
:104160000FB60F920BB60F9211242F933F934F93DC
:104170008F939F93EF93FF934091C6002091AD08DA
:104180003091AE082F5F3F4F2F7330708091AF0892
:104190009091B0082817390759F0E091AD08F091D7
:1041A000AE08E359F74F40833093AE082093AD0833
:1041B000FF91EF919F918F914F913F912F910F9090
:1041C0000BBE0F900FBE0F901F90189508951F9271
:1041D0000F920FB60F920BB60F9211242F933F93AD
:1041E0004F938F939F93EF93FF934091CE00209135
:1041F0003509309136092F5F3F4F2F733070809112
:104200003709909138092817390759F0E091350995
:10421000F0913609EB50F74F4083309336092093E5
:104220003509FF91EF919F918F914F913F912F9180
:104230000F900BBE0F900FBE0F901F901895089512
:104240001F920F920FB60F920BB60F9211242F935D
:104250003F934F938F939F93EF93FF934091D6009B
:104260002091BD093091BE092F5F3F4F2F733070F1
:104270008091BF099091C0092817390759F0E09142
:10428000BD09F091BE09E358F64F40833093BE0953
:104290002093BD09FF91EF919F918F914F913F9195
:1042A0002F910F900BBE0F900FBE0F901F9018957F
:1042B00008951F920F920FB60F920BB60F92112412
:1042C0002F933F934F938F939F93EF93FF9340913F
:1042D00036012091450A3091460A2F5F3F4F2F73D8
:1042E00030708091470A9091480A2817390759F091
:1042F000E091450AF091460AEB5FF54F4083309319
:10430000460A2093450AFF91EF919F918F914F911B
:104310003F912F910F900BBE0F900FBE0F901F90EB
:104320001895E091990AF0919A0AE05CFF4F81910B
:10433000919120813181821B930B8F739070892B17
:1043400011F00E94AD20E091B80AF091B90AE05C4A
:10435000FF4F8191919120813181821B930B8F734B
:104360009070892B11F00E94E620E091D70AF0911D
:10437000D80AE05CFF4F8191919120813181821BAD
:10438000930B8F739070892B11F00E941F21E09185
:10439000F60AF091F70AE05CFF4F8191919120813C
:1043A0003181821B930B8F739070892B11F00E94C7
:1043B000582108951F920F920FB60F920BB60F92CD
:1043C00011242F933F938F939F93EF93FF9320910B
:1043D000F1083091F2088091F3089091F4082817C1
:1043E000390731F48091C1008F7D8093C10014C0E2
:1043F000E091F308F091F408EF54F74F2081809199
:10440000F3089091F40801968F7390709093F408DC
:104410008093F3082093C600FF91EF919F918F91B5
:104420003F912F910F900BBE0F900FBE0F901F90DA
:1044300018951F920F920FB60F920BB60F92112480
:104440002F933F938F939F93EF93FF93209179093D
:1044500030917A0980917B0990917C09281739075E
:1044600031F48091C9008F7D8093C90014C0E09120
:104470007B09F0917C09E75CF64F208180917B09F4
:1044800090917C0901968F73907090937C09809332
:104490007B092093CE00FF91EF919F918F913F91E7
:1044A0002F910F900BBE0F900FBE0F901F9018957D
:1044B0001F920F920FB60F920BB60F9211242F93EB
:1044C0003F938F939F93EF93FF932091010A309135
:1044D000020A8091030A9091040A2817390731F4DF
:1044E0008091D1008F7D8093D10014C0E091030AA8
:1044F000F091040AEF53F64F20818091030A9091C6
:10450000040A01968F7390709093040A8093030AB3
:104510002093D600FF91EF919F918F913F912F9122
:104520000F900BBE0F900FBE0F901F9018951F920B
:104530000F920FB60F920BB60F9211242F933F9349
:104540008F939F93EF93FF932091890A30918A0A6A
:1045500080918B0A90918C0A2817390731F4809149
:1045600031018F7D8093310114C0E0918B0AF0916D
:104570008C0AE75BF54F208180918B0A90918C0A21
:1045800001968F73907090938C0A80938B0A20937E
:104590003601FF91EF919F918F913F912F910F9055
:1045A0000BBE0F900FBE0F901F901895AF92BF9249
:1045B000DF92EF92FF920F931F93CF93DF93EC0163
:1045C0007A018B01DD24403081EE580780E06807D6
:1045D00080E0780711F0DD24D39491E0A92EB12C6E
:1045E000EC89FD89DD2069F0C5010E8C02C0880FC1
:1045F000991F0A94E2F7808360E079E08DE390E010
:1046000005C0108260E874E88EE190E0A80197018F
:104610000E943A30215030404040504056954795D6
:104620003795279580E12030380720F0DD2011F004
:10463000DD24D6CFE889F9893083EA89FB89208394
:10464000EE89FF89408121E030E0C9010A8C02C077
:10465000880F991F0A94E2F7482B4083EE89FF895F
:104660004081C9010B8C02C0880F991F0A94E2F7A0
:10467000482B4083EE89FF894081C9010C8C02C020
:10468000880F991F0A94E2F7482B4083EE89FF892F
:1046900080810D8C02C0220F331F0A94E2F720950F
:1046A00028232083DF91CF911F910F91FF90EF90EE
:1046B000DF90BF90AF900895DC011C96ED91FC91C6
:1046C0001D97E05CFF4F2191319180819181281BE2
:1046D000390B2F733070C9010895DC011C96ED91E0
:1046E000FC911D97E05CFF4F20813181E054F04048
:1046F000DF01AE5BBF4F8D919C9111972817390751
:1047000019F42FEF3FEF07C08D919C91E80FF91F2F
:104710008081282F30E0C9010895DC011C96ED91BD
:10472000FC911D97E05CFF4F20813181E054F04007
:10473000DF01AE5BBF4F8D919C9111972817390710
:1047400019F42FEF3FEF10C08D919C911197E80F56
:10475000F91F20818D919C91119701968F73907014
:1047600011969C938E9330E0C9010895FC018685D3
:104770009785DC01A05CBF4FFC01EE5BFF4F2D91E4
:104780003C9111978081918128173907C1F70895CD
:10479000CF93DF93EC01EE85FF85E05CFF4F208136
:1047A0003181E054F0402F5F3F4F2F733070DF01B5
:1047B000AE5BBF4F8D919C91119728173907D1F3AC
:1047C000E05CFF4F80819181E054F040E80FF91FD9
:1047D0006083EE85FF85E05CFF4F31832083EE89A7
:1047E000FF89208181E090E00D8C02C0880F991F25
:1047F0000A94E2F7282B208381E090E0DF91CF91AB
:1048000008951F931092900A10928F0A28EE33E0B9
:1048100040E050E02093910A3093920A4093930A2B
:104820005093940A6BE074E070938E0A60938D0A43
:104830008DE698E090939A0A8093990A81EB98E02C
:1048400090939C0A80939B0A85EC90E090939E0A3B
:1048500080939D0A84EC90E09093A00A80939F0A35
:1048600080EC90E09093A20A8093A10A81EC90E002
:104870009093A40A8093A30A86EC90E09093A60AF2
:104880008093A50A14E01093A70AB3E0B093A80A96
:10489000A7E0A093A90AF5E0F093AA0AE1E0E0936B
:1048A000AB0A1092AF0A1092AE0A2093B00A30936E
:1048B000B10A4093B20A5093B30A7093AD0A609361
:1048C000AC0A85EF98E09093B90A8093B80A89E31F
:1048D00099E09093BB0A8093BA0A8DEC90E0909394
:1048E000BD0A8093BC0A8CEC90E09093BF0A809341
:1048F000BE0A88EC90E09093C10A8093C00A89ECCC
:1049000090E09093C30A8093C20A8EEC90E090935B
:10491000C50A8093C40A1093C60AB093C70AA0932D
:10492000C80AF093C90AE093CA0A1092CE0A1092FC
:10493000CD0A2093CF0A3093D00A4093D10A5093E6
:10494000D20A7093CC0A6093CB0A8DE799E09093DA
:10495000D80A8093D70A81EC99E09093DA0A809381
:10496000D90A85ED90E09093DC0A8093DB0A84ED10
:1049700090E09093DE0A8093DD0A80ED90E09093C2
:10498000E00A8093DF0A81ED90E09093E20A809341
:10499000E10A86ED90E09093E40A8093E30A109395
:1049A000E50AB093E60AA093E70AF093E80AE093D9
:1049B000E90A1092ED0A1092EC0A2093EE0A309365
:1049C000EF0A4093F00A5093F10A7093EB0A609358
:1049D000EA0A85E09AE09093F70A8093F60A89E460
:1049E0009AE09093F90A8093F80A85E391E0909316
:1049F000FB0A8093FA0A84E391E09093FD0A809386
:104A0000FC0A80E391E09093FF0A8093FE0A81E321
:104A100091E09093010B8093000B86E391E09093DB
:104A2000030B8093020B1093040BB093050BA09320
:104A3000060BF093070BE093080B1F910895CF929C
:104A4000DF92EF92FF920F931F93CF93DF937C013E
:104A50006B018A01C0E0D0E00FC0D6016D916D01FD
:104A6000D701ED91FC910190F081E02DC7011995DE
:104A7000C80FD91F015010400115110571F7CE0163
:104A8000DF91CF911F910F91FF90EF90DF90CF902A
:104A90000895CF93DF93DB010D900020E9F7119784
:104AA000A61BB70BEC01E881F9810280F381E02DB0
:104AB000AD011995DF91CF9108954F925F927F924A
:104AC0008F929F92AF92BF92CF92DF92EF92FF921E
:104AD0000F931F93DF93CF93CDB7DEB7A1970FB698
:104AE000F894DEBF0FBECDBF2C01742ECB01223057
:104AF00008F42AE019A231E2C32ED12CCC0EDD1E1F
:104B0000822E9924AA24BB24672D752FA501940118
:104B10000E943A3079018A01C801B701A5019401C8
:104B20000E94F42F472D461B0894C108D1084A3033
:104B300014F4405D01C0495CF6014083E114F104C6
:104B40000105110521F07E2C5F2DC801DDCFC201CA
:104B5000B6010E944925A1960FB6F894DEBF0FBE9C
:104B6000CDBFCF91DF911F910F91FF90EF90DF901C
:104B7000CF90BF90AF909F908F907F905F904F901D
:104B80000895CF92DF92EF92FF920F931F93CF93EE
:104B9000DF93EC016A017B012115310541F4E881C5
:104BA000F9810190F081E02D642F19951FC02A3002
:104BB0003105D1F477FF17C0E881F9810190F081C8
:104BC000E02D6DE219958C0144275527BA014C1947
:104BD0005D096E097F09CE012AE00E945D259801DA
:104BE000280F391F04C02AE00E945D259C01C901DD
:104BF000DF91CF911F910F91FF90EF90DF90CF90B9
:104C00000895EF92FF920F931F937B019A01002763
:104C1000F7FC0095102FB801A7010E94C1251F9134
:104C20000F91FF90EF9008950E94492508952F92CB
:104C30003F924F925F926F927F928F929F92AF922C
:104C4000BF92CF92DF92EF92FF920F931F93DF9369
:104C5000CF93CDB7DEB73B014C0119012A016E8914
:104C60007F89888D998D6A197B098C099D09621A43
:104C7000730A840A950AA40193010E94F42FE21892
:104C8000F30804091509A80197010E945C302A0D58
:104C90003B1D4C1D5D1DB901CA01CF91DF911F91D4
:104CA0000F91FF90EF90DF90CF90BF90AF909F90CB
:104CB0008F907F906F905F904F903F902F900895CE
:104CC000CF93DF930E94011F0E943C04C1E9D1E20F
:104CD0000E94B11D2097E1F30E949121F9CF089520
:104CE000FC01138212828BE194E0918380837583AF
:104CF0006483578346837187608753874287158A09
:104D0000158614861786168621E0248B8FEF9FEF79
:104D1000938B828B918B808B268B08952F923F9261
:104D20004F925F926F927F928F929F92AF92BF92BB
:104D3000CF92DF92EF92FF920F931F93DF93CF9367
:104D400000D00F92CDB7DEB73C017C836B836A0144
:104D50005901FA82E982222433249801241B350B5D
:104D600037FF03C0309521953F4FC5014B815C81D2
:104D7000841B950B97FF03C0909581959F4F8217D9
:104D800093075CF481E0282E312CC601CB80DC80B7
:104D90009C838B83C80185015C018B819C81A81653
:104DA000B90644F4C501AB80BC809C838B83C801E9
:104DB00086016C012501AB81BC814A1A5B0A78012E
:104DC000EC18FD08F7FE04C0F094E194F108F394A8
:104DD000C016D10624F088248A94982C03C0B1E030
:104DE0008B2E912CC20162E070E00E9427308B0173
:104DF00025C0D301ED91FC912114310441F00480D0
:104E0000F581E02DC301B6014B815C8107C00480B0
:104E1000F581E02DC3016B817C81A60129813A8156
:104E200019950E191F0917FF04C0C80CD91C040DD1
:104E3000151DEB81FC813196FC83EB834B815C81FA
:104E4000A416B506B4F60F900F900F900F90CF9167
:104E5000DF911F910F91FF90EF90DF90CF90BF9067
:104E6000AF909F908F907F906F905F904F903F900A
:104E70002F9008954F925F926F927F928F929F92A0
:104E8000AF92BF92CF92DF92EF92FF920F931F9358
:104E90006C015B014A0139012801DC01ED91FC91B3
:104EA0000284F385E02D87011995D601ED91FC91DF
:104EB000A40141505040440D551D0284F385E02D5E
:104EC000C601B50193011995D601ED91FC910084BD
:104ED000F185E02DC601B501A40192011995D60115
:104EE000ED91FC910894A108B108A60CB71C0084B0
:104EF000F185E02DC601B501A401920119951F911C
:104F00000F91FF90EF90DF90CF90BF90AF909F9068
:104F10008F907F906F905F904F900895CF92DF9227
:104F2000EF92FF920F931F93DC016B017801ED91DB
:104F3000FC918A0101501040020F131F0680F78177
:104F4000E02D960119951F910F91FF90EF90DF9042
:104F5000CF900895CF92DF92EF92FF920F931F931D
:104F6000DC016A01C9017801ED91FC9111979B0167
:104F700021503040280F391F0680F781E02DCD01E8
:104F8000860119951F910F91FF90EF90DF90CF90C0
:104F900008956F927F928F929F92AF92BF92CF921D
:104FA000DF92EF92FF920F931F93CF93DF935C01F9
:104FB0003A0169014801EB01C60ED71E0DC0D501AB
:104FC000ED91FC910084F185E02DC501BE01A301A6
:104FD0009401870119952196CC15DD0584F3DF91A5
:104FE000CF911F910F91FF90EF90DF90CF90BF90E6
:104FF000AF909F908F907F906F900895EF92FF9267
:105000000F931F93FC017B01A081B1812085318525
:10501000028513851E960D90BC91A02D60E070E076
:1050200040E050E0FD0119951F910F91FF90EF9026
:1050300008952F923F924F925F926F927F928F923C
:105040009F92AF92BF92CF92DF92EF92FF920F9317
:105050001F93DF93CF93CDB7DEB72F970FB6F8949A
:10506000DEBF0FBECDBF5C015E834D8318870F830B
:10507000FA86E986CB86DC0118968D919C9119976A
:10508000681779070CF0A4C01A968D919C911B9714
:10509000481759070CF09CC0EC2DF0E0FF87EE8715
:1050A000CF01880F991F8E0F9F1F880F991F860FA2
:1050B000971F181619060CF08BC0CF0103E0880F5C
:1050C000991F0A95E1F7840F951F181619060CF021
:1050D0007FC085E0289FA00111245A8349832B01BA
:1050E0001B011C825C81553011F480E005C0E98110
:1050F000FA81EC5FFD4F84912C863D866D807E8029
:1051000043011B82C82EDD2480FF1CC0D501ED9118
:10511000FC91BB85B13049F40480F581E02DC501D7
:10512000B201A3012F81388522C00684F785E02DC6
:10513000C5016C857D85A4012E853F858901EF80A1
:10514000F88423C0E985FA852F813885E217F307B3
:10515000E9F0D501ED91FC91BB85B13051F40480AB
:10516000F581E02DC501B201A30129853A85199584
:105170000DC00684F785E02DC5016C857D85A401F1
:105180002E853F858901E984FA841995EB81EF5FCB
:10519000EB832E853F85820E931E0894611C711C43
:1051A000E83021F0D594C7948C2DACCF3C813F5F83
:1051B0003C834E855F85240E351E0894411C511C8E
:1051C00089819A8101969A838983363009F08ACF42
:1051D0002F960FB6F894DEBF0FBECDBFCF91DF91F3
:1051E0001F910F91FF90EF90DF90CF90BF90AF9005
:1051F0009F908F907F906F905F904F903F902F90F7
:105200000895CF92EF92FF920F931F93CF93DF9366
:10521000EC01262F6A3061F42C8930E013E0220F74
:10522000331F1A95E1F78E859F85820F931F37C034
:105230006D30C9F16C857D854E855F85088919893A
:10524000EA88FB88CC880E9419282C8986E0289F50
:10525000B00111248C859D85680F791F7D876C872F
:105260008E89882301F1422F50E08AEF9FEF9C0145
:10527000429FC001439F900D529F900D112428859D
:105280003985820F931F861797076CF4B3E0440F9C
:10529000551FBA95E1F78E859F85840F951F9F87CF
:1052A0008E871D861C8681E090E0DF91CF911F9153
:1052B0000F91FF90EF90CF900895FC017587648760
:1052C000578746870895FC01738B628B718B608BC7
:1052D0000895FC01668B08950895DC0158968C9121
:1052E0005897882329F06EBD0DB407FEFDCF0895B1
:1052F00030E840E050E070E0832F90E08623972371
:105300005996ED91FC915A9796962C919697892BE8
:1053100021F08081822B808304C080812095282306
:1053200020835B96ED91FC915C97808197969C9190
:105330009797892B80835B96ED91FC915C97908188
:1053400097968C91979780958923808336954F5FA8
:105350005F4F4830510581F608950F931F938C01DC
:10536000DC015F96ED91FC919097908199968C91DC
:1053700099978095892380835D96ED91FC915E9746
:10538000908198968C91809589238083C8010E9492
:105390006D29D8015D96ED91FC915E97808198967C
:1053A0009C91892B80831F910F9108950F931F93D8
:1053B0008C01DC015F96ED91FC919097808199962C
:1053C0009C919997892B80835D96ED91FC915E97D6
:1053D000908198968C91809589238083C8010E9442
:1053E0006D29D8015D96ED91FC915E97808198962C
:1053F0009C91892B80831F910F910895CF92DF920A
:10540000EF92FF920F931F937C01162FC42ED22E82
:105410006AE20E94AD29C70160E00E94D629F70127
:1054200062A5610FC7010E94D629C70160E00E94F2
:10543000D629F70162A56D0DC7010E94D629C701C3
:105440006BE20E94AD29C70160E00E94D629F701F6
:1054500063A56C0DC7010E94D629C70160E00E94B8
:10546000D629F70163A5600FC7010E94D629C7019D
:105470006CE20E94AD291F910F91FF90EF90DF9099
:10548000CF900895FF920F931F93CF93DF93EC017A
:10549000F22E132F77FD2EC088859985681779071E
:1054A0004CF557FD27C08A859B854817590714F589
:1054B000262F2F5F042F0F5FCE010E94FE29EF8D54
:1054C000F8A1808199A5892B8083ED8DFE8D908137
:1054D00088A5809589238083CE01612F0E946D2944
:1054E000CE016F2D0E946D29ED8DFE8D808198A5D6
:1054F000892B8083DF91CF911F910F91FF900895A9
:10550000DF92EF92FF920F931F93CF93DF93EC0103
:10551000FB017901D02E8885998568177907D4F524
:105520002A853B8542175307ACF5C701840F951FA9
:10553000281739071CF47901E41AF50A042F0150E1
:105540000E0DCE016E2F2E2F0E94FE29EF8DF8A199
:10555000808199A5892B8083ED8DFE8D908188A512
:1055600080958923808308C0CE01612F0E946D2918
:10557000CE016D2D0E946D290894E108F1088FEF8E
:10558000E8168FEFF80681F7ED8DFE8D808198A5E6
:10559000892B8083DF91CF911F910F91FF90EF9026
:1055A000DF900895DF92EF92FF920F931F93CF93B6
:1055B000DF93EC01FA017901D02E28853985621735
:1055C0007307D4F58A859B8548175907ACF5C70141
:1055D000860F971F281739071CF47901E61AF70A76
:1055E000262F21502E0DCE014E2F0E2F0E94FE2968
:1055F000EF8DF8A1808199A5892B8083ED8DFE8D9B
:10560000908188A580958923808308C0CE01612F71
:105610000E946D29CE016D2D0E946D290894E1082C
:10562000F1088FEFE8168FEFF80681F7ED8DFE8D0C
:10563000808198A5892B8083DF91CF911F910F9155
:10564000FF90EF90DF900895EF92FF920F931F93DA
:10565000FC017B01A081B181208531850285138504
:105660001E960D90BC91A02D60E070E040E050E0EF
:10567000FD0119951F910F91FF90EF900895AF9242
:10568000BF92CF92DF92EF92FF920F931F93CF932F
:10569000DF936C015901E801DC0118962D913C91D2
:1056A0001997621773070CF057C01A96ED91FC9189
:1056B0001B974E175F070CF04FC0C501860F971F51
:1056C000281739071CF45901A61AB70ACE01840F0E
:1056D000951FE817F9071CF4EF01C41BD50B262F03
:1056E00021502A0D042F01500C0FC6010E94FE29E3
:1056F000D6015F96ED91FC919097808199969C914F
:105700009997892B80835D96ED91FC915E979081AE
:1057100098968C918095892380838E010EC0C60156
:105720006F2D0E946D29C6016E2D0E946D29219753
:105730001C161D06A4F3015010401016110614F497
:10574000E501F6CFD6015D96ED91FC915E978081E3
:1057500098969C91892B8083DF91CF911F910F9117
:10576000FF90EF90DF90CF90BF90AF90089550E002
:105770004C7F507033E0440F551F3A95E1F730E00D
:1057800093E0359527959A95E1F7422B532B70E0DE
:10579000687F7070762F6627462B572BCA010895B5
:1057A000662311F460E201C061E20E94AD29089510
:1057B000AF92BF92CF92DF92EF92FF920F931F931F
:1057C000CF93DF935C01FB01EB012196D49031C0B4
:1057D0008E010F5F1F4FFE016491C5010E94AD292C
:1057E00078010894E11CF11CF801C4900C2D0F778E
:1057F000E701102F08C0FE012196E491C5016E2F2C
:105800000E94D62911501123B1F7E701C00FD11D15
:10581000C7FE0EC0FE018491682F70E06F3F7105D6
:1058200011F464EF71E0219680E090E00E94A81EE0
:10583000DA94DD2069F6DF91CF911F910F91FF90EF
:10584000EF90DF90CF90BF90AF9008950F931F938C
:10585000CF93DF93EC018B011BA61AA68AA161E00E
:105860000E94971F89A161E00E94971FE9A14E2F16
:1058700050E0FA01EE5CFE4FE491F0E0EE0FFF1F06
:10588000E250FF4F859194919E8F8D8FEAA12E2F2C
:1058900030E0F901EE5CFE4FE491F0E0EE0FFF1F07
:1058A000E250FF4F8591949198A38F8F48585E4F97
:1058B000FA01849188A728583E4FF901849189A75D
:1058C000888D882361F00E94602D80E00E944F2D1A
:1058D00081E00E94412D80E00E944A2D3DC08DA1B3
:1058E00061E00E94971F8CA161E00E94971FEDA1CB
:1058F0004E2F50E0FA01EE5CFE4FE491F0E0EE0F27
:10590000FF1FE250FF4FA591B491BC8FAB8FECA16C
:105910002E2F30E0F901EE5CFE4FE491F0E0EE0F47
:10592000FF1FE250FF4F859194919A8F898F4858BD
:105930005E4FFA0194919FA328583E4FF90184913C
:105940008EA38C91909598239C93E98DFA8D9081EC
:105950008EA1809589238083ED8DFE8D908188A511
:105960008095892380838BA1882309F161E00E94BF
:10597000971F8BA161E00E944A2064EF71E080E0F4
:1059800090E00E94A81E8BA160E00E944A2064EF74
:1059900071E080E090E00E94A81E8BA161E00E946F
:1059A0004A2064EF71E080E090E00E94A81E01159B
:1059B000110521F0CE01B8010E94D82BDF91CF91C3
:1059C0001F910F9108951F93CF93DF93EC01162F32
:1059D0006FEF76E00E94262C112349F4CE016AE392
:1059E00077E00E94D82B82E08AA781E00EC01130B8
:1059F00071F480E890E09B878A87CE0167E477E0C6
:105A00000E94D82B82E08AA783E08BA705C0CE0135
:105A100064E577E00E94D82BCE0161E677E00E9432
:105A2000D82B123041F4CE0166E30E94AD29CE019D
:105A300060EC0E94D6291F8BDF91CF911F910895B2
:105A4000DF92EF92FF920F931F938C01F62EE42EBC
:105A5000D22E60E870E040EA50E00E94702683E3B6
:105A600094E0F80191838083F1A2E2A2D3A281E0C5
:105A7000808F15A214A21F910F91FF90EF90DF90DD
:105A80000895882319F48CB5806202C08CB58F7D8F
:105A90008CBD08959CB5937F982B9CBD08952CB523
:105AA000382F33702C7F322B3CBD2DB590E095956F
:105AB00087959595879581702E7F822B8DBD089552
:105AC00084E361E00E94971F83E361E00E94971FD7
:105AD00085E361E00E94971F84E360E00E944A2012
